{
	"contracts/week1assginment.sol": {
		"Capstone": {
			"abi": [
				{
					"inputs": [
						{
							"internalType": "uint256",
							"name": "",
							"type": "uint256"
						}
					],
					"name": "idUsed",
					"outputs": [
						{
							"internalType": "bool",
							"name": "",
							"type": "bool"
						}
					],
					"stateMutability": "view",
					"type": "function"
				},
				{
					"inputs": [
						{
							"internalType": "uint256",
							"name": "",
							"type": "uint256"
						}
					],
					"name": "ledger",
					"outputs": [
						{
							"internalType": "uint256",
							"name": "id",
							"type": "uint256"
						},
						{
							"internalType": "address",
							"name": "investor",
							"type": "address"
						},
						{
							"internalType": "string",
							"name": "assetName",
							"type": "string"
						},
						{
							"internalType": "uint256",
							"name": "principal",
							"type": "uint256"
						},
						{
							"internalType": "uint256",
							"name": "timestamp",
							"type": "uint256"
						},
						{
							"internalType": "enum Capstone.Continent",
							"name": "continent",
							"type": "uint8"
						},
						{
							"internalType": "enum Capstone.AssetClass",
							"name": "assetClass",
							"type": "uint8"
						}
					],
					"stateMutability": "view",
					"type": "function"
				},
				{
					"inputs": [],
					"name": "owner",
					"outputs": [
						{
							"internalType": "uint256",
							"name": "",
							"type": "uint256"
						}
					],
					"stateMutability": "view",
					"type": "function"
				},
				{
					"inputs": [],
					"name": "totalInvestmentsCount",
					"outputs": [
						{
							"internalType": "uint256",
							"name": "",
							"type": "uint256"
						}
					],
					"stateMutability": "view",
					"type": "function"
				}
			],
			"devdoc": {
				"kind": "dev",
				"methods": {},
				"version": 1
			},
			"evm": {
				"assembly": "    /* \"contracts/week1assginment.sol\":62:739  contract Capstone {... */\n  mstore(0x40, 0x80)\n  callvalue\n  dup1\n  iszero\n  tag_1\n  jumpi\n  revert(0x00, 0x00)\ntag_1:\n  pop\n  dataSize(sub_0)\n  dup1\n  dataOffset(sub_0)\n  0x00\n  codecopy\n  0x00\n  return\nstop\n\nsub_0: assembly {\n        /* \"contracts/week1assginment.sol\":62:739  contract Capstone {... */\n      mstore(0x40, 0x80)\n      callvalue\n      dup1\n      iszero\n      tag_1\n      jumpi\n      revert(0x00, 0x00)\n    tag_1:\n      pop\n      jumpi(tag_2, lt(calldatasize, 0x04))\n      shr(0xe0, calldataload(0x00))\n      dup1\n      0x10a7fd7b\n      eq\n      tag_3\n      jumpi\n      dup1\n      0x693b0289\n      eq\n      tag_4\n      jumpi\n      dup1\n      0x8da5cb5b\n      eq\n      tag_5\n      jumpi\n      dup1\n      0x93dac8ff\n      eq\n      tag_6\n      jumpi\n    tag_2:\n      revert(0x00, 0x00)\n        /* \"contracts/week1assginment.sol\":576:619  mapping(uint256 =>Investment) public ledger */\n    tag_3:\n      tag_7\n      0x04\n      dup1\n      calldatasize\n      sub\n      dup2\n      add\n      swap1\n      tag_8\n      swap2\n      swap1\n      tag_9\n      jump\t// in\n    tag_8:\n      tag_10\n      jump\t// in\n    tag_7:\n      mload(0x40)\n      tag_11\n      swap8\n      swap7\n      swap6\n      swap5\n      swap4\n      swap3\n      swap2\n      swap1\n      tag_12\n      jump\t// in\n    tag_11:\n      mload(0x40)\n      dup1\n      swap2\n      sub\n      swap1\n      return\n        /* \"contracts/week1assginment.sol\":626:663  mapping(uint256 =>bool) public idUsed */\n    tag_4:\n      tag_13\n      0x04\n      dup1\n      calldatasize\n      sub\n      dup2\n      add\n      swap1\n      tag_14\n      swap2\n      swap1\n      tag_9\n      jump\t// in\n    tag_14:\n      tag_15\n      jump\t// in\n    tag_13:\n      mload(0x40)\n      tag_16\n      swap2\n      swap1\n      tag_17\n      jump\t// in\n    tag_16:\n      mload(0x40)\n      dup1\n      swap2\n      sub\n      swap1\n      return\n        /* \"contracts/week1assginment.sol\":715:735  uint256 public owner */\n    tag_5:\n      tag_18\n      tag_19\n      jump\t// in\n    tag_18:\n      mload(0x40)\n      tag_20\n      swap2\n      swap1\n      tag_21\n      jump\t// in\n    tag_20:\n      mload(0x40)\n      dup1\n      swap2\n      sub\n      swap1\n      return\n        /* \"contracts/week1assginment.sol\":672:708  uint256 public totalInvestmentsCount */\n    tag_6:\n      tag_22\n      tag_23\n      jump\t// in\n    tag_22:\n      mload(0x40)\n      tag_24\n      swap2\n      swap1\n      tag_21\n      jump\t// in\n    tag_24:\n      mload(0x40)\n      dup1\n      swap2\n      sub\n      swap1\n      return\n        /* \"contracts/week1assginment.sol\":576:619  mapping(uint256 =>Investment) public ledger */\n    tag_10:\n      mstore(0x20, 0x00)\n      dup1\n      0x00\n      mstore\n      keccak256(0x00, 0x40)\n      0x00\n      swap2\n      pop\n      swap1\n      pop\n      dup1\n      0x00\n      add\n      sload\n      swap1\n      dup1\n      0x01\n      add\n      0x00\n      swap1\n      sload\n      swap1\n      0x0100\n      exp\n      swap1\n      div\n      0xffffffffffffffffffffffffffffffffffffffff\n      and\n      swap1\n      dup1\n      0x02\n      add\n      dup1\n      sload\n      tag_25\n      swap1\n      tag_26\n      jump\t// in\n    tag_25:\n      dup1\n      0x1f\n      add\n      0x20\n      dup1\n      swap2\n      div\n      mul\n      0x20\n      add\n      mload(0x40)\n      swap1\n      dup2\n      add\n      0x40\n      mstore\n      dup1\n      swap3\n      swap2\n      swap1\n      dup2\n      dup2\n      mstore\n      0x20\n      add\n      dup3\n      dup1\n      sload\n      tag_27\n      swap1\n      tag_26\n      jump\t// in\n    tag_27:\n      dup1\n      iszero\n      tag_28\n      jumpi\n      dup1\n      0x1f\n      lt\n      tag_29\n      jumpi\n      0x0100\n      dup1\n      dup4\n      sload\n      div\n      mul\n      dup4\n      mstore\n      swap2\n      0x20\n      add\n      swap2\n      jump(tag_28)\n    tag_29:\n      dup3\n      add\n      swap2\n      swap1\n      0x00\n      mstore\n      keccak256(0x00, 0x20)\n      swap1\n    tag_30:\n      dup2\n      sload\n      dup2\n      mstore\n      swap1\n      0x01\n      add\n      swap1\n      0x20\n      add\n      dup1\n      dup4\n      gt\n      tag_30\n      jumpi\n      dup3\n      swap1\n      sub\n      0x1f\n      and\n      dup3\n      add\n      swap2\n    tag_28:\n      pop\n      pop\n      pop\n      pop\n      pop\n      swap1\n      dup1\n      0x03\n      add\n      sload\n      swap1\n      dup1\n      0x04\n      add\n      sload\n      swap1\n      dup1\n      0x05\n      add\n      0x00\n      swap1\n      sload\n      swap1\n      0x0100\n      exp\n      swap1\n      div\n      0xff\n      and\n      swap1\n      dup1\n      0x05\n      add\n      0x01\n      swap1\n      sload\n      swap1\n      0x0100\n      exp\n      swap1\n      div\n      0xff\n      and\n      swap1\n      pop\n      dup8\n      jump\t// out\n        /* \"contracts/week1assginment.sol\":626:663  mapping(uint256 =>bool) public idUsed */\n    tag_15:\n      mstore(0x20, 0x01)\n      dup1\n      0x00\n      mstore\n      keccak256(0x00, 0x40)\n      0x00\n      swap2\n      pop\n      sload\n      swap1\n      0x0100\n      exp\n      swap1\n      div\n      0xff\n      and\n      dup2\n      jump\t// out\n        /* \"contracts/week1assginment.sol\":715:735  uint256 public owner */\n    tag_19:\n      sload(0x03)\n      dup2\n      jump\t// out\n        /* \"contracts/week1assginment.sol\":672:708  uint256 public totalInvestmentsCount */\n    tag_23:\n      sload(0x02)\n      dup2\n      jump\t// out\n        /* \"#utility.yul\":88:205   */\n    tag_32:\n        /* \"#utility.yul\":197:198   */\n      0x00\n        /* \"#utility.yul\":194:195   */\n      0x00\n        /* \"#utility.yul\":187:199   */\n      revert\n        /* \"#utility.yul\":334:411   */\n    tag_34:\n        /* \"#utility.yul\":371:378   */\n      0x00\n        /* \"#utility.yul\":400:405   */\n      dup2\n        /* \"#utility.yul\":389:405   */\n      swap1\n      pop\n        /* \"#utility.yul\":334:411   */\n      swap2\n      swap1\n      pop\n      jump\t// out\n        /* \"#utility.yul\":417:539   */\n    tag_35:\n        /* \"#utility.yul\":490:514   */\n      tag_64\n        /* \"#utility.yul\":508:513   */\n      dup2\n        /* \"#utility.yul\":490:514   */\n      tag_34\n      jump\t// in\n    tag_64:\n        /* \"#utility.yul\":483:488   */\n      dup2\n        /* \"#utility.yul\":480:515   */\n      eq\n        /* \"#utility.yul\":470:533   */\n      tag_65\n      jumpi\n        /* \"#utility.yul\":529:530   */\n      0x00\n        /* \"#utility.yul\":526:527   */\n      0x00\n        /* \"#utility.yul\":519:531   */\n      revert\n        /* \"#utility.yul\":470:533   */\n    tag_65:\n        /* \"#utility.yul\":417:539   */\n      pop\n      jump\t// out\n        /* \"#utility.yul\":545:684   */\n    tag_36:\n        /* \"#utility.yul\":591:596   */\n      0x00\n        /* \"#utility.yul\":629:635   */\n      dup2\n        /* \"#utility.yul\":616:636   */\n      calldataload\n        /* \"#utility.yul\":607:636   */\n      swap1\n      pop\n        /* \"#utility.yul\":645:678   */\n      tag_67\n        /* \"#utility.yul\":672:677   */\n      dup2\n        /* \"#utility.yul\":645:678   */\n      tag_35\n      jump\t// in\n    tag_67:\n        /* \"#utility.yul\":545:684   */\n      swap3\n      swap2\n      pop\n      pop\n      jump\t// out\n        /* \"#utility.yul\":690:1019   */\n    tag_9:\n        /* \"#utility.yul\":749:755   */\n      0x00\n        /* \"#utility.yul\":798:800   */\n      0x20\n        /* \"#utility.yul\":786:795   */\n      dup3\n        /* \"#utility.yul\":777:784   */\n      dup5\n        /* \"#utility.yul\":773:796   */\n      sub\n        /* \"#utility.yul\":769:801   */\n      slt\n        /* \"#utility.yul\":766:885   */\n      iszero\n      tag_69\n      jumpi\n        /* \"#utility.yul\":804:883   */\n      tag_70\n      tag_32\n      jump\t// in\n    tag_70:\n        /* \"#utility.yul\":766:885   */\n    tag_69:\n        /* \"#utility.yul\":924:925   */\n      0x00\n        /* \"#utility.yul\":949:1002   */\n      tag_71\n        /* \"#utility.yul\":994:1001   */\n      dup5\n        /* \"#utility.yul\":985:991   */\n      dup3\n        /* \"#utility.yul\":974:983   */\n      dup6\n        /* \"#utility.yul\":970:992   */\n      add\n        /* \"#utility.yul\":949:1002   */\n      tag_36\n      jump\t// in\n    tag_71:\n        /* \"#utility.yul\":939:1002   */\n      swap2\n      pop\n        /* \"#utility.yul\":895:1012   */\n      pop\n        /* \"#utility.yul\":690:1019   */\n      swap3\n      swap2\n      pop\n      pop\n      jump\t// out\n        /* \"#utility.yul\":1025:1143   */\n    tag_37:\n        /* \"#utility.yul\":1112:1136   */\n      tag_73\n        /* \"#utility.yul\":1130:1135   */\n      dup2\n        /* \"#utility.yul\":1112:1136   */\n      tag_34\n      jump\t// in\n    tag_73:\n        /* \"#utility.yul\":1107:1110   */\n      dup3\n        /* \"#utility.yul\":1100:1137   */\n      mstore\n        /* \"#utility.yul\":1025:1143   */\n      pop\n      pop\n      jump\t// out\n        /* \"#utility.yul\":1149:1275   */\n    tag_38:\n        /* \"#utility.yul\":1186:1193   */\n      0x00\n        /* \"#utility.yul\":1226:1268   */\n      0xffffffffffffffffffffffffffffffffffffffff\n        /* \"#utility.yul\":1219:1224   */\n      dup3\n        /* \"#utility.yul\":1215:1269   */\n      and\n        /* \"#utility.yul\":1204:1269   */\n      swap1\n      pop\n        /* \"#utility.yul\":1149:1275   */\n      swap2\n      swap1\n      pop\n      jump\t// out\n        /* \"#utility.yul\":1281:1377   */\n    tag_39:\n        /* \"#utility.yul\":1318:1325   */\n      0x00\n        /* \"#utility.yul\":1347:1371   */\n      tag_76\n        /* \"#utility.yul\":1365:1370   */\n      dup3\n        /* \"#utility.yul\":1347:1371   */\n      tag_38\n      jump\t// in\n    tag_76:\n        /* \"#utility.yul\":1336:1371   */\n      swap1\n      pop\n        /* \"#utility.yul\":1281:1377   */\n      swap2\n      swap1\n      pop\n      jump\t// out\n        /* \"#utility.yul\":1383:1501   */\n    tag_40:\n        /* \"#utility.yul\":1470:1494   */\n      tag_78\n        /* \"#utility.yul\":1488:1493   */\n      dup2\n        /* \"#utility.yul\":1470:1494   */\n      tag_39\n      jump\t// in\n    tag_78:\n        /* \"#utility.yul\":1465:1468   */\n      dup3\n        /* \"#utility.yul\":1458:1495   */\n      mstore\n        /* \"#utility.yul\":1383:1501   */\n      pop\n      pop\n      jump\t// out\n        /* \"#utility.yul\":1507:1606   */\n    tag_41:\n        /* \"#utility.yul\":1559:1565   */\n      0x00\n        /* \"#utility.yul\":1593:1598   */\n      dup2\n        /* \"#utility.yul\":1587:1599   */\n      mload\n        /* \"#utility.yul\":1577:1599   */\n      swap1\n      pop\n        /* \"#utility.yul\":1507:1606   */\n      swap2\n      swap1\n      pop\n      jump\t// out\n        /* \"#utility.yul\":1612:1781   */\n    tag_42:\n        /* \"#utility.yul\":1696:1707   */\n      0x00\n        /* \"#utility.yul\":1730:1736   */\n      dup3\n        /* \"#utility.yul\":1725:1728   */\n      dup3\n        /* \"#utility.yul\":1718:1737   */\n      mstore\n        /* \"#utility.yul\":1770:1774   */\n      0x20\n        /* \"#utility.yul\":1765:1768   */\n      dup3\n        /* \"#utility.yul\":1761:1775   */\n      add\n        /* \"#utility.yul\":1746:1775   */\n      swap1\n      pop\n        /* \"#utility.yul\":1612:1781   */\n      swap3\n      swap2\n      pop\n      pop\n      jump\t// out\n        /* \"#utility.yul\":1787:1926   */\n    tag_43:\n        /* \"#utility.yul\":1876:1882   */\n      dup3\n        /* \"#utility.yul\":1871:1874   */\n      dup2\n        /* \"#utility.yul\":1866:1869   */\n      dup4\n        /* \"#utility.yul\":1860:1883   */\n      mcopy\n        /* \"#utility.yul\":1917:1918   */\n      0x00\n        /* \"#utility.yul\":1908:1914   */\n      dup4\n        /* \"#utility.yul\":1903:1906   */\n      dup4\n        /* \"#utility.yul\":1899:1915   */\n      add\n        /* \"#utility.yul\":1892:1919   */\n      mstore\n        /* \"#utility.yul\":1787:1926   */\n      pop\n      pop\n      pop\n      jump\t// out\n        /* \"#utility.yul\":1932:2034   */\n    tag_44:\n        /* \"#utility.yul\":1973:1979   */\n      0x00\n        /* \"#utility.yul\":2024:2026   */\n      0x1f\n        /* \"#utility.yul\":2020:2027   */\n      not\n        /* \"#utility.yul\":2015:2017   */\n      0x1f\n        /* \"#utility.yul\":2008:2013   */\n      dup4\n        /* \"#utility.yul\":2004:2018   */\n      add\n        /* \"#utility.yul\":2000:2028   */\n      and\n        /* \"#utility.yul\":1990:2028   */\n      swap1\n      pop\n        /* \"#utility.yul\":1932:2034   */\n      swap2\n      swap1\n      pop\n      jump\t// out\n        /* \"#utility.yul\":2040:2417   */\n    tag_45:\n        /* \"#utility.yul\":2128:2131   */\n      0x00\n        /* \"#utility.yul\":2156:2195   */\n      tag_84\n        /* \"#utility.yul\":2189:2194   */\n      dup3\n        /* \"#utility.yul\":2156:2195   */\n      tag_41\n      jump\t// in\n    tag_84:\n        /* \"#utility.yul\":2211:2282   */\n      tag_85\n        /* \"#utility.yul\":2275:2281   */\n      dup2\n        /* \"#utility.yul\":2270:2273   */\n      dup6\n        /* \"#utility.yul\":2211:2282   */\n      tag_42\n      jump\t// in\n    tag_85:\n        /* \"#utility.yul\":2204:2282   */\n      swap4\n      pop\n        /* \"#utility.yul\":2291:2356   */\n      tag_86\n        /* \"#utility.yul\":2349:2355   */\n      dup2\n        /* \"#utility.yul\":2344:2347   */\n      dup6\n        /* \"#utility.yul\":2337:2341   */\n      0x20\n        /* \"#utility.yul\":2330:2335   */\n      dup7\n        /* \"#utility.yul\":2326:2342   */\n      add\n        /* \"#utility.yul\":2291:2356   */\n      tag_43\n      jump\t// in\n    tag_86:\n        /* \"#utility.yul\":2381:2410   */\n      tag_87\n        /* \"#utility.yul\":2403:2409   */\n      dup2\n        /* \"#utility.yul\":2381:2410   */\n      tag_44\n      jump\t// in\n    tag_87:\n        /* \"#utility.yul\":2376:2379   */\n      dup5\n        /* \"#utility.yul\":2372:2411   */\n      add\n        /* \"#utility.yul\":2365:2411   */\n      swap2\n      pop\n        /* \"#utility.yul\":2132:2417   */\n      pop\n        /* \"#utility.yul\":2040:2417   */\n      swap3\n      swap2\n      pop\n      pop\n      jump\t// out\n        /* \"#utility.yul\":2423:2603   */\n    tag_46:\n        /* \"#utility.yul\":2471:2548   */\n      0x4e487b7100000000000000000000000000000000000000000000000000000000\n        /* \"#utility.yul\":2468:2469   */\n      0x00\n        /* \"#utility.yul\":2461:2549   */\n      mstore\n        /* \"#utility.yul\":2568:2572   */\n      0x21\n        /* \"#utility.yul\":2565:2566   */\n      0x04\n        /* \"#utility.yul\":2558:2573   */\n      mstore\n        /* \"#utility.yul\":2592:2596   */\n      0x24\n        /* \"#utility.yul\":2589:2590   */\n      0x00\n        /* \"#utility.yul\":2582:2597   */\n      revert\n        /* \"#utility.yul\":2609:2725   */\n    tag_47:\n        /* \"#utility.yul\":2693:2694   */\n      0x07\n        /* \"#utility.yul\":2686:2691   */\n      dup2\n        /* \"#utility.yul\":2683:2695   */\n      lt\n        /* \"#utility.yul\":2673:2719   */\n      tag_90\n      jumpi\n        /* \"#utility.yul\":2699:2717   */\n      tag_91\n      tag_46\n      jump\t// in\n    tag_91:\n        /* \"#utility.yul\":2673:2719   */\n    tag_90:\n        /* \"#utility.yul\":2609:2725   */\n      pop\n      jump\t// out\n        /* \"#utility.yul\":2731:2864   */\n    tag_48:\n        /* \"#utility.yul\":2779:2786   */\n      0x00\n        /* \"#utility.yul\":2808:2813   */\n      dup2\n        /* \"#utility.yul\":2797:2813   */\n      swap1\n      pop\n        /* \"#utility.yul\":2814:2858   */\n      tag_93\n        /* \"#utility.yul\":2852:2857   */\n      dup3\n        /* \"#utility.yul\":2814:2858   */\n      tag_47\n      jump\t// in\n    tag_93:\n        /* \"#utility.yul\":2731:2864   */\n      swap2\n      swap1\n      pop\n      jump\t// out\n        /* \"#utility.yul\":2870:3003   */\n    tag_49:\n        /* \"#utility.yul\":2929:2938   */\n      0x00\n        /* \"#utility.yul\":2962:2997   */\n      tag_95\n        /* \"#utility.yul\":2991:2996   */\n      dup3\n        /* \"#utility.yul\":2962:2997   */\n      tag_48\n      jump\t// in\n    tag_95:\n        /* \"#utility.yul\":2949:2997   */\n      swap1\n      pop\n        /* \"#utility.yul\":2870:3003   */\n      swap2\n      swap1\n      pop\n      jump\t// out\n        /* \"#utility.yul\":3009:3158   */\n    tag_50:\n        /* \"#utility.yul\":3105:3151   */\n      tag_97\n        /* \"#utility.yul\":3145:3150   */\n      dup2\n        /* \"#utility.yul\":3105:3151   */\n      tag_49\n      jump\t// in\n    tag_97:\n        /* \"#utility.yul\":3100:3103   */\n      dup3\n        /* \"#utility.yul\":3093:3152   */\n      mstore\n        /* \"#utility.yul\":3009:3158   */\n      pop\n      pop\n      jump\t// out\n        /* \"#utility.yul\":3164:3282   */\n    tag_51:\n        /* \"#utility.yul\":3250:3251   */\n      0x04\n        /* \"#utility.yul\":3243:3248   */\n      dup2\n        /* \"#utility.yul\":3240:3252   */\n      lt\n        /* \"#utility.yul\":3230:3276   */\n      tag_99\n      jumpi\n        /* \"#utility.yul\":3256:3274   */\n      tag_100\n      tag_46\n      jump\t// in\n    tag_100:\n        /* \"#utility.yul\":3230:3276   */\n    tag_99:\n        /* \"#utility.yul\":3164:3282   */\n      pop\n      jump\t// out\n        /* \"#utility.yul\":3288:3425   */\n    tag_52:\n        /* \"#utility.yul\":3338:3345   */\n      0x00\n        /* \"#utility.yul\":3367:3372   */\n      dup2\n        /* \"#utility.yul\":3356:3372   */\n      swap1\n      pop\n        /* \"#utility.yul\":3373:3419   */\n      tag_102\n        /* \"#utility.yul\":3413:3418   */\n      dup3\n        /* \"#utility.yul\":3373:3419   */\n      tag_51\n      jump\t// in\n    tag_102:\n        /* \"#utility.yul\":3288:3425   */\n      swap2\n      swap1\n      pop\n      jump\t// out\n        /* \"#utility.yul\":3431:3568   */\n    tag_53:\n        /* \"#utility.yul\":3492:3501   */\n      0x00\n        /* \"#utility.yul\":3525:3562   */\n      tag_104\n        /* \"#utility.yul\":3556:3561   */\n      dup3\n        /* \"#utility.yul\":3525:3562   */\n      tag_52\n      jump\t// in\n    tag_104:\n        /* \"#utility.yul\":3512:3562   */\n      swap1\n      pop\n        /* \"#utility.yul\":3431:3568   */\n      swap2\n      swap1\n      pop\n      jump\t// out\n        /* \"#utility.yul\":3574:3727   */\n    tag_54:\n        /* \"#utility.yul\":3672:3720   */\n      tag_106\n        /* \"#utility.yul\":3714:3719   */\n      dup2\n        /* \"#utility.yul\":3672:3720   */\n      tag_53\n      jump\t// in\n    tag_106:\n        /* \"#utility.yul\":3667:3670   */\n      dup3\n        /* \"#utility.yul\":3660:3721   */\n      mstore\n        /* \"#utility.yul\":3574:3727   */\n      pop\n      pop\n      jump\t// out\n        /* \"#utility.yul\":3733:4750   */\n    tag_12:\n        /* \"#utility.yul\":4034:4038   */\n      0x00\n        /* \"#utility.yul\":4072:4075   */\n      0xe0\n        /* \"#utility.yul\":4061:4070   */\n      dup3\n        /* \"#utility.yul\":4057:4076   */\n      add\n        /* \"#utility.yul\":4049:4076   */\n      swap1\n      pop\n        /* \"#utility.yul\":4086:4157   */\n      tag_108\n        /* \"#utility.yul\":4154:4155   */\n      0x00\n        /* \"#utility.yul\":4143:4152   */\n      dup4\n        /* \"#utility.yul\":4139:4156   */\n      add\n        /* \"#utility.yul\":4130:4136   */\n      dup11\n        /* \"#utility.yul\":4086:4157   */\n      tag_37\n      jump\t// in\n    tag_108:\n        /* \"#utility.yul\":4167:4239   */\n      tag_109\n        /* \"#utility.yul\":4235:4237   */\n      0x20\n        /* \"#utility.yul\":4224:4233   */\n      dup4\n        /* \"#utility.yul\":4220:4238   */\n      add\n        /* \"#utility.yul\":4211:4217   */\n      dup10\n        /* \"#utility.yul\":4167:4239   */\n      tag_40\n      jump\t// in\n    tag_109:\n        /* \"#utility.yul\":4286:4295   */\n      dup2\n        /* \"#utility.yul\":4280:4284   */\n      dup2\n        /* \"#utility.yul\":4276:4296   */\n      sub\n        /* \"#utility.yul\":4271:4273   */\n      0x40\n        /* \"#utility.yul\":4260:4269   */\n      dup4\n        /* \"#utility.yul\":4256:4274   */\n      add\n        /* \"#utility.yul\":4249:4297   */\n      mstore\n        /* \"#utility.yul\":4314:4392   */\n      tag_110\n        /* \"#utility.yul\":4387:4391   */\n      dup2\n        /* \"#utility.yul\":4378:4384   */\n      dup9\n        /* \"#utility.yul\":4314:4392   */\n      tag_45\n      jump\t// in\n    tag_110:\n        /* \"#utility.yul\":4306:4392   */\n      swap1\n      pop\n        /* \"#utility.yul\":4402:4474   */\n      tag_111\n        /* \"#utility.yul\":4470:4472   */\n      0x60\n        /* \"#utility.yul\":4459:4468   */\n      dup4\n        /* \"#utility.yul\":4455:4473   */\n      add\n        /* \"#utility.yul\":4446:4452   */\n      dup8\n        /* \"#utility.yul\":4402:4474   */\n      tag_37\n      jump\t// in\n    tag_111:\n        /* \"#utility.yul\":4484:4557   */\n      tag_112\n        /* \"#utility.yul\":4552:4555   */\n      0x80\n        /* \"#utility.yul\":4541:4550   */\n      dup4\n        /* \"#utility.yul\":4537:4556   */\n      add\n        /* \"#utility.yul\":4528:4534   */\n      dup7\n        /* \"#utility.yul\":4484:4557   */\n      tag_37\n      jump\t// in\n    tag_112:\n        /* \"#utility.yul\":4567:4649   */\n      tag_113\n        /* \"#utility.yul\":4644:4647   */\n      0xa0\n        /* \"#utility.yul\":4633:4642   */\n      dup4\n        /* \"#utility.yul\":4629:4648   */\n      add\n        /* \"#utility.yul\":4620:4626   */\n      dup6\n        /* \"#utility.yul\":4567:4649   */\n      tag_50\n      jump\t// in\n    tag_113:\n        /* \"#utility.yul\":4659:4743   */\n      tag_114\n        /* \"#utility.yul\":4738:4741   */\n      0xc0\n        /* \"#utility.yul\":4727:4736   */\n      dup4\n        /* \"#utility.yul\":4723:4742   */\n      add\n        /* \"#utility.yul\":4714:4720   */\n      dup5\n        /* \"#utility.yul\":4659:4743   */\n      tag_54\n      jump\t// in\n    tag_114:\n        /* \"#utility.yul\":3733:4750   */\n      swap9\n      swap8\n      pop\n      pop\n      pop\n      pop\n      pop\n      pop\n      pop\n      pop\n      jump\t// out\n        /* \"#utility.yul\":4756:4846   */\n    tag_55:\n        /* \"#utility.yul\":4790:4797   */\n      0x00\n        /* \"#utility.yul\":4833:4838   */\n      dup2\n        /* \"#utility.yul\":4826:4839   */\n      iszero\n        /* \"#utility.yul\":4819:4840   */\n      iszero\n        /* \"#utility.yul\":4808:4840   */\n      swap1\n      pop\n        /* \"#utility.yul\":4756:4846   */\n      swap2\n      swap1\n      pop\n      jump\t// out\n        /* \"#utility.yul\":4852:4961   */\n    tag_56:\n        /* \"#utility.yul\":4933:4954   */\n      tag_117\n        /* \"#utility.yul\":4948:4953   */\n      dup2\n        /* \"#utility.yul\":4933:4954   */\n      tag_55\n      jump\t// in\n    tag_117:\n        /* \"#utility.yul\":4928:4931   */\n      dup3\n        /* \"#utility.yul\":4921:4955   */\n      mstore\n        /* \"#utility.yul\":4852:4961   */\n      pop\n      pop\n      jump\t// out\n        /* \"#utility.yul\":4967:5177   */\n    tag_17:\n        /* \"#utility.yul\":5054:5058   */\n      0x00\n        /* \"#utility.yul\":5092:5094   */\n      0x20\n        /* \"#utility.yul\":5081:5090   */\n      dup3\n        /* \"#utility.yul\":5077:5095   */\n      add\n        /* \"#utility.yul\":5069:5095   */\n      swap1\n      pop\n        /* \"#utility.yul\":5105:5170   */\n      tag_119\n        /* \"#utility.yul\":5167:5168   */\n      0x00\n        /* \"#utility.yul\":5156:5165   */\n      dup4\n        /* \"#utility.yul\":5152:5169   */\n      add\n        /* \"#utility.yul\":5143:5149   */\n      dup5\n        /* \"#utility.yul\":5105:5170   */\n      tag_56\n      jump\t// in\n    tag_119:\n        /* \"#utility.yul\":4967:5177   */\n      swap3\n      swap2\n      pop\n      pop\n      jump\t// out\n        /* \"#utility.yul\":5183:5405   */\n    tag_21:\n        /* \"#utility.yul\":5276:5280   */\n      0x00\n        /* \"#utility.yul\":5314:5316   */\n      0x20\n        /* \"#utility.yul\":5303:5312   */\n      dup3\n        /* \"#utility.yul\":5299:5317   */\n      add\n        /* \"#utility.yul\":5291:5317   */\n      swap1\n      pop\n        /* \"#utility.yul\":5327:5398   */\n      tag_121\n        /* \"#utility.yul\":5395:5396   */\n      0x00\n        /* \"#utility.yul\":5384:5393   */\n      dup4\n        /* \"#utility.yul\":5380:5397   */\n      add\n        /* \"#utility.yul\":5371:5377   */\n      dup5\n        /* \"#utility.yul\":5327:5398   */\n      tag_37\n      jump\t// in\n    tag_121:\n        /* \"#utility.yul\":5183:5405   */\n      swap3\n      swap2\n      pop\n      pop\n      jump\t// out\n        /* \"#utility.yul\":5411:5591   */\n    tag_57:\n        /* \"#utility.yul\":5459:5536   */\n      0x4e487b7100000000000000000000000000000000000000000000000000000000\n        /* \"#utility.yul\":5456:5457   */\n      0x00\n        /* \"#utility.yul\":5449:5537   */\n      mstore\n        /* \"#utility.yul\":5556:5560   */\n      0x22\n        /* \"#utility.yul\":5553:5554   */\n      0x04\n        /* \"#utility.yul\":5546:5561   */\n      mstore\n        /* \"#utility.yul\":5580:5584   */\n      0x24\n        /* \"#utility.yul\":5577:5578   */\n      0x00\n        /* \"#utility.yul\":5570:5585   */\n      revert\n        /* \"#utility.yul\":5597:5917   */\n    tag_26:\n        /* \"#utility.yul\":5641:5647   */\n      0x00\n        /* \"#utility.yul\":5678:5679   */\n      0x02\n        /* \"#utility.yul\":5672:5676   */\n      dup3\n        /* \"#utility.yul\":5668:5680   */\n      div\n        /* \"#utility.yul\":5658:5680   */\n      swap1\n      pop\n        /* \"#utility.yul\":5725:5726   */\n      0x01\n        /* \"#utility.yul\":5719:5723   */\n      dup3\n        /* \"#utility.yul\":5715:5727   */\n      and\n        /* \"#utility.yul\":5746:5764   */\n      dup1\n        /* \"#utility.yul\":5736:5817   */\n      tag_124\n      jumpi\n        /* \"#utility.yul\":5802:5806   */\n      0x7f\n        /* \"#utility.yul\":5794:5800   */\n      dup3\n        /* \"#utility.yul\":5790:5807   */\n      and\n        /* \"#utility.yul\":5780:5807   */\n      swap2\n      pop\n        /* \"#utility.yul\":5736:5817   */\n    tag_124:\n        /* \"#utility.yul\":5864:5866   */\n      0x20\n        /* \"#utility.yul\":5856:5862   */\n      dup3\n        /* \"#utility.yul\":5853:5867   */\n      lt\n        /* \"#utility.yul\":5833:5851   */\n      dup2\n        /* \"#utility.yul\":5830:5868   */\n      sub\n        /* \"#utility.yul\":5827:5911   */\n      tag_125\n      jumpi\n        /* \"#utility.yul\":5883:5901   */\n      tag_126\n      tag_57\n      jump\t// in\n    tag_126:\n        /* \"#utility.yul\":5827:5911   */\n    tag_125:\n        /* \"#utility.yul\":5648:5917   */\n      pop\n        /* \"#utility.yul\":5597:5917   */\n      swap2\n      swap1\n      pop\n      jump\t// out\n\n    auxdata: 0xa2646970667358221220f8e7315166ff99813e66bad3ecf32f4c6dc50a07b4156b36bae3aefe158f5c9d64736f6c634300081e0033\n}\n",
				"bytecode": {
					"linkReferences": {},
					"object": "6080604052348015600e575f5ffd5b506105408061001c5f395ff3fe608060405234801561000f575f5ffd5b506004361061004a575f3560e01c806310a7fd7b1461004e578063693b0289146100845780638da5cb5b146100b457806393dac8ff146100d2575b5f5ffd5b6100686004803603810190610063919061024b565b6100f0565b60405161007b97969594939291906103ed565b60405180910390f35b61009e6004803603810190610099919061024b565b6101eb565b6040516100ab919061047b565b60405180910390f35b6100bc610208565b6040516100c99190610494565b60405180910390f35b6100da61020e565b6040516100e79190610494565b60405180910390f35b5f602052805f5260405f205f91509050805f015490806001015f9054906101000a900473ffffffffffffffffffffffffffffffffffffffff1690806002018054610139906104da565b80601f0160208091040260200160405190810160405280929190818152602001828054610165906104da565b80156101b05780601f10610187576101008083540402835291602001916101b0565b820191905f5260205f20905b81548152906001019060200180831161019357829003601f168201915b505050505090806003015490806004015490806005015f9054906101000a900460ff16908060050160019054906101000a900460ff16905087565b6001602052805f5260405f205f915054906101000a900460ff1681565b60035481565b60025481565b5f5ffd5b5f819050919050565b61022a81610218565b8114610234575f5ffd5b50565b5f8135905061024581610221565b92915050565b5f602082840312156102605761025f610214565b5b5f61026d84828501610237565b91505092915050565b61027f81610218565b82525050565b5f73ffffffffffffffffffffffffffffffffffffffff82169050919050565b5f6102ae82610285565b9050919050565b6102be816102a4565b82525050565b5f81519050919050565b5f82825260208201905092915050565b8281835e5f83830152505050565b5f601f19601f8301169050919050565b5f610306826102c4565b61031081856102ce565b93506103208185602086016102de565b610329816102ec565b840191505092915050565b7f4e487b71000000000000000000000000000000000000000000000000000000005f52602160045260245ffd5b6007811061037257610371610334565b5b50565b5f81905061038282610361565b919050565b5f61039182610375565b9050919050565b6103a181610387565b82525050565b600481106103b8576103b7610334565b5b50565b5f8190506103c8826103a7565b919050565b5f6103d7826103bb565b9050919050565b6103e7816103cd565b82525050565b5f60e0820190506104005f83018a610276565b61040d60208301896102b5565b818103604083015261041f81886102fc565b905061042e6060830187610276565b61043b6080830186610276565b61044860a0830185610398565b61045560c08301846103de565b98975050505050505050565b5f8115159050919050565b61047581610461565b82525050565b5f60208201905061048e5f83018461046c565b92915050565b5f6020820190506104a75f830184610276565b92915050565b7f4e487b71000000000000000000000000000000000000000000000000000000005f52602260045260245ffd5b5f60028204905060018216806104f157607f821691505b602082108103610504576105036104ad565b5b5091905056fea2646970667358221220f8e7315166ff99813e66bad3ecf32f4c6dc50a07b4156b36bae3aefe158f5c9d64736f6c634300081e0033",
					"opcodes": "PUSH1 0x80 PUSH1 0x40 MSTORE CALLVALUE DUP1 ISZERO PUSH1 0xE JUMPI PUSH0 PUSH0 REVERT JUMPDEST POP PUSH2 0x540 DUP1 PUSH2 0x1C PUSH0 CODECOPY PUSH0 RETURN INVALID PUSH1 0x80 PUSH1 0x40 MSTORE CALLVALUE DUP1 ISZERO PUSH2 0xF JUMPI PUSH0 PUSH0 REVERT JUMPDEST POP PUSH1 0x4 CALLDATASIZE LT PUSH2 0x4A JUMPI PUSH0 CALLDATALOAD PUSH1 0xE0 SHR DUP1 PUSH4 0x10A7FD7B EQ PUSH2 0x4E JUMPI DUP1 PUSH4 0x693B0289 EQ PUSH2 0x84 JUMPI DUP1 PUSH4 0x8DA5CB5B EQ PUSH2 0xB4 JUMPI DUP1 PUSH4 0x93DAC8FF EQ PUSH2 0xD2 JUMPI JUMPDEST PUSH0 PUSH0 REVERT JUMPDEST PUSH2 0x68 PUSH1 0x4 DUP1 CALLDATASIZE SUB DUP2 ADD SWAP1 PUSH2 0x63 SWAP2 SWAP1 PUSH2 0x24B JUMP JUMPDEST PUSH2 0xF0 JUMP JUMPDEST PUSH1 0x40 MLOAD PUSH2 0x7B SWAP8 SWAP7 SWAP6 SWAP5 SWAP4 SWAP3 SWAP2 SWAP1 PUSH2 0x3ED JUMP JUMPDEST PUSH1 0x40 MLOAD DUP1 SWAP2 SUB SWAP1 RETURN JUMPDEST PUSH2 0x9E PUSH1 0x4 DUP1 CALLDATASIZE SUB DUP2 ADD SWAP1 PUSH2 0x99 SWAP2 SWAP1 PUSH2 0x24B JUMP JUMPDEST PUSH2 0x1EB JUMP JUMPDEST PUSH1 0x40 MLOAD PUSH2 0xAB SWAP2 SWAP1 PUSH2 0x47B JUMP JUMPDEST PUSH1 0x40 MLOAD DUP1 SWAP2 SUB SWAP1 RETURN JUMPDEST PUSH2 0xBC PUSH2 0x208 JUMP JUMPDEST PUSH1 0x40 MLOAD PUSH2 0xC9 SWAP2 SWAP1 PUSH2 0x494 JUMP JUMPDEST PUSH1 0x40 MLOAD DUP1 SWAP2 SUB SWAP1 RETURN JUMPDEST PUSH2 0xDA PUSH2 0x20E JUMP JUMPDEST PUSH1 0x40 MLOAD PUSH2 0xE7 SWAP2 SWAP1 PUSH2 0x494 JUMP JUMPDEST PUSH1 0x40 MLOAD DUP1 SWAP2 SUB SWAP1 RETURN JUMPDEST PUSH0 PUSH1 0x20 MSTORE DUP1 PUSH0 MSTORE PUSH1 0x40 PUSH0 KECCAK256 PUSH0 SWAP2 POP SWAP1 POP DUP1 PUSH0 ADD SLOAD SWAP1 DUP1 PUSH1 0x1 ADD PUSH0 SWAP1 SLOAD SWAP1 PUSH2 0x100 EXP SWAP1 DIV PUSH20 0xFFFFFFFFFFFFFFFFFFFFFFFFFFFFFFFFFFFFFFFF AND SWAP1 DUP1 PUSH1 0x2 ADD DUP1 SLOAD PUSH2 0x139 SWAP1 PUSH2 0x4DA JUMP JUMPDEST DUP1 PUSH1 0x1F ADD PUSH1 0x20 DUP1 SWAP2 DIV MUL PUSH1 0x20 ADD PUSH1 0x40 MLOAD SWAP1 DUP2 ADD PUSH1 0x40 MSTORE DUP1 SWAP3 SWAP2 SWAP1 DUP2 DUP2 MSTORE PUSH1 0x20 ADD DUP3 DUP1 SLOAD PUSH2 0x165 SWAP1 PUSH2 0x4DA JUMP JUMPDEST DUP1 ISZERO PUSH2 0x1B0 JUMPI DUP1 PUSH1 0x1F LT PUSH2 0x187 JUMPI PUSH2 0x100 DUP1 DUP4 SLOAD DIV MUL DUP4 MSTORE SWAP2 PUSH1 0x20 ADD SWAP2 PUSH2 0x1B0 JUMP JUMPDEST DUP3 ADD SWAP2 SWAP1 PUSH0 MSTORE PUSH1 0x20 PUSH0 KECCAK256 SWAP1 JUMPDEST DUP2 SLOAD DUP2 MSTORE SWAP1 PUSH1 0x1 ADD SWAP1 PUSH1 0x20 ADD DUP1 DUP4 GT PUSH2 0x193 JUMPI DUP3 SWAP1 SUB PUSH1 0x1F AND DUP3 ADD SWAP2 JUMPDEST POP POP POP POP POP SWAP1 DUP1 PUSH1 0x3 ADD SLOAD SWAP1 DUP1 PUSH1 0x4 ADD SLOAD SWAP1 DUP1 PUSH1 0x5 ADD PUSH0 SWAP1 SLOAD SWAP1 PUSH2 0x100 EXP SWAP1 DIV PUSH1 0xFF AND SWAP1 DUP1 PUSH1 0x5 ADD PUSH1 0x1 SWAP1 SLOAD SWAP1 PUSH2 0x100 EXP SWAP1 DIV PUSH1 0xFF AND SWAP1 POP DUP8 JUMP JUMPDEST PUSH1 0x1 PUSH1 0x20 MSTORE DUP1 PUSH0 MSTORE PUSH1 0x40 PUSH0 KECCAK256 PUSH0 SWAP2 POP SLOAD SWAP1 PUSH2 0x100 EXP SWAP1 DIV PUSH1 0xFF AND DUP2 JUMP JUMPDEST PUSH1 0x3 SLOAD DUP2 JUMP JUMPDEST PUSH1 0x2 SLOAD DUP2 JUMP JUMPDEST PUSH0 PUSH0 REVERT JUMPDEST PUSH0 DUP2 SWAP1 POP SWAP2 SWAP1 POP JUMP JUMPDEST PUSH2 0x22A DUP2 PUSH2 0x218 JUMP JUMPDEST DUP2 EQ PUSH2 0x234 JUMPI PUSH0 PUSH0 REVERT JUMPDEST POP JUMP JUMPDEST PUSH0 DUP2 CALLDATALOAD SWAP1 POP PUSH2 0x245 DUP2 PUSH2 0x221 JUMP JUMPDEST SWAP3 SWAP2 POP POP JUMP JUMPDEST PUSH0 PUSH1 0x20 DUP3 DUP5 SUB SLT ISZERO PUSH2 0x260 JUMPI PUSH2 0x25F PUSH2 0x214 JUMP JUMPDEST JUMPDEST PUSH0 PUSH2 0x26D DUP5 DUP3 DUP6 ADD PUSH2 0x237 JUMP JUMPDEST SWAP2 POP POP SWAP3 SWAP2 POP POP JUMP JUMPDEST PUSH2 0x27F DUP2 PUSH2 0x218 JUMP JUMPDEST DUP3 MSTORE POP POP JUMP JUMPDEST PUSH0 PUSH20 0xFFFFFFFFFFFFFFFFFFFFFFFFFFFFFFFFFFFFFFFF DUP3 AND SWAP1 POP SWAP2 SWAP1 POP JUMP JUMPDEST PUSH0 PUSH2 0x2AE DUP3 PUSH2 0x285 JUMP JUMPDEST SWAP1 POP SWAP2 SWAP1 POP JUMP JUMPDEST PUSH2 0x2BE DUP2 PUSH2 0x2A4 JUMP JUMPDEST DUP3 MSTORE POP POP JUMP JUMPDEST PUSH0 DUP2 MLOAD SWAP1 POP SWAP2 SWAP1 POP JUMP JUMPDEST PUSH0 DUP3 DUP3 MSTORE PUSH1 0x20 DUP3 ADD SWAP1 POP SWAP3 SWAP2 POP POP JUMP JUMPDEST DUP3 DUP2 DUP4 MCOPY PUSH0 DUP4 DUP4 ADD MSTORE POP POP POP JUMP JUMPDEST PUSH0 PUSH1 0x1F NOT PUSH1 0x1F DUP4 ADD AND SWAP1 POP SWAP2 SWAP1 POP JUMP JUMPDEST PUSH0 PUSH2 0x306 DUP3 PUSH2 0x2C4 JUMP JUMPDEST PUSH2 0x310 DUP2 DUP6 PUSH2 0x2CE JUMP JUMPDEST SWAP4 POP PUSH2 0x320 DUP2 DUP6 PUSH1 0x20 DUP7 ADD PUSH2 0x2DE JUMP JUMPDEST PUSH2 0x329 DUP2 PUSH2 0x2EC JUMP JUMPDEST DUP5 ADD SWAP2 POP POP SWAP3 SWAP2 POP POP JUMP JUMPDEST PUSH32 0x4E487B7100000000000000000000000000000000000000000000000000000000 PUSH0 MSTORE PUSH1 0x21 PUSH1 0x4 MSTORE PUSH1 0x24 PUSH0 REVERT JUMPDEST PUSH1 0x7 DUP2 LT PUSH2 0x372 JUMPI PUSH2 0x371 PUSH2 0x334 JUMP JUMPDEST JUMPDEST POP JUMP JUMPDEST PUSH0 DUP2 SWAP1 POP PUSH2 0x382 DUP3 PUSH2 0x361 JUMP JUMPDEST SWAP2 SWAP1 POP JUMP JUMPDEST PUSH0 PUSH2 0x391 DUP3 PUSH2 0x375 JUMP JUMPDEST SWAP1 POP SWAP2 SWAP1 POP JUMP JUMPDEST PUSH2 0x3A1 DUP2 PUSH2 0x387 JUMP JUMPDEST DUP3 MSTORE POP POP JUMP JUMPDEST PUSH1 0x4 DUP2 LT PUSH2 0x3B8 JUMPI PUSH2 0x3B7 PUSH2 0x334 JUMP JUMPDEST JUMPDEST POP JUMP JUMPDEST PUSH0 DUP2 SWAP1 POP PUSH2 0x3C8 DUP3 PUSH2 0x3A7 JUMP JUMPDEST SWAP2 SWAP1 POP JUMP JUMPDEST PUSH0 PUSH2 0x3D7 DUP3 PUSH2 0x3BB JUMP JUMPDEST SWAP1 POP SWAP2 SWAP1 POP JUMP JUMPDEST PUSH2 0x3E7 DUP2 PUSH2 0x3CD JUMP JUMPDEST DUP3 MSTORE POP POP JUMP JUMPDEST PUSH0 PUSH1 0xE0 DUP3 ADD SWAP1 POP PUSH2 0x400 PUSH0 DUP4 ADD DUP11 PUSH2 0x276 JUMP JUMPDEST PUSH2 0x40D PUSH1 0x20 DUP4 ADD DUP10 PUSH2 0x2B5 JUMP JUMPDEST DUP2 DUP2 SUB PUSH1 0x40 DUP4 ADD MSTORE PUSH2 0x41F DUP2 DUP9 PUSH2 0x2FC JUMP JUMPDEST SWAP1 POP PUSH2 0x42E PUSH1 0x60 DUP4 ADD DUP8 PUSH2 0x276 JUMP JUMPDEST PUSH2 0x43B PUSH1 0x80 DUP4 ADD DUP7 PUSH2 0x276 JUMP JUMPDEST PUSH2 0x448 PUSH1 0xA0 DUP4 ADD DUP6 PUSH2 0x398 JUMP JUMPDEST PUSH2 0x455 PUSH1 0xC0 DUP4 ADD DUP5 PUSH2 0x3DE JUMP JUMPDEST SWAP9 SWAP8 POP POP POP POP POP POP POP POP JUMP JUMPDEST PUSH0 DUP2 ISZERO ISZERO SWAP1 POP SWAP2 SWAP1 POP JUMP JUMPDEST PUSH2 0x475 DUP2 PUSH2 0x461 JUMP JUMPDEST DUP3 MSTORE POP POP JUMP JUMPDEST PUSH0 PUSH1 0x20 DUP3 ADD SWAP1 POP PUSH2 0x48E PUSH0 DUP4 ADD DUP5 PUSH2 0x46C JUMP JUMPDEST SWAP3 SWAP2 POP POP JUMP JUMPDEST PUSH0 PUSH1 0x20 DUP3 ADD SWAP1 POP PUSH2 0x4A7 PUSH0 DUP4 ADD DUP5 PUSH2 0x276 JUMP JUMPDEST SWAP3 SWAP2 POP POP JUMP JUMPDEST PUSH32 0x4E487B7100000000000000000000000000000000000000000000000000000000 PUSH0 MSTORE PUSH1 0x22 PUSH1 0x4 MSTORE PUSH1 0x24 PUSH0 REVERT JUMPDEST PUSH0 PUSH1 0x2 DUP3 DIV SWAP1 POP PUSH1 0x1 DUP3 AND DUP1 PUSH2 0x4F1 JUMPI PUSH1 0x7F DUP3 AND SWAP2 POP JUMPDEST PUSH1 0x20 DUP3 LT DUP2 SUB PUSH2 0x504 JUMPI PUSH2 0x503 PUSH2 0x4AD JUMP JUMPDEST JUMPDEST POP SWAP2 SWAP1 POP JUMP INVALID LOG2 PUSH5 0x6970667358 0x22 SLT KECCAK256 EXTCALL SWAPN 0x31 MLOAD PUSH7 0xFF99813E66BAD3 EOFCREATE 0xF3 0x2F 0x4C PUSH14 0xC50A07B4156B36BAE3AEFE158F5C SWAP14 PUSH5 0x736F6C6343 STOP ADDMOD 0x1E STOP CALLER "
				},
				"gasEstimates": {
					"creation": {
						"codeDepositCost": "268800",
						"executionCost": "304",
						"totalCost": "269104"
					},
					"external": {
						"idUsed(uint256)": "2785",
						"ledger(uint256)": "infinite",
						"owner()": "2447",
						"totalInvestmentsCount()": "2469"
					}
				},
				"methodIdentifiers": {
					"idUsed(uint256)": "693b0289",
					"ledger(uint256)": "10a7fd7b",
					"owner()": "8da5cb5b",
					"totalInvestmentsCount()": "93dac8ff"
				}
			},
			"storageLayout": {
				"storage": [
					{
						"astId": 36,
						"contract": "contracts/week1assginment.sol:Capstone",
						"label": "ledger",
						"offset": 0,
						"slot": "0",
						"type": "t_mapping(t_uint256,t_struct(Investment)31_storage)"
					},
					{
						"astId": 40,
						"contract": "contracts/week1assginment.sol:Capstone",
						"label": "idUsed",
						"offset": 0,
						"slot": "1",
						"type": "t_mapping(t_uint256,t_bool)"
					},
					{
						"astId": 42,
						"contract": "contracts/week1assginment.sol:Capstone",
						"label": "totalInvestmentsCount",
						"offset": 0,
						"slot": "2",
						"type": "t_uint256"
					},
					{
						"astId": 44,
						"contract": "contracts/week1assginment.sol:Capstone",
						"label": "owner",
						"offset": 0,
						"slot": "3",
						"type": "t_uint256"
					}
				],
				"types": {
					"t_address": {
						"encoding": "inplace",
						"label": "address",
						"numberOfBytes": "20"
					},
					"t_bool": {
						"encoding": "inplace",
						"label": "bool",
						"numberOfBytes": "1"
					},
					"t_enum(AssetClass)14": {
						"encoding": "inplace",
						"label": "enum Capstone.AssetClass",
						"numberOfBytes": "1"
					},
					"t_enum(Continent)9": {
						"encoding": "inplace",
						"label": "enum Capstone.Continent",
						"numberOfBytes": "1"
					},
					"t_mapping(t_uint256,t_bool)": {
						"encoding": "mapping",
						"key": "t_uint256",
						"label": "mapping(uint256 => bool)",
						"numberOfBytes": "32",
						"value": "t_bool"
					},
					"t_mapping(t_uint256,t_struct(Investment)31_storage)": {
						"encoding": "mapping",
						"key": "t_uint256",
						"label": "mapping(uint256 => struct Capstone.Investment)",
						"numberOfBytes": "32",
						"value": "t_struct(Investment)31_storage"
					},
					"t_string_storage": {
						"encoding": "bytes",
						"label": "string",
						"numberOfBytes": "32"
					},
					"t_struct(Investment)31_storage": {
						"encoding": "inplace",
						"label": "struct Capstone.Investment",
						"members": [
							{
								"astId": 16,
								"contract": "contracts/week1assginment.sol:Capstone",
								"label": "id",
								"offset": 0,
								"slot": "0",
								"type": "t_uint256"
							},
							{
								"astId": 18,
								"contract": "contracts/week1assginment.sol:Capstone",
								"label": "investor",
								"offset": 0,
								"slot": "1",
								"type": "t_address"
							},
							{
								"astId": 20,
								"contract": "contracts/week1assginment.sol:Capstone",
								"label": "assetName",
								"offset": 0,
								"slot": "2",
								"type": "t_string_storage"
							},
							{
								"astId": 22,
								"contract": "contracts/week1assginment.sol:Capstone",
								"label": "principal",
								"offset": 0,
								"slot": "3",
								"type": "t_uint256"
							},
							{
								"astId": 24,
								"contract": "contracts/week1assginment.sol:Capstone",
								"label": "timestamp",
								"offset": 0,
								"slot": "4",
								"type": "t_uint256"
							},
							{
								"astId": 27,
								"contract": "contracts/week1assginment.sol:Capstone",
								"label": "continent",
								"offset": 0,
								"slot": "5",
								"type": "t_enum(Continent)9"
							},
							{
								"astId": 30,
								"contract": "contracts/week1assginment.sol:Capstone",
								"label": "assetClass",
								"offset": 1,
								"slot": "5",
								"type": "t_enum(AssetClass)14"
							}
						],
						"numberOfBytes": "192"
					},
					"t_uint256": {
						"encoding": "inplace",
						"label": "uint256",
						"numberOfBytes": "32"
					}
				}
			},
			"userdoc": {
				"kind": "user",
				"methods": {},
				"version": 1
			}
		}
	}
}