{
	"contracts/TokenMarketplace.sol": {
		"TokenMarketPlace": {
			"abi": [
				{
					"inputs": [
						{
							"internalType": "address",
							"name": "_slvToken",
							"type": "address"
						}
					],
					"stateMutability": "nonpayable",
					"type": "constructor"
				},
				{
					"inputs": [
						{
							"internalType": "uint256",
							"name": "expectedPayment",
							"type": "uint256"
						},
						{
							"internalType": "uint256",
							"name": "actualPayment",
							"type": "uint256"
						}
					],
					"name": "TokenMarketPlace_InsufficientEthPayment",
					"type": "error"
				},
				{
					"inputs": [
						{
							"internalType": "uint256",
							"name": "expectedToken",
							"type": "uint256"
						},
						{
							"internalType": "uint256",
							"name": "actualToken",
							"type": "uint256"
						}
					],
					"name": "TokenMarketPlace_InsufficientTokenBalance",
					"type": "error"
				},
				{
					"inputs": [
						{
							"internalType": "uint256",
							"name": "numberOfTokens",
							"type": "uint256"
						}
					],
					"name": "TokenMarketPlace_ZeroNumberOfTokens",
					"type": "error"
				},
				{
					"inputs": [],
					"name": "TOKEN_PRICE",
					"outputs": [
						{
							"internalType": "uint256",
							"name": "",
							"type": "uint256"
						}
					],
					"stateMutability": "view",
					"type": "function"
				},
				{
					"inputs": [
						{
							"internalType": "uint256",
							"name": "numberOfTokens",
							"type": "uint256"
						}
					],
					"name": "buyTokensFromMarketPlace",
					"outputs": [],
					"stateMutability": "payable",
					"type": "function"
				},
				{
					"inputs": [
						{
							"internalType": "uint256",
							"name": "numberOfTokenToSell",
							"type": "uint256"
						}
					],
					"name": "createSellOrder",
					"outputs": [],
					"stateMutability": "view",
					"type": "function"
				},
				{
					"inputs": [],
					"name": "slvToken",
					"outputs": [
						{
							"internalType": "contract IERC20",
							"name": "",
							"type": "address"
						}
					],
					"stateMutability": "view",
					"type": "function"
				}
			],
			"devdoc": {
				"kind": "dev",
				"methods": {},
				"version": 1
			},
			"evm": {
				"assembly": "    /* \"contracts/TokenMarketplace.sol\":173:2182  contract TokenMarketPlace {... */\n  mstore(0x40, 0x80)\n    /* \"contracts/TokenMarketplace.sol\":686:764  constructor(address _slvToken) {... */\n  callvalue\n  dup1\n  iszero\n  tag_1\n  jumpi\n  revert(0x00, 0x00)\ntag_1:\n  pop\n  mload(0x40)\n  sub(codesize, bytecodeSize)\n  dup1\n  bytecodeSize\n  dup4\n  codecopy\n  dup2\n  dup2\n  add\n  0x40\n  mstore\n  dup2\n  add\n  swap1\n  tag_2\n  swap2\n  swap1\n  tag_3\n  jump\t// in\ntag_2:\n    /* \"contracts/TokenMarketplace.sol\":746:755  _slvToken */\n  dup1\n    /* \"contracts/TokenMarketplace.sol\":728:736  slvToken */\n  0x01\n  0x00\n    /* \"contracts/TokenMarketplace.sol\":728:756  slvToken = IERC20(_slvToken) */\n  0x0100\n  exp\n  dup2\n  sload\n  dup2\n  0xffffffffffffffffffffffffffffffffffffffff\n  mul\n  not\n  and\n  swap1\n  dup4\n  0xffffffffffffffffffffffffffffffffffffffff\n  and\n  mul\n  or\n  swap1\n  sstore\n  pop\n    /* \"contracts/TokenMarketplace.sol\":686:764  constructor(address _slvToken) {... */\n  pop\n    /* \"contracts/TokenMarketplace.sol\":173:2182  contract TokenMarketPlace {... */\n  jump(tag_6)\n    /* \"#utility.yul\":88:205   */\ntag_8:\n    /* \"#utility.yul\":197:198   */\n  0x00\n    /* \"#utility.yul\":194:195   */\n  0x00\n    /* \"#utility.yul\":187:199   */\n  revert\n    /* \"#utility.yul\":334:460   */\ntag_10:\n    /* \"#utility.yul\":371:378   */\n  0x00\n    /* \"#utility.yul\":411:453   */\n  0xffffffffffffffffffffffffffffffffffffffff\n    /* \"#utility.yul\":404:409   */\n  dup3\n    /* \"#utility.yul\":400:454   */\n  and\n    /* \"#utility.yul\":389:454   */\n  swap1\n  pop\n    /* \"#utility.yul\":334:460   */\n  swap2\n  swap1\n  pop\n  jump\t// out\n    /* \"#utility.yul\":466:562   */\ntag_11:\n    /* \"#utility.yul\":503:510   */\n  0x00\n    /* \"#utility.yul\":532:556   */\n  tag_20\n    /* \"#utility.yul\":550:555   */\n  dup3\n    /* \"#utility.yul\":532:556   */\n  tag_10\n  jump\t// in\ntag_20:\n    /* \"#utility.yul\":521:556   */\n  swap1\n  pop\n    /* \"#utility.yul\":466:562   */\n  swap2\n  swap1\n  pop\n  jump\t// out\n    /* \"#utility.yul\":568:690   */\ntag_12:\n    /* \"#utility.yul\":641:665   */\n  tag_22\n    /* \"#utility.yul\":659:664   */\n  dup2\n    /* \"#utility.yul\":641:665   */\n  tag_11\n  jump\t// in\ntag_22:\n    /* \"#utility.yul\":634:639   */\n  dup2\n    /* \"#utility.yul\":631:666   */\n  eq\n    /* \"#utility.yul\":621:684   */\n  tag_23\n  jumpi\n    /* \"#utility.yul\":680:681   */\n  0x00\n    /* \"#utility.yul\":677:678   */\n  0x00\n    /* \"#utility.yul\":670:682   */\n  revert\n    /* \"#utility.yul\":621:684   */\ntag_23:\n    /* \"#utility.yul\":568:690   */\n  pop\n  jump\t// out\n    /* \"#utility.yul\":696:839   */\ntag_13:\n    /* \"#utility.yul\":753:758   */\n  0x00\n    /* \"#utility.yul\":784:790   */\n  dup2\n    /* \"#utility.yul\":778:791   */\n  mload\n    /* \"#utility.yul\":769:791   */\n  swap1\n  pop\n    /* \"#utility.yul\":800:833   */\n  tag_25\n    /* \"#utility.yul\":827:832   */\n  dup2\n    /* \"#utility.yul\":800:833   */\n  tag_12\n  jump\t// in\ntag_25:\n    /* \"#utility.yul\":696:839   */\n  swap3\n  swap2\n  pop\n  pop\n  jump\t// out\n    /* \"#utility.yul\":845:1196   */\ntag_3:\n    /* \"#utility.yul\":915:921   */\n  0x00\n    /* \"#utility.yul\":964:966   */\n  0x20\n    /* \"#utility.yul\":952:961   */\n  dup3\n    /* \"#utility.yul\":943:950   */\n  dup5\n    /* \"#utility.yul\":939:962   */\n  sub\n    /* \"#utility.yul\":935:967   */\n  slt\n    /* \"#utility.yul\":932:1051   */\n  iszero\n  tag_27\n  jumpi\n    /* \"#utility.yul\":970:1049   */\n  tag_28\n  tag_8\n  jump\t// in\ntag_28:\n    /* \"#utility.yul\":932:1051   */\ntag_27:\n    /* \"#utility.yul\":1090:1091   */\n  0x00\n    /* \"#utility.yul\":1115:1179   */\n  tag_29\n    /* \"#utility.yul\":1171:1178   */\n  dup5\n    /* \"#utility.yul\":1162:1168   */\n  dup3\n    /* \"#utility.yul\":1151:1160   */\n  dup6\n    /* \"#utility.yul\":1147:1169   */\n  add\n    /* \"#utility.yul\":1115:1179   */\n  tag_13\n  jump\t// in\ntag_29:\n    /* \"#utility.yul\":1105:1179   */\n  swap2\n  pop\n    /* \"#utility.yul\":1061:1189   */\n  pop\n    /* \"#utility.yul\":845:1196   */\n  swap3\n  swap2\n  pop\n  pop\n  jump\t// out\n    /* \"contracts/TokenMarketplace.sol\":173:2182  contract TokenMarketPlace {... */\ntag_6:\n  dataSize(sub_0)\n  dup1\n  dataOffset(sub_0)\n  0x00\n  codecopy\n  0x00\n  return\nstop\n\nsub_0: assembly {\n        /* \"contracts/TokenMarketplace.sol\":173:2182  contract TokenMarketPlace {... */\n      mstore(0x40, 0x80)\n      jumpi(tag_1, lt(calldatasize, 0x04))\n      shr(0xe0, calldataload(0x00))\n      dup1\n      0x3c81c4b8\n      eq\n      tag_2\n      jumpi\n      dup1\n      0x978ad233\n      eq\n      tag_3\n      jumpi\n      dup1\n      0xcb80e624\n      eq\n      tag_4\n      jumpi\n      dup1\n      0xd2d8cb67\n      eq\n      tag_5\n      jumpi\n    tag_1:\n      revert(0x00, 0x00)\n        /* \"contracts/TokenMarketplace.sol\":1865:2179  function createSellOrder(uint256 numberOfTokenToSell) external view {... */\n    tag_2:\n      callvalue\n      dup1\n      iszero\n      tag_6\n      jumpi\n      revert(0x00, 0x00)\n    tag_6:\n      pop\n      tag_7\n      0x04\n      dup1\n      calldatasize\n      sub\n      dup2\n      add\n      swap1\n      tag_8\n      swap2\n      swap1\n      tag_9\n      jump\t// in\n    tag_8:\n      tag_10\n      jump\t// in\n    tag_7:\n      stop\n        /* \"contracts/TokenMarketplace.sol\":302:324  IERC20 public slvToken */\n    tag_3:\n      callvalue\n      dup1\n      iszero\n      tag_11\n      jumpi\n      revert(0x00, 0x00)\n    tag_11:\n      pop\n      tag_12\n      tag_13\n      jump\t// in\n    tag_12:\n      mload(0x40)\n      tag_14\n      swap2\n      swap1\n      tag_15\n      jump\t// in\n    tag_14:\n      mload(0x40)\n      dup1\n      swap2\n      sub\n      swap1\n      return\n        /* \"contracts/TokenMarketplace.sol\":1387:1855  function buyTokensFromMarketPlace(uint256 numberOfTokens) external payable{... */\n    tag_4:\n      tag_16\n      0x04\n      dup1\n      calldatasize\n      sub\n      dup2\n      add\n      swap1\n      tag_17\n      swap2\n      swap1\n      tag_9\n      jump\t// in\n    tag_17:\n      tag_18\n      jump\t// in\n    tag_16:\n      stop\n        /* \"contracts/TokenMarketplace.sol\":206:251  uint256 public constant TOKEN_PRICE = 1 ether */\n    tag_5:\n      callvalue\n      dup1\n      iszero\n      tag_19\n      jumpi\n      revert(0x00, 0x00)\n    tag_19:\n      pop\n      tag_20\n      tag_21\n      jump\t// in\n    tag_20:\n      mload(0x40)\n      tag_22\n      swap2\n      swap1\n      tag_23\n      jump\t// in\n    tag_22:\n      mload(0x40)\n      dup1\n      swap2\n      sub\n      swap1\n      return\n        /* \"contracts/TokenMarketplace.sol\":1865:2179  function createSellOrder(uint256 numberOfTokenToSell) external view {... */\n    tag_10:\n        /* \"contracts/TokenMarketplace.sol\":1944:1962  Order memory order */\n      0x00\n        /* \"contracts/TokenMarketplace.sol\":1965:2167  Order({... */\n      mload(0x40)\n      dup1\n      0x80\n      add\n      0x40\n      mstore\n      dup1\n        /* \"contracts/TokenMarketplace.sol\":2002:2013  nextOrderId */\n      sload(0x03)\n        /* \"contracts/TokenMarketplace.sol\":1965:2167  Order({... */\n      dup2\n      mstore\n      0x20\n      add\n        /* \"contracts/TokenMarketplace.sol\":2043:2053  msg.sender */\n      caller\n        /* \"contracts/TokenMarketplace.sol\":1965:2167  Order({... */\n      0xffffffffffffffffffffffffffffffffffffffff\n      and\n      dup2\n      mstore\n      0x20\n      add\n        /* \"contracts/TokenMarketplace.sol\":2096:2115  numberOfTokenToSell */\n      dup4\n        /* \"contracts/TokenMarketplace.sol\":1965:2167  Order({... */\n      dup2\n      mstore\n      0x20\n      add\n        /* \"contracts/TokenMarketplace.sol\":2146:2150  true */\n      0x01\n        /* \"contracts/TokenMarketplace.sol\":1965:2167  Order({... */\n      iszero\n      iszero\n      dup2\n      mstore\n      pop\n        /* \"contracts/TokenMarketplace.sol\":1944:2167  Order memory order = Order({... */\n      swap1\n      pop\n        /* \"contracts/TokenMarketplace.sol\":1933:2179  {... */\n      pop\n        /* \"contracts/TokenMarketplace.sol\":1865:2179  function createSellOrder(uint256 numberOfTokenToSell) external view {... */\n      pop\n      jump\t// out\n        /* \"contracts/TokenMarketplace.sol\":302:324  IERC20 public slvToken */\n    tag_13:\n      0x01\n      0x00\n      swap1\n      sload\n      swap1\n      0x0100\n      exp\n      swap1\n      div\n      0xffffffffffffffffffffffffffffffffffffffff\n      and\n      dup2\n      jump\t// out\n        /* \"contracts/TokenMarketplace.sol\":1387:1855  function buyTokensFromMarketPlace(uint256 numberOfTokens) external payable{... */\n    tag_18:\n        /* \"contracts/TokenMarketplace.sol\":1480:1516  _isZeroNumberOfToken(numberOfTokens) */\n      tag_26\n        /* \"contracts/TokenMarketplace.sol\":1501:1515  numberOfTokens */\n      dup2\n        /* \"contracts/TokenMarketplace.sol\":1480:1500  _isZeroNumberOfToken */\n      tag_27\n        /* \"contracts/TokenMarketplace.sol\":1480:1516  _isZeroNumberOfToken(numberOfTokens) */\n      jump\t// in\n    tag_26:\n        /* \"contracts/TokenMarketplace.sol\":1535:1567  _CheckEthPayment(numberOfTokens) */\n      tag_28\n        /* \"contracts/TokenMarketplace.sol\":1552:1566  numberOfTokens */\n      dup2\n        /* \"contracts/TokenMarketplace.sol\":1535:1551  _CheckEthPayment */\n      tag_29\n        /* \"contracts/TokenMarketplace.sol\":1535:1567  _CheckEthPayment(numberOfTokens) */\n      jump\t// in\n    tag_28:\n        /* \"contracts/TokenMarketplace.sol\":1622:1636  numberOfTokens */\n      dup1\n        /* \"contracts/TokenMarketplace.sol\":1589:1621  _getSlvTokenBalanceMarketPlace() */\n      tag_30\n        /* \"contracts/TokenMarketplace.sol\":1589:1619  _getSlvTokenBalanceMarketPlace */\n      tag_31\n        /* \"contracts/TokenMarketplace.sol\":1589:1621  _getSlvTokenBalanceMarketPlace() */\n      jump\t// in\n    tag_30:\n        /* \"contracts/TokenMarketplace.sol\":1589:1636  _getSlvTokenBalanceMarketPlace()>numberOfTokens */\n      gt\n        /* \"contracts/TokenMarketplace.sol\":1586:1780  if(_getSlvTokenBalanceMarketPlace()>numberOfTokens){... */\n      iszero\n      tag_32\n      jumpi\n        /* \"contracts/TokenMarketplace.sol\":1709:1723  numberOfTokens */\n      dup1\n        /* \"contracts/TokenMarketplace.sol\":1725:1757  _getSlvTokenBalanceMarketPlace() */\n      tag_33\n        /* \"contracts/TokenMarketplace.sol\":1725:1755  _getSlvTokenBalanceMarketPlace */\n      tag_31\n        /* \"contracts/TokenMarketplace.sol\":1725:1757  _getSlvTokenBalanceMarketPlace() */\n      jump\t// in\n    tag_33:\n        /* \"contracts/TokenMarketplace.sol\":1667:1758  TokenMarketPlace_InsufficientTokenBalance(numberOfTokens, _getSlvTokenBalanceMarketPlace()) */\n      mload(0x40)\n      0x48be321400000000000000000000000000000000000000000000000000000000\n      dup2\n      mstore\n      0x04\n      add\n      tag_34\n      swap3\n      swap2\n      swap1\n      tag_35\n      jump\t// in\n    tag_34:\n      mload(0x40)\n      dup1\n      swap2\n      sub\n      swap1\n      revert\n        /* \"contracts/TokenMarketplace.sol\":1586:1780  if(_getSlvTokenBalanceMarketPlace()>numberOfTokens){... */\n    tag_32:\n        /* \"contracts/TokenMarketplace.sol\":1798:1806  slvToken */\n      0x01\n      0x00\n      swap1\n      sload\n      swap1\n      0x0100\n      exp\n      swap1\n      div\n      0xffffffffffffffffffffffffffffffffffffffff\n      and\n        /* \"contracts/TokenMarketplace.sol\":1798:1815  slvToken.transfer */\n      0xffffffffffffffffffffffffffffffffffffffff\n      and\n      0xa9059cbb\n        /* \"contracts/TokenMarketplace.sol\":1816:1826  msg.sender */\n      caller\n        /* \"contracts/TokenMarketplace.sol\":1828:1842  numberOfTokens */\n      dup4\n        /* \"contracts/TokenMarketplace.sol\":1798:1843  slvToken.transfer(msg.sender, numberOfTokens) */\n      mload(0x40)\n      dup4\n      0xffffffff\n      and\n      0xe0\n      shl\n      dup2\n      mstore\n      0x04\n      add\n      tag_36\n      swap3\n      swap2\n      swap1\n      tag_37\n      jump\t// in\n    tag_36:\n      0x20\n      mload(0x40)\n      dup1\n      dup4\n      sub\n      dup2\n      0x00\n      dup8\n      gas\n      call\n      iszero\n      dup1\n      iszero\n      tag_39\n      jumpi\n      returndatacopy(0x00, 0x00, returndatasize)\n      revert(0x00, returndatasize)\n    tag_39:\n      pop\n      pop\n      pop\n      pop\n      mload(0x40)\n      returndatasize\n      not(0x1f)\n      0x1f\n      dup3\n      add\n      and\n      dup3\n      add\n      dup1\n      0x40\n      mstore\n      pop\n      dup2\n      add\n      swap1\n      tag_40\n      swap2\n      swap1\n      tag_41\n      jump\t// in\n    tag_40:\n      pop\n        /* \"contracts/TokenMarketplace.sol\":1387:1855  function buyTokensFromMarketPlace(uint256 numberOfTokens) external payable{... */\n      pop\n      jump\t// out\n        /* \"contracts/TokenMarketplace.sol\":206:251  uint256 public constant TOKEN_PRICE = 1 ether */\n    tag_21:\n        /* \"contracts/TokenMarketplace.sol\":244:251  1 ether */\n      0x0de0b6b3a7640000\n        /* \"contracts/TokenMarketplace.sol\":206:251  uint256 public constant TOKEN_PRICE = 1 ether */\n      dup2\n      jump\t// out\n        /* \"contracts/TokenMarketplace.sol\":920:1121  function _isZeroNumberOfToken(uint256 numberOfTokens) internal pure{... */\n    tag_27:\n        /* \"contracts/TokenMarketplace.sol\":1020:1021  0 */\n      0x00\n        /* \"contracts/TokenMarketplace.sol\":1004:1018  numberOfTokens */\n      dup2\n        /* \"contracts/TokenMarketplace.sol\":1004:1021  numberOfTokens==0 */\n      sub\n        /* \"contracts/TokenMarketplace.sol\":1001:1110  if(numberOfTokens==0){... */\n      tag_43\n      jumpi\n        /* \"contracts/TokenMarketplace.sol\":1080:1094  numberOfTokens */\n      dup1\n        /* \"contracts/TokenMarketplace.sol\":1044:1095  TokenMarketPlace_ZeroNumberOfTokens(numberOfTokens) */\n      mload(0x40)\n      0x4852a7eb00000000000000000000000000000000000000000000000000000000\n      dup2\n      mstore\n      0x04\n      add\n      tag_44\n      swap2\n      swap1\n      tag_23\n      jump\t// in\n    tag_44:\n      mload(0x40)\n      dup1\n      swap2\n      sub\n      swap1\n      revert\n        /* \"contracts/TokenMarketplace.sol\":1001:1110  if(numberOfTokens==0){... */\n    tag_43:\n        /* \"contracts/TokenMarketplace.sol\":920:1121  function _isZeroNumberOfToken(uint256 numberOfTokens) internal pure{... */\n      pop\n      jump\t// out\n        /* \"contracts/TokenMarketplace.sol\":1131:1378  function _CheckEthPayment(uint256 numberOfTokens) internal view {... */\n    tag_29:\n        /* \"contracts/TokenMarketplace.sol\":1240:1249  msg.value */\n      callvalue\n        /* \"contracts/TokenMarketplace.sol\":244:251  1 ether */\n      0x0de0b6b3a7640000\n        /* \"contracts/TokenMarketplace.sol\":1213:1227  numberOfTokens */\n      dup3\n        /* \"contracts/TokenMarketplace.sol\":1213:1239  numberOfTokens*TOKEN_PRICE */\n      tag_46\n      swap2\n      swap1\n      tag_47\n      jump\t// in\n    tag_46:\n        /* \"contracts/TokenMarketplace.sol\":1213:1249  numberOfTokens*TOKEN_PRICE>msg.value */\n      gt\n        /* \"contracts/TokenMarketplace.sol\":1210:1367  if(numberOfTokens*TOKEN_PRICE>msg.value) {... */\n      iszero\n      tag_48\n      jumpi\n        /* \"contracts/TokenMarketplace.sol\":244:251  1 ether */\n      0x0de0b6b3a7640000\n        /* \"contracts/TokenMarketplace.sol\":1313:1327  numberOfTokens */\n      dup2\n        /* \"contracts/TokenMarketplace.sol\":1313:1339  numberOfTokens*TOKEN_PRICE */\n      tag_49\n      swap2\n      swap1\n      tag_47\n      jump\t// in\n    tag_49:\n        /* \"contracts/TokenMarketplace.sol\":1341:1350  msg.value */\n      callvalue\n        /* \"contracts/TokenMarketplace.sol\":1273:1351  TokenMarketPlace_InsufficientEthPayment(numberOfTokens*TOKEN_PRICE, msg.value) */\n      mload(0x40)\n      0x0648d14f00000000000000000000000000000000000000000000000000000000\n      dup2\n      mstore\n      0x04\n      add\n      tag_50\n      swap3\n      swap2\n      swap1\n      tag_35\n      jump\t// in\n    tag_50:\n      mload(0x40)\n      dup1\n      swap2\n      sub\n      swap1\n      revert\n        /* \"contracts/TokenMarketplace.sol\":1210:1367  if(numberOfTokens*TOKEN_PRICE>msg.value) {... */\n    tag_48:\n        /* \"contracts/TokenMarketplace.sol\":1131:1378  function _CheckEthPayment(uint256 numberOfTokens) internal view {... */\n      pop\n      jump\t// out\n        /* \"contracts/TokenMarketplace.sol\":773:909  function _getSlvTokenBalanceMarketPlace() internal view returns(uint256) {... */\n    tag_31:\n        /* \"contracts/TokenMarketplace.sol\":837:844  uint256 */\n      0x00\n        /* \"contracts/TokenMarketplace.sol\":865:873  slvToken */\n      0x01\n      0x00\n      swap1\n      sload\n      swap1\n      0x0100\n      exp\n      swap1\n      div\n      0xffffffffffffffffffffffffffffffffffffffff\n      and\n        /* \"contracts/TokenMarketplace.sol\":865:883  slvToken.balanceOf */\n      0xffffffffffffffffffffffffffffffffffffffff\n      and\n      0x70a08231\n        /* \"contracts/TokenMarketplace.sol\":892:896  this */\n      address\n        /* \"contracts/TokenMarketplace.sol\":865:898  slvToken.balanceOf(address(this)) */\n      mload(0x40)\n      dup3\n      0xffffffff\n      and\n      0xe0\n      shl\n      dup2\n      mstore\n      0x04\n      add\n      tag_52\n      swap2\n      swap1\n      tag_53\n      jump\t// in\n    tag_52:\n      0x20\n      mload(0x40)\n      dup1\n      dup4\n      sub\n      dup2\n      dup7\n      gas\n      staticcall\n      iszero\n      dup1\n      iszero\n      tag_55\n      jumpi\n      returndatacopy(0x00, 0x00, returndatasize)\n      revert(0x00, returndatasize)\n    tag_55:\n      pop\n      pop\n      pop\n      pop\n      mload(0x40)\n      returndatasize\n      not(0x1f)\n      0x1f\n      dup3\n      add\n      and\n      dup3\n      add\n      dup1\n      0x40\n      mstore\n      pop\n      dup2\n      add\n      swap1\n      tag_56\n      swap2\n      swap1\n      tag_57\n      jump\t// in\n    tag_56:\n        /* \"contracts/TokenMarketplace.sol\":858:898  return slvToken.balanceOf(address(this)) */\n      swap1\n      pop\n        /* \"contracts/TokenMarketplace.sol\":773:909  function _getSlvTokenBalanceMarketPlace() internal view returns(uint256) {... */\n      swap1\n      jump\t// out\n        /* \"#utility.yul\":88:205   */\n    tag_59:\n        /* \"#utility.yul\":197:198   */\n      0x00\n        /* \"#utility.yul\":194:195   */\n      0x00\n        /* \"#utility.yul\":187:199   */\n      revert\n        /* \"#utility.yul\":334:411   */\n    tag_61:\n        /* \"#utility.yul\":371:378   */\n      0x00\n        /* \"#utility.yul\":400:405   */\n      dup2\n        /* \"#utility.yul\":389:405   */\n      swap1\n      pop\n        /* \"#utility.yul\":334:411   */\n      swap2\n      swap1\n      pop\n      jump\t// out\n        /* \"#utility.yul\":417:539   */\n    tag_62:\n        /* \"#utility.yul\":490:514   */\n      tag_84\n        /* \"#utility.yul\":508:513   */\n      dup2\n        /* \"#utility.yul\":490:514   */\n      tag_61\n      jump\t// in\n    tag_84:\n        /* \"#utility.yul\":483:488   */\n      dup2\n        /* \"#utility.yul\":480:515   */\n      eq\n        /* \"#utility.yul\":470:533   */\n      tag_85\n      jumpi\n        /* \"#utility.yul\":529:530   */\n      0x00\n        /* \"#utility.yul\":526:527   */\n      0x00\n        /* \"#utility.yul\":519:531   */\n      revert\n        /* \"#utility.yul\":470:533   */\n    tag_85:\n        /* \"#utility.yul\":417:539   */\n      pop\n      jump\t// out\n        /* \"#utility.yul\":545:684   */\n    tag_63:\n        /* \"#utility.yul\":591:596   */\n      0x00\n        /* \"#utility.yul\":629:635   */\n      dup2\n        /* \"#utility.yul\":616:636   */\n      calldataload\n        /* \"#utility.yul\":607:636   */\n      swap1\n      pop\n        /* \"#utility.yul\":645:678   */\n      tag_87\n        /* \"#utility.yul\":672:677   */\n      dup2\n        /* \"#utility.yul\":645:678   */\n      tag_62\n      jump\t// in\n    tag_87:\n        /* \"#utility.yul\":545:684   */\n      swap3\n      swap2\n      pop\n      pop\n      jump\t// out\n        /* \"#utility.yul\":690:1019   */\n    tag_9:\n        /* \"#utility.yul\":749:755   */\n      0x00\n        /* \"#utility.yul\":798:800   */\n      0x20\n        /* \"#utility.yul\":786:795   */\n      dup3\n        /* \"#utility.yul\":777:784   */\n      dup5\n        /* \"#utility.yul\":773:796   */\n      sub\n        /* \"#utility.yul\":769:801   */\n      slt\n        /* \"#utility.yul\":766:885   */\n      iszero\n      tag_89\n      jumpi\n        /* \"#utility.yul\":804:883   */\n      tag_90\n      tag_59\n      jump\t// in\n    tag_90:\n        /* \"#utility.yul\":766:885   */\n    tag_89:\n        /* \"#utility.yul\":924:925   */\n      0x00\n        /* \"#utility.yul\":949:1002   */\n      tag_91\n        /* \"#utility.yul\":994:1001   */\n      dup5\n        /* \"#utility.yul\":985:991   */\n      dup3\n        /* \"#utility.yul\":974:983   */\n      dup6\n        /* \"#utility.yul\":970:992   */\n      add\n        /* \"#utility.yul\":949:1002   */\n      tag_63\n      jump\t// in\n    tag_91:\n        /* \"#utility.yul\":939:1002   */\n      swap2\n      pop\n        /* \"#utility.yul\":895:1012   */\n      pop\n        /* \"#utility.yul\":690:1019   */\n      swap3\n      swap2\n      pop\n      pop\n      jump\t// out\n        /* \"#utility.yul\":1025:1151   */\n    tag_64:\n        /* \"#utility.yul\":1062:1069   */\n      0x00\n        /* \"#utility.yul\":1102:1144   */\n      0xffffffffffffffffffffffffffffffffffffffff\n        /* \"#utility.yul\":1095:1100   */\n      dup3\n        /* \"#utility.yul\":1091:1145   */\n      and\n        /* \"#utility.yul\":1080:1145   */\n      swap1\n      pop\n        /* \"#utility.yul\":1025:1151   */\n      swap2\n      swap1\n      pop\n      jump\t// out\n        /* \"#utility.yul\":1157:1217   */\n    tag_65:\n        /* \"#utility.yul\":1185:1188   */\n      0x00\n        /* \"#utility.yul\":1206:1211   */\n      dup2\n        /* \"#utility.yul\":1199:1211   */\n      swap1\n      pop\n        /* \"#utility.yul\":1157:1217   */\n      swap2\n      swap1\n      pop\n      jump\t// out\n        /* \"#utility.yul\":1223:1365   */\n    tag_66:\n        /* \"#utility.yul\":1273:1282   */\n      0x00\n        /* \"#utility.yul\":1306:1359   */\n      tag_95\n        /* \"#utility.yul\":1324:1358   */\n      tag_96\n        /* \"#utility.yul\":1333:1357   */\n      tag_97\n        /* \"#utility.yul\":1351:1356   */\n      dup5\n        /* \"#utility.yul\":1333:1357   */\n      tag_64\n      jump\t// in\n    tag_97:\n        /* \"#utility.yul\":1324:1358   */\n      tag_65\n      jump\t// in\n    tag_96:\n        /* \"#utility.yul\":1306:1359   */\n      tag_64\n      jump\t// in\n    tag_95:\n        /* \"#utility.yul\":1293:1359   */\n      swap1\n      pop\n        /* \"#utility.yul\":1223:1365   */\n      swap2\n      swap1\n      pop\n      jump\t// out\n        /* \"#utility.yul\":1371:1497   */\n    tag_67:\n        /* \"#utility.yul\":1421:1430   */\n      0x00\n        /* \"#utility.yul\":1454:1491   */\n      tag_99\n        /* \"#utility.yul\":1485:1490   */\n      dup3\n        /* \"#utility.yul\":1454:1491   */\n      tag_66\n      jump\t// in\n    tag_99:\n        /* \"#utility.yul\":1441:1491   */\n      swap1\n      pop\n        /* \"#utility.yul\":1371:1497   */\n      swap2\n      swap1\n      pop\n      jump\t// out\n        /* \"#utility.yul\":1503:1642   */\n    tag_68:\n        /* \"#utility.yul\":1566:1575   */\n      0x00\n        /* \"#utility.yul\":1599:1636   */\n      tag_101\n        /* \"#utility.yul\":1630:1635   */\n      dup3\n        /* \"#utility.yul\":1599:1636   */\n      tag_67\n      jump\t// in\n    tag_101:\n        /* \"#utility.yul\":1586:1636   */\n      swap1\n      pop\n        /* \"#utility.yul\":1503:1642   */\n      swap2\n      swap1\n      pop\n      jump\t// out\n        /* \"#utility.yul\":1648:1805   */\n    tag_69:\n        /* \"#utility.yul\":1748:1798   */\n      tag_103\n        /* \"#utility.yul\":1792:1797   */\n      dup2\n        /* \"#utility.yul\":1748:1798   */\n      tag_68\n      jump\t// in\n    tag_103:\n        /* \"#utility.yul\":1743:1746   */\n      dup3\n        /* \"#utility.yul\":1736:1799   */\n      mstore\n        /* \"#utility.yul\":1648:1805   */\n      pop\n      pop\n      jump\t// out\n        /* \"#utility.yul\":1811:2059   */\n    tag_15:\n        /* \"#utility.yul\":1917:1921   */\n      0x00\n        /* \"#utility.yul\":1955:1957   */\n      0x20\n        /* \"#utility.yul\":1944:1953   */\n      dup3\n        /* \"#utility.yul\":1940:1958   */\n      add\n        /* \"#utility.yul\":1932:1958   */\n      swap1\n      pop\n        /* \"#utility.yul\":1968:2052   */\n      tag_105\n        /* \"#utility.yul\":2049:2050   */\n      0x00\n        /* \"#utility.yul\":2038:2047   */\n      dup4\n        /* \"#utility.yul\":2034:2051   */\n      add\n        /* \"#utility.yul\":2025:2031   */\n      dup5\n        /* \"#utility.yul\":1968:2052   */\n      tag_69\n      jump\t// in\n    tag_105:\n        /* \"#utility.yul\":1811:2059   */\n      swap3\n      swap2\n      pop\n      pop\n      jump\t// out\n        /* \"#utility.yul\":2065:2183   */\n    tag_70:\n        /* \"#utility.yul\":2152:2176   */\n      tag_107\n        /* \"#utility.yul\":2170:2175   */\n      dup2\n        /* \"#utility.yul\":2152:2176   */\n      tag_61\n      jump\t// in\n    tag_107:\n        /* \"#utility.yul\":2147:2150   */\n      dup3\n        /* \"#utility.yul\":2140:2177   */\n      mstore\n        /* \"#utility.yul\":2065:2183   */\n      pop\n      pop\n      jump\t// out\n        /* \"#utility.yul\":2189:2411   */\n    tag_23:\n        /* \"#utility.yul\":2282:2286   */\n      0x00\n        /* \"#utility.yul\":2320:2322   */\n      0x20\n        /* \"#utility.yul\":2309:2318   */\n      dup3\n        /* \"#utility.yul\":2305:2323   */\n      add\n        /* \"#utility.yul\":2297:2323   */\n      swap1\n      pop\n        /* \"#utility.yul\":2333:2404   */\n      tag_109\n        /* \"#utility.yul\":2401:2402   */\n      0x00\n        /* \"#utility.yul\":2390:2399   */\n      dup4\n        /* \"#utility.yul\":2386:2403   */\n      add\n        /* \"#utility.yul\":2377:2383   */\n      dup5\n        /* \"#utility.yul\":2333:2404   */\n      tag_70\n      jump\t// in\n    tag_109:\n        /* \"#utility.yul\":2189:2411   */\n      swap3\n      swap2\n      pop\n      pop\n      jump\t// out\n        /* \"#utility.yul\":2417:2749   */\n    tag_35:\n        /* \"#utility.yul\":2538:2542   */\n      0x00\n        /* \"#utility.yul\":2576:2578   */\n      0x40\n        /* \"#utility.yul\":2565:2574   */\n      dup3\n        /* \"#utility.yul\":2561:2579   */\n      add\n        /* \"#utility.yul\":2553:2579   */\n      swap1\n      pop\n        /* \"#utility.yul\":2589:2660   */\n      tag_111\n        /* \"#utility.yul\":2657:2658   */\n      0x00\n        /* \"#utility.yul\":2646:2655   */\n      dup4\n        /* \"#utility.yul\":2642:2659   */\n      add\n        /* \"#utility.yul\":2633:2639   */\n      dup6\n        /* \"#utility.yul\":2589:2660   */\n      tag_70\n      jump\t// in\n    tag_111:\n        /* \"#utility.yul\":2670:2742   */\n      tag_112\n        /* \"#utility.yul\":2738:2740   */\n      0x20\n        /* \"#utility.yul\":2727:2736   */\n      dup4\n        /* \"#utility.yul\":2723:2741   */\n      add\n        /* \"#utility.yul\":2714:2720   */\n      dup5\n        /* \"#utility.yul\":2670:2742   */\n      tag_70\n      jump\t// in\n    tag_112:\n        /* \"#utility.yul\":2417:2749   */\n      swap4\n      swap3\n      pop\n      pop\n      pop\n      jump\t// out\n        /* \"#utility.yul\":2755:2851   */\n    tag_71:\n        /* \"#utility.yul\":2792:2799   */\n      0x00\n        /* \"#utility.yul\":2821:2845   */\n      tag_114\n        /* \"#utility.yul\":2839:2844   */\n      dup3\n        /* \"#utility.yul\":2821:2845   */\n      tag_64\n      jump\t// in\n    tag_114:\n        /* \"#utility.yul\":2810:2845   */\n      swap1\n      pop\n        /* \"#utility.yul\":2755:2851   */\n      swap2\n      swap1\n      pop\n      jump\t// out\n        /* \"#utility.yul\":2857:2975   */\n    tag_72:\n        /* \"#utility.yul\":2944:2968   */\n      tag_116\n        /* \"#utility.yul\":2962:2967   */\n      dup2\n        /* \"#utility.yul\":2944:2968   */\n      tag_71\n      jump\t// in\n    tag_116:\n        /* \"#utility.yul\":2939:2942   */\n      dup3\n        /* \"#utility.yul\":2932:2969   */\n      mstore\n        /* \"#utility.yul\":2857:2975   */\n      pop\n      pop\n      jump\t// out\n        /* \"#utility.yul\":2981:3313   */\n    tag_37:\n        /* \"#utility.yul\":3102:3106   */\n      0x00\n        /* \"#utility.yul\":3140:3142   */\n      0x40\n        /* \"#utility.yul\":3129:3138   */\n      dup3\n        /* \"#utility.yul\":3125:3143   */\n      add\n        /* \"#utility.yul\":3117:3143   */\n      swap1\n      pop\n        /* \"#utility.yul\":3153:3224   */\n      tag_118\n        /* \"#utility.yul\":3221:3222   */\n      0x00\n        /* \"#utility.yul\":3210:3219   */\n      dup4\n        /* \"#utility.yul\":3206:3223   */\n      add\n        /* \"#utility.yul\":3197:3203   */\n      dup6\n        /* \"#utility.yul\":3153:3224   */\n      tag_72\n      jump\t// in\n    tag_118:\n        /* \"#utility.yul\":3234:3306   */\n      tag_119\n        /* \"#utility.yul\":3302:3304   */\n      0x20\n        /* \"#utility.yul\":3291:3300   */\n      dup4\n        /* \"#utility.yul\":3287:3305   */\n      add\n        /* \"#utility.yul\":3278:3284   */\n      dup5\n        /* \"#utility.yul\":3234:3306   */\n      tag_70\n      jump\t// in\n    tag_119:\n        /* \"#utility.yul\":2981:3313   */\n      swap4\n      swap3\n      pop\n      pop\n      pop\n      jump\t// out\n        /* \"#utility.yul\":3319:3409   */\n    tag_73:\n        /* \"#utility.yul\":3353:3360   */\n      0x00\n        /* \"#utility.yul\":3396:3401   */\n      dup2\n        /* \"#utility.yul\":3389:3402   */\n      iszero\n        /* \"#utility.yul\":3382:3403   */\n      iszero\n        /* \"#utility.yul\":3371:3403   */\n      swap1\n      pop\n        /* \"#utility.yul\":3319:3409   */\n      swap2\n      swap1\n      pop\n      jump\t// out\n        /* \"#utility.yul\":3415:3531   */\n    tag_74:\n        /* \"#utility.yul\":3485:3506   */\n      tag_122\n        /* \"#utility.yul\":3500:3505   */\n      dup2\n        /* \"#utility.yul\":3485:3506   */\n      tag_73\n      jump\t// in\n    tag_122:\n        /* \"#utility.yul\":3478:3483   */\n      dup2\n        /* \"#utility.yul\":3475:3507   */\n      eq\n        /* \"#utility.yul\":3465:3525   */\n      tag_123\n      jumpi\n        /* \"#utility.yul\":3521:3522   */\n      0x00\n        /* \"#utility.yul\":3518:3519   */\n      0x00\n        /* \"#utility.yul\":3511:3523   */\n      revert\n        /* \"#utility.yul\":3465:3525   */\n    tag_123:\n        /* \"#utility.yul\":3415:3531   */\n      pop\n      jump\t// out\n        /* \"#utility.yul\":3537:3674   */\n    tag_75:\n        /* \"#utility.yul\":3591:3596   */\n      0x00\n        /* \"#utility.yul\":3622:3628   */\n      dup2\n        /* \"#utility.yul\":3616:3629   */\n      mload\n        /* \"#utility.yul\":3607:3629   */\n      swap1\n      pop\n        /* \"#utility.yul\":3638:3668   */\n      tag_125\n        /* \"#utility.yul\":3662:3667   */\n      dup2\n        /* \"#utility.yul\":3638:3668   */\n      tag_74\n      jump\t// in\n    tag_125:\n        /* \"#utility.yul\":3537:3674   */\n      swap3\n      swap2\n      pop\n      pop\n      jump\t// out\n        /* \"#utility.yul\":3680:4025   */\n    tag_41:\n        /* \"#utility.yul\":3747:3753   */\n      0x00\n        /* \"#utility.yul\":3796:3798   */\n      0x20\n        /* \"#utility.yul\":3784:3793   */\n      dup3\n        /* \"#utility.yul\":3775:3782   */\n      dup5\n        /* \"#utility.yul\":3771:3794   */\n      sub\n        /* \"#utility.yul\":3767:3799   */\n      slt\n        /* \"#utility.yul\":3764:3883   */\n      iszero\n      tag_127\n      jumpi\n        /* \"#utility.yul\":3802:3881   */\n      tag_128\n      tag_59\n      jump\t// in\n    tag_128:\n        /* \"#utility.yul\":3764:3883   */\n    tag_127:\n        /* \"#utility.yul\":3922:3923   */\n      0x00\n        /* \"#utility.yul\":3947:4008   */\n      tag_129\n        /* \"#utility.yul\":4000:4007   */\n      dup5\n        /* \"#utility.yul\":3991:3997   */\n      dup3\n        /* \"#utility.yul\":3980:3989   */\n      dup6\n        /* \"#utility.yul\":3976:3998   */\n      add\n        /* \"#utility.yul\":3947:4008   */\n      tag_75\n      jump\t// in\n    tag_129:\n        /* \"#utility.yul\":3937:4008   */\n      swap2\n      pop\n        /* \"#utility.yul\":3893:4018   */\n      pop\n        /* \"#utility.yul\":3680:4025   */\n      swap3\n      swap2\n      pop\n      pop\n      jump\t// out\n        /* \"#utility.yul\":4031:4211   */\n    tag_76:\n        /* \"#utility.yul\":4079:4156   */\n      0x4e487b7100000000000000000000000000000000000000000000000000000000\n        /* \"#utility.yul\":4076:4077   */\n      0x00\n        /* \"#utility.yul\":4069:4157   */\n      mstore\n        /* \"#utility.yul\":4176:4180   */\n      0x11\n        /* \"#utility.yul\":4173:4174   */\n      0x04\n        /* \"#utility.yul\":4166:4181   */\n      mstore\n        /* \"#utility.yul\":4200:4204   */\n      0x24\n        /* \"#utility.yul\":4197:4198   */\n      0x00\n        /* \"#utility.yul\":4190:4205   */\n      revert\n        /* \"#utility.yul\":4217:4627   */\n    tag_47:\n        /* \"#utility.yul\":4257:4264   */\n      0x00\n        /* \"#utility.yul\":4280:4300   */\n      tag_132\n        /* \"#utility.yul\":4298:4299   */\n      dup3\n        /* \"#utility.yul\":4280:4300   */\n      tag_61\n      jump\t// in\n    tag_132:\n        /* \"#utility.yul\":4275:4300   */\n      swap2\n      pop\n        /* \"#utility.yul\":4314:4334   */\n      tag_133\n        /* \"#utility.yul\":4332:4333   */\n      dup4\n        /* \"#utility.yul\":4314:4334   */\n      tag_61\n      jump\t// in\n    tag_133:\n        /* \"#utility.yul\":4309:4334   */\n      swap3\n      pop\n        /* \"#utility.yul\":4369:4370   */\n      dup3\n        /* \"#utility.yul\":4366:4367   */\n      dup3\n        /* \"#utility.yul\":4362:4371   */\n      mul\n        /* \"#utility.yul\":4391:4421   */\n      tag_134\n        /* \"#utility.yul\":4409:4420   */\n      dup2\n        /* \"#utility.yul\":4391:4421   */\n      tag_61\n      jump\t// in\n    tag_134:\n        /* \"#utility.yul\":4380:4421   */\n      swap2\n      pop\n        /* \"#utility.yul\":4570:4571   */\n      dup3\n        /* \"#utility.yul\":4561:4568   */\n      dup3\n        /* \"#utility.yul\":4557:4572   */\n      div\n        /* \"#utility.yul\":4554:4555   */\n      dup5\n        /* \"#utility.yul\":4551:4573   */\n      eq\n        /* \"#utility.yul\":4531:4532   */\n      dup4\n        /* \"#utility.yul\":4524:4533   */\n      iszero\n        /* \"#utility.yul\":4504:4587   */\n      or\n        /* \"#utility.yul\":4481:4620   */\n      tag_135\n      jumpi\n        /* \"#utility.yul\":4600:4618   */\n      tag_136\n      tag_76\n      jump\t// in\n    tag_136:\n        /* \"#utility.yul\":4481:4620   */\n    tag_135:\n        /* \"#utility.yul\":4265:4627   */\n      pop\n        /* \"#utility.yul\":4217:4627   */\n      swap3\n      swap2\n      pop\n      pop\n      jump\t// out\n        /* \"#utility.yul\":4633:4855   */\n    tag_53:\n        /* \"#utility.yul\":4726:4730   */\n      0x00\n        /* \"#utility.yul\":4764:4766   */\n      0x20\n        /* \"#utility.yul\":4753:4762   */\n      dup3\n        /* \"#utility.yul\":4749:4767   */\n      add\n        /* \"#utility.yul\":4741:4767   */\n      swap1\n      pop\n        /* \"#utility.yul\":4777:4848   */\n      tag_138\n        /* \"#utility.yul\":4845:4846   */\n      0x00\n        /* \"#utility.yul\":4834:4843   */\n      dup4\n        /* \"#utility.yul\":4830:4847   */\n      add\n        /* \"#utility.yul\":4821:4827   */\n      dup5\n        /* \"#utility.yul\":4777:4848   */\n      tag_72\n      jump\t// in\n    tag_138:\n        /* \"#utility.yul\":4633:4855   */\n      swap3\n      swap2\n      pop\n      pop\n      jump\t// out\n        /* \"#utility.yul\":4861:5004   */\n    tag_77:\n        /* \"#utility.yul\":4918:4923   */\n      0x00\n        /* \"#utility.yul\":4949:4955   */\n      dup2\n        /* \"#utility.yul\":4943:4956   */\n      mload\n        /* \"#utility.yul\":4934:4956   */\n      swap1\n      pop\n        /* \"#utility.yul\":4965:4998   */\n      tag_140\n        /* \"#utility.yul\":4992:4997   */\n      dup2\n        /* \"#utility.yul\":4965:4998   */\n      tag_62\n      jump\t// in\n    tag_140:\n        /* \"#utility.yul\":4861:5004   */\n      swap3\n      swap2\n      pop\n      pop\n      jump\t// out\n        /* \"#utility.yul\":5010:5361   */\n    tag_57:\n        /* \"#utility.yul\":5080:5086   */\n      0x00\n        /* \"#utility.yul\":5129:5131   */\n      0x20\n        /* \"#utility.yul\":5117:5126   */\n      dup3\n        /* \"#utility.yul\":5108:5115   */\n      dup5\n        /* \"#utility.yul\":5104:5127   */\n      sub\n        /* \"#utility.yul\":5100:5132   */\n      slt\n        /* \"#utility.yul\":5097:5216   */\n      iszero\n      tag_142\n      jumpi\n        /* \"#utility.yul\":5135:5214   */\n      tag_143\n      tag_59\n      jump\t// in\n    tag_143:\n        /* \"#utility.yul\":5097:5216   */\n    tag_142:\n        /* \"#utility.yul\":5255:5256   */\n      0x00\n        /* \"#utility.yul\":5280:5344   */\n      tag_144\n        /* \"#utility.yul\":5336:5343   */\n      dup5\n        /* \"#utility.yul\":5327:5333   */\n      dup3\n        /* \"#utility.yul\":5316:5325   */\n      dup6\n        /* \"#utility.yul\":5312:5334   */\n      add\n        /* \"#utility.yul\":5280:5344   */\n      tag_77\n      jump\t// in\n    tag_144:\n        /* \"#utility.yul\":5270:5344   */\n      swap2\n      pop\n        /* \"#utility.yul\":5226:5354   */\n      pop\n        /* \"#utility.yul\":5010:5361   */\n      swap3\n      swap2\n      pop\n      pop\n      jump\t// out\n\n    auxdata: 0xa2646970667358221220d247ac3b7f9445f04aee447743dd19adb98e07499c18e470a58b3f871b672a6964736f6c63430008220033\n}\n",
				"bytecode": {
					"linkReferences": {},
					"object": "608060405234801561000f575f5ffd5b5060405161079f38038061079f833981810160405281019061003191906100d5565b8060015f6101000a81548173ffffffffffffffffffffffffffffffffffffffff021916908373ffffffffffffffffffffffffffffffffffffffff16021790555050610100565b5f5ffd5b5f73ffffffffffffffffffffffffffffffffffffffff82169050919050565b5f6100a48261007b565b9050919050565b6100b48161009a565b81146100be575f5ffd5b50565b5f815190506100cf816100ab565b92915050565b5f602082840312156100ea576100e9610077565b5b5f6100f7848285016100c1565b91505092915050565b6106928061010d5f395ff3fe60806040526004361061003e575f3560e01c80633c81c4b814610042578063978ad2331461006a578063cb80e62414610094578063d2d8cb67146100b0575b5f5ffd5b34801561004d575f5ffd5b50610068600480360381019061006391906103e2565b6100da565b005b348015610075575f5ffd5b5061007e61011d565b60405161008b9190610487565b60405180910390f35b6100ae60048036038101906100a991906103e2565b610142565b005b3480156100bb575f5ffd5b506100c4610249565b6040516100d191906104af565b60405180910390f35b5f604051806080016040528060035481526020013373ffffffffffffffffffffffffffffffffffffffff1681526020018381526020016001151581525090505050565b60015f9054906101000a900473ffffffffffffffffffffffffffffffffffffffff1681565b61014b81610255565b6101548161029c565b8061015d61030c565b11156101a9578061016c61030c565b6040517f48be32140000000000000000000000000000000000000000000000000000000081526004016101a09291906104c8565b60405180910390fd5b60015f9054906101000a900473ffffffffffffffffffffffffffffffffffffffff1673ffffffffffffffffffffffffffffffffffffffff1663a9059cbb33836040518363ffffffff1660e01b815260040161020592919061050f565b6020604051808303815f875af1158015610221573d5f5f3e3d5ffd5b505050506040513d601f19601f82011682018060405250810190610245919061056b565b5050565b670de0b6b3a764000081565b5f810361029957806040517f4852a7eb00000000000000000000000000000000000000000000000000000000815260040161029091906104af565b60405180910390fd5b50565b34670de0b6b3a7640000826102b191906105c3565b111561030957670de0b6b3a7640000816102cb91906105c3565b346040517f0648d14f0000000000000000000000000000000000000000000000000000000081526004016103009291906104c8565b60405180910390fd5b50565b5f60015f9054906101000a900473ffffffffffffffffffffffffffffffffffffffff1673ffffffffffffffffffffffffffffffffffffffff166370a08231306040518263ffffffff1660e01b81526004016103679190610604565b602060405180830381865afa158015610382573d5f5f3e3d5ffd5b505050506040513d601f19601f820116820180604052508101906103a69190610631565b905090565b5f5ffd5b5f819050919050565b6103c1816103af565b81146103cb575f5ffd5b50565b5f813590506103dc816103b8565b92915050565b5f602082840312156103f7576103f66103ab565b5b5f610404848285016103ce565b91505092915050565b5f73ffffffffffffffffffffffffffffffffffffffff82169050919050565b5f819050919050565b5f61044f61044a6104458461040d565b61042c565b61040d565b9050919050565b5f61046082610435565b9050919050565b5f61047182610456565b9050919050565b61048181610467565b82525050565b5f60208201905061049a5f830184610478565b92915050565b6104a9816103af565b82525050565b5f6020820190506104c25f8301846104a0565b92915050565b5f6040820190506104db5f8301856104a0565b6104e860208301846104a0565b9392505050565b5f6104f98261040d565b9050919050565b610509816104ef565b82525050565b5f6040820190506105225f830185610500565b61052f60208301846104a0565b9392505050565b5f8115159050919050565b61054a81610536565b8114610554575f5ffd5b50565b5f8151905061056581610541565b92915050565b5f602082840312156105805761057f6103ab565b5b5f61058d84828501610557565b91505092915050565b7f4e487b71000000000000000000000000000000000000000000000000000000005f52601160045260245ffd5b5f6105cd826103af565b91506105d8836103af565b92508282026105e6816103af565b915082820484148315176105fd576105fc610596565b5b5092915050565b5f6020820190506106175f830184610500565b92915050565b5f8151905061062b816103b8565b92915050565b5f60208284031215610646576106456103ab565b5b5f6106538482850161061d565b9150509291505056fea2646970667358221220d247ac3b7f9445f04aee447743dd19adb98e07499c18e470a58b3f871b672a6964736f6c63430008220033",
					"opcodes": "PUSH1 0x80 PUSH1 0x40 MSTORE CALLVALUE DUP1 ISZERO PUSH2 0xF JUMPI PUSH0 PUSH0 REVERT JUMPDEST POP PUSH1 0x40 MLOAD PUSH2 0x79F CODESIZE SUB DUP1 PUSH2 0x79F DUP4 CODECOPY DUP2 DUP2 ADD PUSH1 0x40 MSTORE DUP2 ADD SWAP1 PUSH2 0x31 SWAP2 SWAP1 PUSH2 0xD5 JUMP JUMPDEST DUP1 PUSH1 0x1 PUSH0 PUSH2 0x100 EXP DUP2 SLOAD DUP2 PUSH20 0xFFFFFFFFFFFFFFFFFFFFFFFFFFFFFFFFFFFFFFFF MUL NOT AND SWAP1 DUP4 PUSH20 0xFFFFFFFFFFFFFFFFFFFFFFFFFFFFFFFFFFFFFFFF AND MUL OR SWAP1 SSTORE POP POP PUSH2 0x100 JUMP JUMPDEST PUSH0 PUSH0 REVERT JUMPDEST PUSH0 PUSH20 0xFFFFFFFFFFFFFFFFFFFFFFFFFFFFFFFFFFFFFFFF DUP3 AND SWAP1 POP SWAP2 SWAP1 POP JUMP JUMPDEST PUSH0 PUSH2 0xA4 DUP3 PUSH2 0x7B JUMP JUMPDEST SWAP1 POP SWAP2 SWAP1 POP JUMP JUMPDEST PUSH2 0xB4 DUP2 PUSH2 0x9A JUMP JUMPDEST DUP2 EQ PUSH2 0xBE JUMPI PUSH0 PUSH0 REVERT JUMPDEST POP JUMP JUMPDEST PUSH0 DUP2 MLOAD SWAP1 POP PUSH2 0xCF DUP2 PUSH2 0xAB JUMP JUMPDEST SWAP3 SWAP2 POP POP JUMP JUMPDEST PUSH0 PUSH1 0x20 DUP3 DUP5 SUB SLT ISZERO PUSH2 0xEA JUMPI PUSH2 0xE9 PUSH2 0x77 JUMP JUMPDEST JUMPDEST PUSH0 PUSH2 0xF7 DUP5 DUP3 DUP6 ADD PUSH2 0xC1 JUMP JUMPDEST SWAP2 POP POP SWAP3 SWAP2 POP POP JUMP JUMPDEST PUSH2 0x692 DUP1 PUSH2 0x10D PUSH0 CODECOPY PUSH0 RETURN INVALID PUSH1 0x80 PUSH1 0x40 MSTORE PUSH1 0x4 CALLDATASIZE LT PUSH2 0x3E JUMPI PUSH0 CALLDATALOAD PUSH1 0xE0 SHR DUP1 PUSH4 0x3C81C4B8 EQ PUSH2 0x42 JUMPI DUP1 PUSH4 0x978AD233 EQ PUSH2 0x6A JUMPI DUP1 PUSH4 0xCB80E624 EQ PUSH2 0x94 JUMPI DUP1 PUSH4 0xD2D8CB67 EQ PUSH2 0xB0 JUMPI JUMPDEST PUSH0 PUSH0 REVERT JUMPDEST CALLVALUE DUP1 ISZERO PUSH2 0x4D JUMPI PUSH0 PUSH0 REVERT JUMPDEST POP PUSH2 0x68 PUSH1 0x4 DUP1 CALLDATASIZE SUB DUP2 ADD SWAP1 PUSH2 0x63 SWAP2 SWAP1 PUSH2 0x3E2 JUMP JUMPDEST PUSH2 0xDA JUMP JUMPDEST STOP JUMPDEST CALLVALUE DUP1 ISZERO PUSH2 0x75 JUMPI PUSH0 PUSH0 REVERT JUMPDEST POP PUSH2 0x7E PUSH2 0x11D JUMP JUMPDEST PUSH1 0x40 MLOAD PUSH2 0x8B SWAP2 SWAP1 PUSH2 0x487 JUMP JUMPDEST PUSH1 0x40 MLOAD DUP1 SWAP2 SUB SWAP1 RETURN JUMPDEST PUSH2 0xAE PUSH1 0x4 DUP1 CALLDATASIZE SUB DUP2 ADD SWAP1 PUSH2 0xA9 SWAP2 SWAP1 PUSH2 0x3E2 JUMP JUMPDEST PUSH2 0x142 JUMP JUMPDEST STOP JUMPDEST CALLVALUE DUP1 ISZERO PUSH2 0xBB JUMPI PUSH0 PUSH0 REVERT JUMPDEST POP PUSH2 0xC4 PUSH2 0x249 JUMP JUMPDEST PUSH1 0x40 MLOAD PUSH2 0xD1 SWAP2 SWAP1 PUSH2 0x4AF JUMP JUMPDEST PUSH1 0x40 MLOAD DUP1 SWAP2 SUB SWAP1 RETURN JUMPDEST PUSH0 PUSH1 0x40 MLOAD DUP1 PUSH1 0x80 ADD PUSH1 0x40 MSTORE DUP1 PUSH1 0x3 SLOAD DUP2 MSTORE PUSH1 0x20 ADD CALLER PUSH20 0xFFFFFFFFFFFFFFFFFFFFFFFFFFFFFFFFFFFFFFFF AND DUP2 MSTORE PUSH1 0x20 ADD DUP4 DUP2 MSTORE PUSH1 0x20 ADD PUSH1 0x1 ISZERO ISZERO DUP2 MSTORE POP SWAP1 POP POP POP JUMP JUMPDEST PUSH1 0x1 PUSH0 SWAP1 SLOAD SWAP1 PUSH2 0x100 EXP SWAP1 DIV PUSH20 0xFFFFFFFFFFFFFFFFFFFFFFFFFFFFFFFFFFFFFFFF AND DUP2 JUMP JUMPDEST PUSH2 0x14B DUP2 PUSH2 0x255 JUMP JUMPDEST PUSH2 0x154 DUP2 PUSH2 0x29C JUMP JUMPDEST DUP1 PUSH2 0x15D PUSH2 0x30C JUMP JUMPDEST GT ISZERO PUSH2 0x1A9 JUMPI DUP1 PUSH2 0x16C PUSH2 0x30C JUMP JUMPDEST PUSH1 0x40 MLOAD PUSH32 0x48BE321400000000000000000000000000000000000000000000000000000000 DUP2 MSTORE PUSH1 0x4 ADD PUSH2 0x1A0 SWAP3 SWAP2 SWAP1 PUSH2 0x4C8 JUMP JUMPDEST PUSH1 0x40 MLOAD DUP1 SWAP2 SUB SWAP1 REVERT JUMPDEST PUSH1 0x1 PUSH0 SWAP1 SLOAD SWAP1 PUSH2 0x100 EXP SWAP1 DIV PUSH20 0xFFFFFFFFFFFFFFFFFFFFFFFFFFFFFFFFFFFFFFFF AND PUSH20 0xFFFFFFFFFFFFFFFFFFFFFFFFFFFFFFFFFFFFFFFF AND PUSH4 0xA9059CBB CALLER DUP4 PUSH1 0x40 MLOAD DUP4 PUSH4 0xFFFFFFFF AND PUSH1 0xE0 SHL DUP2 MSTORE PUSH1 0x4 ADD PUSH2 0x205 SWAP3 SWAP2 SWAP1 PUSH2 0x50F JUMP JUMPDEST PUSH1 0x20 PUSH1 0x40 MLOAD DUP1 DUP4 SUB DUP2 PUSH0 DUP8 GAS CALL ISZERO DUP1 ISZERO PUSH2 0x221 JUMPI RETURNDATASIZE PUSH0 PUSH0 RETURNDATACOPY RETURNDATASIZE PUSH0 REVERT JUMPDEST POP POP POP POP PUSH1 0x40 MLOAD RETURNDATASIZE PUSH1 0x1F NOT PUSH1 0x1F DUP3 ADD AND DUP3 ADD DUP1 PUSH1 0x40 MSTORE POP DUP2 ADD SWAP1 PUSH2 0x245 SWAP2 SWAP1 PUSH2 0x56B JUMP JUMPDEST POP POP JUMP JUMPDEST PUSH8 0xDE0B6B3A7640000 DUP2 JUMP JUMPDEST PUSH0 DUP2 SUB PUSH2 0x299 JUMPI DUP1 PUSH1 0x40 MLOAD PUSH32 0x4852A7EB00000000000000000000000000000000000000000000000000000000 DUP2 MSTORE PUSH1 0x4 ADD PUSH2 0x290 SWAP2 SWAP1 PUSH2 0x4AF JUMP JUMPDEST PUSH1 0x40 MLOAD DUP1 SWAP2 SUB SWAP1 REVERT JUMPDEST POP JUMP JUMPDEST CALLVALUE PUSH8 0xDE0B6B3A7640000 DUP3 PUSH2 0x2B1 SWAP2 SWAP1 PUSH2 0x5C3 JUMP JUMPDEST GT ISZERO PUSH2 0x309 JUMPI PUSH8 0xDE0B6B3A7640000 DUP2 PUSH2 0x2CB SWAP2 SWAP1 PUSH2 0x5C3 JUMP JUMPDEST CALLVALUE PUSH1 0x40 MLOAD PUSH32 0x648D14F00000000000000000000000000000000000000000000000000000000 DUP2 MSTORE PUSH1 0x4 ADD PUSH2 0x300 SWAP3 SWAP2 SWAP1 PUSH2 0x4C8 JUMP JUMPDEST PUSH1 0x40 MLOAD DUP1 SWAP2 SUB SWAP1 REVERT JUMPDEST POP JUMP JUMPDEST PUSH0 PUSH1 0x1 PUSH0 SWAP1 SLOAD SWAP1 PUSH2 0x100 EXP SWAP1 DIV PUSH20 0xFFFFFFFFFFFFFFFFFFFFFFFFFFFFFFFFFFFFFFFF AND PUSH20 0xFFFFFFFFFFFFFFFFFFFFFFFFFFFFFFFFFFFFFFFF AND PUSH4 0x70A08231 ADDRESS PUSH1 0x40 MLOAD DUP3 PUSH4 0xFFFFFFFF AND PUSH1 0xE0 SHL DUP2 MSTORE PUSH1 0x4 ADD PUSH2 0x367 SWAP2 SWAP1 PUSH2 0x604 JUMP JUMPDEST PUSH1 0x20 PUSH1 0x40 MLOAD DUP1 DUP4 SUB DUP2 DUP7 GAS STATICCALL ISZERO DUP1 ISZERO PUSH2 0x382 JUMPI RETURNDATASIZE PUSH0 PUSH0 RETURNDATACOPY RETURNDATASIZE PUSH0 REVERT JUMPDEST POP POP POP POP PUSH1 0x40 MLOAD RETURNDATASIZE PUSH1 0x1F NOT PUSH1 0x1F DUP3 ADD AND DUP3 ADD DUP1 PUSH1 0x40 MSTORE POP DUP2 ADD SWAP1 PUSH2 0x3A6 SWAP2 SWAP1 PUSH2 0x631 JUMP JUMPDEST SWAP1 POP SWAP1 JUMP JUMPDEST PUSH0 PUSH0 REVERT JUMPDEST PUSH0 DUP2 SWAP1 POP SWAP2 SWAP1 POP JUMP JUMPDEST PUSH2 0x3C1 DUP2 PUSH2 0x3AF JUMP JUMPDEST DUP2 EQ PUSH2 0x3CB JUMPI PUSH0 PUSH0 REVERT JUMPDEST POP JUMP JUMPDEST PUSH0 DUP2 CALLDATALOAD SWAP1 POP PUSH2 0x3DC DUP2 PUSH2 0x3B8 JUMP JUMPDEST SWAP3 SWAP2 POP POP JUMP JUMPDEST PUSH0 PUSH1 0x20 DUP3 DUP5 SUB SLT ISZERO PUSH2 0x3F7 JUMPI PUSH2 0x3F6 PUSH2 0x3AB JUMP JUMPDEST JUMPDEST PUSH0 PUSH2 0x404 DUP5 DUP3 DUP6 ADD PUSH2 0x3CE JUMP JUMPDEST SWAP2 POP POP SWAP3 SWAP2 POP POP JUMP JUMPDEST PUSH0 PUSH20 0xFFFFFFFFFFFFFFFFFFFFFFFFFFFFFFFFFFFFFFFF DUP3 AND SWAP1 POP SWAP2 SWAP1 POP JUMP JUMPDEST PUSH0 DUP2 SWAP1 POP SWAP2 SWAP1 POP JUMP JUMPDEST PUSH0 PUSH2 0x44F PUSH2 0x44A PUSH2 0x445 DUP5 PUSH2 0x40D JUMP JUMPDEST PUSH2 0x42C JUMP JUMPDEST PUSH2 0x40D JUMP JUMPDEST SWAP1 POP SWAP2 SWAP1 POP JUMP JUMPDEST PUSH0 PUSH2 0x460 DUP3 PUSH2 0x435 JUMP JUMPDEST SWAP1 POP SWAP2 SWAP1 POP JUMP JUMPDEST PUSH0 PUSH2 0x471 DUP3 PUSH2 0x456 JUMP JUMPDEST SWAP1 POP SWAP2 SWAP1 POP JUMP JUMPDEST PUSH2 0x481 DUP2 PUSH2 0x467 JUMP JUMPDEST DUP3 MSTORE POP POP JUMP JUMPDEST PUSH0 PUSH1 0x20 DUP3 ADD SWAP1 POP PUSH2 0x49A PUSH0 DUP4 ADD DUP5 PUSH2 0x478 JUMP JUMPDEST SWAP3 SWAP2 POP POP JUMP JUMPDEST PUSH2 0x4A9 DUP2 PUSH2 0x3AF JUMP JUMPDEST DUP3 MSTORE POP POP JUMP JUMPDEST PUSH0 PUSH1 0x20 DUP3 ADD SWAP1 POP PUSH2 0x4C2 PUSH0 DUP4 ADD DUP5 PUSH2 0x4A0 JUMP JUMPDEST SWAP3 SWAP2 POP POP JUMP JUMPDEST PUSH0 PUSH1 0x40 DUP3 ADD SWAP1 POP PUSH2 0x4DB PUSH0 DUP4 ADD DUP6 PUSH2 0x4A0 JUMP JUMPDEST PUSH2 0x4E8 PUSH1 0x20 DUP4 ADD DUP5 PUSH2 0x4A0 JUMP JUMPDEST SWAP4 SWAP3 POP POP POP JUMP JUMPDEST PUSH0 PUSH2 0x4F9 DUP3 PUSH2 0x40D JUMP JUMPDEST SWAP1 POP SWAP2 SWAP1 POP JUMP JUMPDEST PUSH2 0x509 DUP2 PUSH2 0x4EF JUMP JUMPDEST DUP3 MSTORE POP POP JUMP JUMPDEST PUSH0 PUSH1 0x40 DUP3 ADD SWAP1 POP PUSH2 0x522 PUSH0 DUP4 ADD DUP6 PUSH2 0x500 JUMP JUMPDEST PUSH2 0x52F PUSH1 0x20 DUP4 ADD DUP5 PUSH2 0x4A0 JUMP JUMPDEST SWAP4 SWAP3 POP POP POP JUMP JUMPDEST PUSH0 DUP2 ISZERO ISZERO SWAP1 POP SWAP2 SWAP1 POP JUMP JUMPDEST PUSH2 0x54A DUP2 PUSH2 0x536 JUMP JUMPDEST DUP2 EQ PUSH2 0x554 JUMPI PUSH0 PUSH0 REVERT JUMPDEST POP JUMP JUMPDEST PUSH0 DUP2 MLOAD SWAP1 POP PUSH2 0x565 DUP2 PUSH2 0x541 JUMP JUMPDEST SWAP3 SWAP2 POP POP JUMP JUMPDEST PUSH0 PUSH1 0x20 DUP3 DUP5 SUB SLT ISZERO PUSH2 0x580 JUMPI PUSH2 0x57F PUSH2 0x3AB JUMP JUMPDEST JUMPDEST PUSH0 PUSH2 0x58D DUP5 DUP3 DUP6 ADD PUSH2 0x557 JUMP JUMPDEST SWAP2 POP POP SWAP3 SWAP2 POP POP JUMP JUMPDEST PUSH32 0x4E487B7100000000000000000000000000000000000000000000000000000000 PUSH0 MSTORE PUSH1 0x11 PUSH1 0x4 MSTORE PUSH1 0x24 PUSH0 REVERT JUMPDEST PUSH0 PUSH2 0x5CD DUP3 PUSH2 0x3AF JUMP JUMPDEST SWAP2 POP PUSH2 0x5D8 DUP4 PUSH2 0x3AF JUMP JUMPDEST SWAP3 POP DUP3 DUP3 MUL PUSH2 0x5E6 DUP2 PUSH2 0x3AF JUMP JUMPDEST SWAP2 POP DUP3 DUP3 DIV DUP5 EQ DUP4 ISZERO OR PUSH2 0x5FD JUMPI PUSH2 0x5FC PUSH2 0x596 JUMP JUMPDEST JUMPDEST POP SWAP3 SWAP2 POP POP JUMP JUMPDEST PUSH0 PUSH1 0x20 DUP3 ADD SWAP1 POP PUSH2 0x617 PUSH0 DUP4 ADD DUP5 PUSH2 0x500 JUMP JUMPDEST SWAP3 SWAP2 POP POP JUMP JUMPDEST PUSH0 DUP2 MLOAD SWAP1 POP PUSH2 0x62B DUP2 PUSH2 0x3B8 JUMP JUMPDEST SWAP3 SWAP2 POP POP JUMP JUMPDEST PUSH0 PUSH1 0x20 DUP3 DUP5 SUB SLT ISZERO PUSH2 0x646 JUMPI PUSH2 0x645 PUSH2 0x3AB JUMP JUMPDEST JUMPDEST PUSH0 PUSH2 0x653 DUP5 DUP3 DUP6 ADD PUSH2 0x61D JUMP JUMPDEST SWAP2 POP POP SWAP3 SWAP2 POP POP JUMP INVALID LOG2 PUSH5 0x6970667358 0x22 SLT KECCAK256 0xD2 SELFBALANCE 0xAC EXTCODESIZE PUSH32 0x9445F04AEE447743DD19ADB98E07499C18E470A58B3F871B672A6964736F6C63 NUMBER STOP ADDMOD 0x22 STOP CALLER "
				},
				"gasEstimates": {
					"creation": {
						"codeDepositCost": "336400",
						"executionCost": "infinite",
						"totalCost": "infinite"
					},
					"external": {
						"TOKEN_PRICE()": "369",
						"buyTokensFromMarketPlace(uint256)": "infinite",
						"createSellOrder(uint256)": "2594",
						"slvToken()": "infinite"
					},
					"internal": {
						"_CheckEthPayment(uint256)": "infinite",
						"_getSlvTokenBalanceMarketPlace()": "infinite",
						"_isZeroNumberOfToken(uint256)": "infinite"
					}
				},
				"methodIdentifiers": {
					"TOKEN_PRICE()": "d2d8cb67",
					"buyTokensFromMarketPlace(uint256)": "cb80e624",
					"createSellOrder(uint256)": "3c81c4b8",
					"slvToken()": "978ad233"
				}
			},
			"storageLayout": {
				"storage": [
					{
						"astId": 92,
						"contract": "contracts/TokenMarketplace.sol:TokenMarketPlace",
						"label": "reseverdOrderedTokens",
						"offset": 0,
						"slot": "0",
						"type": "t_uint256"
					},
					{
						"astId": 95,
						"contract": "contracts/TokenMarketplace.sol:TokenMarketPlace",
						"label": "slvToken",
						"offset": 0,
						"slot": "1",
						"type": "t_contract(IERC20)81"
					},
					{
						"astId": 100,
						"contract": "contracts/TokenMarketplace.sol:TokenMarketPlace",
						"label": "orders",
						"offset": 0,
						"slot": "2",
						"type": "t_mapping(t_uint256,t_struct(Order)244_storage)"
					},
					{
						"astId": 102,
						"contract": "contracts/TokenMarketplace.sol:TokenMarketPlace",
						"label": "nextOrderId",
						"offset": 0,
						"slot": "3",
						"type": "t_uint256"
					}
				],
				"types": {
					"t_address": {
						"encoding": "inplace",
						"label": "address",
						"numberOfBytes": "20"
					},
					"t_bool": {
						"encoding": "inplace",
						"label": "bool",
						"numberOfBytes": "1"
					},
					"t_contract(IERC20)81": {
						"encoding": "inplace",
						"label": "contract IERC20",
						"numberOfBytes": "20"
					},
					"t_mapping(t_uint256,t_struct(Order)244_storage)": {
						"encoding": "mapping",
						"key": "t_uint256",
						"label": "mapping(uint256 => struct Order)",
						"numberOfBytes": "32",
						"value": "t_struct(Order)244_storage"
					},
					"t_struct(Order)244_storage": {
						"encoding": "inplace",
						"label": "struct Order",
						"members": [
							{
								"astId": 237,
								"contract": "contracts/TokenMarketplace.sol:TokenMarketPlace",
								"label": "orderId",
								"offset": 0,
								"slot": "0",
								"type": "t_uint256"
							},
							{
								"astId": 239,
								"contract": "contracts/TokenMarketplace.sol:TokenMarketPlace",
								"label": "seller",
								"offset": 0,
								"slot": "1",
								"type": "t_address"
							},
							{
								"astId": 241,
								"contract": "contracts/TokenMarketplace.sol:TokenMarketPlace",
								"label": "numberOfTokensToSell",
								"offset": 0,
								"slot": "2",
								"type": "t_uint256"
							},
							{
								"astId": 243,
								"contract": "contracts/TokenMarketplace.sol:TokenMarketPlace",
								"label": "isActive",
								"offset": 0,
								"slot": "3",
								"type": "t_bool"
							}
						],
						"numberOfBytes": "128"
					},
					"t_uint256": {
						"encoding": "inplace",
						"label": "uint256",
						"numberOfBytes": "32"
					}
				}
			},
			"userdoc": {
				"kind": "user",
				"methods": {},
				"version": 1
			}
		}
	}
}