{
	"contracts/TokenMarketplace.sol": {
		"TokenMarketPlace": {
			"abi": [
				{
					"inputs": [
						{
							"internalType": "uint256",
							"name": "ExpectedPayment",
							"type": "uint256"
						},
						{
							"internalType": "uint256",
							"name": "ActualPayment",
							"type": "uint256"
						}
					],
					"name": "TokenMarketPlace_InsufficientEthPayment",
					"type": "error"
				},
				{
					"inputs": [
						{
							"internalType": "uint256",
							"name": "numberOfTokens",
							"type": "uint256"
						}
					],
					"name": "TokenMarketPlace_ZeroNumberOfTokens",
					"type": "error"
				},
				{
					"inputs": [],
					"name": "TOKEN_PRICE",
					"outputs": [
						{
							"internalType": "uint256",
							"name": "",
							"type": "uint256"
						}
					],
					"stateMutability": "view",
					"type": "function"
				},
				{
					"inputs": [
						{
							"internalType": "uint256",
							"name": "numberOfTokens",
							"type": "uint256"
						}
					],
					"name": "buyTokensFromMarketPlace",
					"outputs": [],
					"stateMutability": "payable",
					"type": "function"
				}
			],
			"devdoc": {
				"kind": "dev",
				"methods": {},
				"version": 1
			},
			"evm": {
				"assembly": "    /* \"contracts/TokenMarketplace.sol\":62:1032  contract TokenMarketPlace {... */\n  mstore(0x40, 0x80)\n  callvalue\n  dup1\n  iszero\n  tag_1\n  jumpi\n  revert(0x00, 0x00)\ntag_1:\n  pop\n  dataSize(sub_0)\n  dup1\n  dataOffset(sub_0)\n  0x00\n  codecopy\n  0x00\n  return\nstop\n\nsub_0: assembly {\n        /* \"contracts/TokenMarketplace.sol\":62:1032  contract TokenMarketPlace {... */\n      mstore(0x40, 0x80)\n      jumpi(tag_1, lt(calldatasize, 0x04))\n      shr(0xe0, calldataload(0x00))\n      dup1\n      0xcb80e624\n      eq\n      tag_2\n      jumpi\n      dup1\n      0xd2d8cb67\n      eq\n      tag_3\n      jumpi\n    tag_1:\n      revert(0x00, 0x00)\n        /* \"contracts/TokenMarketplace.sol\":837:1029  function buyTokensFromMarketPlace(uint256 numberOfTokens) external payable{... */\n    tag_2:\n      tag_4\n      0x04\n      dup1\n      calldatasize\n      sub\n      dup2\n      add\n      swap1\n      tag_5\n      swap2\n      swap1\n      tag_6\n      jump\t// in\n    tag_5:\n      tag_7\n      jump\t// in\n    tag_4:\n      stop\n        /* \"contracts/TokenMarketplace.sol\":95:140  uint256 public constant TOKEN_PRICE = 1 ether */\n    tag_3:\n      callvalue\n      dup1\n      iszero\n      tag_8\n      jumpi\n      revert(0x00, 0x00)\n    tag_8:\n      pop\n      tag_9\n      tag_10\n      jump\t// in\n    tag_9:\n      mload(0x40)\n      tag_11\n      swap2\n      swap1\n      tag_12\n      jump\t// in\n    tag_11:\n      mload(0x40)\n      dup1\n      swap2\n      sub\n      swap1\n      return\n        /* \"contracts/TokenMarketplace.sol\":837:1029  function buyTokensFromMarketPlace(uint256 numberOfTokens) external payable{... */\n    tag_7:\n        /* \"contracts/TokenMarketplace.sol\":930:966  _isZeroNumberOfToken(numberOfTokens) */\n      tag_14\n        /* \"contracts/TokenMarketplace.sol\":951:965  numberOfTokens */\n      dup2\n        /* \"contracts/TokenMarketplace.sol\":930:950  _isZeroNumberOfToken */\n      tag_15\n        /* \"contracts/TokenMarketplace.sol\":930:966  _isZeroNumberOfToken(numberOfTokens) */\n      jump\t// in\n    tag_14:\n        /* \"contracts/TokenMarketplace.sol\":985:1017  _CheckEthPayment(numberOfTokens) */\n      tag_16\n        /* \"contracts/TokenMarketplace.sol\":1002:1016  numberOfTokens */\n      dup2\n        /* \"contracts/TokenMarketplace.sol\":985:1001  _CheckEthPayment */\n      tag_17\n        /* \"contracts/TokenMarketplace.sol\":985:1017  _CheckEthPayment(numberOfTokens) */\n      jump\t// in\n    tag_16:\n        /* \"contracts/TokenMarketplace.sol\":837:1029  function buyTokensFromMarketPlace(uint256 numberOfTokens) external payable{... */\n      pop\n      jump\t// out\n        /* \"contracts/TokenMarketplace.sol\":95:140  uint256 public constant TOKEN_PRICE = 1 ether */\n    tag_10:\n        /* \"contracts/TokenMarketplace.sol\":133:140  1 ether */\n      0x0de0b6b3a7640000\n        /* \"contracts/TokenMarketplace.sol\":95:140  uint256 public constant TOKEN_PRICE = 1 ether */\n      dup2\n      jump\t// out\n        /* \"contracts/TokenMarketplace.sol\":370:571  function _isZeroNumberOfToken(uint256 numberOfTokens) internal pure{... */\n    tag_15:\n        /* \"contracts/TokenMarketplace.sol\":470:471  0 */\n      0x00\n        /* \"contracts/TokenMarketplace.sol\":454:468  numberOfTokens */\n      dup2\n        /* \"contracts/TokenMarketplace.sol\":454:471  numberOfTokens==0 */\n      sub\n        /* \"contracts/TokenMarketplace.sol\":451:560  if(numberOfTokens==0){... */\n      tag_19\n      jumpi\n        /* \"contracts/TokenMarketplace.sol\":530:544  numberOfTokens */\n      dup1\n        /* \"contracts/TokenMarketplace.sol\":494:545  TokenMarketPlace_ZeroNumberOfTokens(numberOfTokens) */\n      mload(0x40)\n      0x4852a7eb00000000000000000000000000000000000000000000000000000000\n      dup2\n      mstore\n      0x04\n      add\n      tag_20\n      swap2\n      swap1\n      tag_12\n      jump\t// in\n    tag_20:\n      mload(0x40)\n      dup1\n      swap2\n      sub\n      swap1\n      revert\n        /* \"contracts/TokenMarketplace.sol\":451:560  if(numberOfTokens==0){... */\n    tag_19:\n        /* \"contracts/TokenMarketplace.sol\":370:571  function _isZeroNumberOfToken(uint256 numberOfTokens) internal pure{... */\n      pop\n      jump\t// out\n        /* \"contracts/TokenMarketplace.sol\":581:828  function _CheckEthPayment(uint256 numberOfTokens) internal view {... */\n    tag_17:\n        /* \"contracts/TokenMarketplace.sol\":690:699  msg.value */\n      callvalue\n        /* \"contracts/TokenMarketplace.sol\":133:140  1 ether */\n      0x0de0b6b3a7640000\n        /* \"contracts/TokenMarketplace.sol\":663:677  numberOfTokens */\n      dup3\n        /* \"contracts/TokenMarketplace.sol\":663:689  numberOfTokens*TOKEN_PRICE */\n      tag_22\n      swap2\n      swap1\n      tag_23\n      jump\t// in\n    tag_22:\n        /* \"contracts/TokenMarketplace.sol\":663:699  numberOfTokens*TOKEN_PRICE>msg.value */\n      gt\n        /* \"contracts/TokenMarketplace.sol\":660:817  if(numberOfTokens*TOKEN_PRICE>msg.value) {... */\n      iszero\n      tag_24\n      jumpi\n        /* \"contracts/TokenMarketplace.sol\":133:140  1 ether */\n      0x0de0b6b3a7640000\n        /* \"contracts/TokenMarketplace.sol\":763:777  numberOfTokens */\n      dup2\n        /* \"contracts/TokenMarketplace.sol\":763:789  numberOfTokens*TOKEN_PRICE */\n      tag_25\n      swap2\n      swap1\n      tag_23\n      jump\t// in\n    tag_25:\n        /* \"contracts/TokenMarketplace.sol\":791:800  msg.value */\n      callvalue\n        /* \"contracts/TokenMarketplace.sol\":723:801  TokenMarketPlace_InsufficientEthPayment(numberOfTokens*TOKEN_PRICE, msg.value) */\n      mload(0x40)\n      0x0648d14f00000000000000000000000000000000000000000000000000000000\n      dup2\n      mstore\n      0x04\n      add\n      tag_26\n      swap3\n      swap2\n      swap1\n      tag_27\n      jump\t// in\n    tag_26:\n      mload(0x40)\n      dup1\n      swap2\n      sub\n      swap1\n      revert\n        /* \"contracts/TokenMarketplace.sol\":660:817  if(numberOfTokens*TOKEN_PRICE>msg.value) {... */\n    tag_24:\n        /* \"contracts/TokenMarketplace.sol\":581:828  function _CheckEthPayment(uint256 numberOfTokens) internal view {... */\n      pop\n      jump\t// out\n        /* \"#utility.yul\":88:205   */\n    tag_29:\n        /* \"#utility.yul\":197:198   */\n      0x00\n        /* \"#utility.yul\":194:195   */\n      0x00\n        /* \"#utility.yul\":187:199   */\n      revert\n        /* \"#utility.yul\":334:411   */\n    tag_31:\n        /* \"#utility.yul\":371:378   */\n      0x00\n        /* \"#utility.yul\":400:405   */\n      dup2\n        /* \"#utility.yul\":389:405   */\n      swap1\n      pop\n        /* \"#utility.yul\":334:411   */\n      swap2\n      swap1\n      pop\n      jump\t// out\n        /* \"#utility.yul\":417:539   */\n    tag_32:\n        /* \"#utility.yul\":490:514   */\n      tag_42\n        /* \"#utility.yul\":508:513   */\n      dup2\n        /* \"#utility.yul\":490:514   */\n      tag_31\n      jump\t// in\n    tag_42:\n        /* \"#utility.yul\":483:488   */\n      dup2\n        /* \"#utility.yul\":480:515   */\n      eq\n        /* \"#utility.yul\":470:533   */\n      tag_43\n      jumpi\n        /* \"#utility.yul\":529:530   */\n      0x00\n        /* \"#utility.yul\":526:527   */\n      0x00\n        /* \"#utility.yul\":519:531   */\n      revert\n        /* \"#utility.yul\":470:533   */\n    tag_43:\n        /* \"#utility.yul\":417:539   */\n      pop\n      jump\t// out\n        /* \"#utility.yul\":545:684   */\n    tag_33:\n        /* \"#utility.yul\":591:596   */\n      0x00\n        /* \"#utility.yul\":629:635   */\n      dup2\n        /* \"#utility.yul\":616:636   */\n      calldataload\n        /* \"#utility.yul\":607:636   */\n      swap1\n      pop\n        /* \"#utility.yul\":645:678   */\n      tag_45\n        /* \"#utility.yul\":672:677   */\n      dup2\n        /* \"#utility.yul\":645:678   */\n      tag_32\n      jump\t// in\n    tag_45:\n        /* \"#utility.yul\":545:684   */\n      swap3\n      swap2\n      pop\n      pop\n      jump\t// out\n        /* \"#utility.yul\":690:1019   */\n    tag_6:\n        /* \"#utility.yul\":749:755   */\n      0x00\n        /* \"#utility.yul\":798:800   */\n      0x20\n        /* \"#utility.yul\":786:795   */\n      dup3\n        /* \"#utility.yul\":777:784   */\n      dup5\n        /* \"#utility.yul\":773:796   */\n      sub\n        /* \"#utility.yul\":769:801   */\n      slt\n        /* \"#utility.yul\":766:885   */\n      iszero\n      tag_47\n      jumpi\n        /* \"#utility.yul\":804:883   */\n      tag_48\n      tag_29\n      jump\t// in\n    tag_48:\n        /* \"#utility.yul\":766:885   */\n    tag_47:\n        /* \"#utility.yul\":924:925   */\n      0x00\n        /* \"#utility.yul\":949:1002   */\n      tag_49\n        /* \"#utility.yul\":994:1001   */\n      dup5\n        /* \"#utility.yul\":985:991   */\n      dup3\n        /* \"#utility.yul\":974:983   */\n      dup6\n        /* \"#utility.yul\":970:992   */\n      add\n        /* \"#utility.yul\":949:1002   */\n      tag_33\n      jump\t// in\n    tag_49:\n        /* \"#utility.yul\":939:1002   */\n      swap2\n      pop\n        /* \"#utility.yul\":895:1012   */\n      pop\n        /* \"#utility.yul\":690:1019   */\n      swap3\n      swap2\n      pop\n      pop\n      jump\t// out\n        /* \"#utility.yul\":1025:1143   */\n    tag_34:\n        /* \"#utility.yul\":1112:1136   */\n      tag_51\n        /* \"#utility.yul\":1130:1135   */\n      dup2\n        /* \"#utility.yul\":1112:1136   */\n      tag_31\n      jump\t// in\n    tag_51:\n        /* \"#utility.yul\":1107:1110   */\n      dup3\n        /* \"#utility.yul\":1100:1137   */\n      mstore\n        /* \"#utility.yul\":1025:1143   */\n      pop\n      pop\n      jump\t// out\n        /* \"#utility.yul\":1149:1371   */\n    tag_12:\n        /* \"#utility.yul\":1242:1246   */\n      0x00\n        /* \"#utility.yul\":1280:1282   */\n      0x20\n        /* \"#utility.yul\":1269:1278   */\n      dup3\n        /* \"#utility.yul\":1265:1283   */\n      add\n        /* \"#utility.yul\":1257:1283   */\n      swap1\n      pop\n        /* \"#utility.yul\":1293:1364   */\n      tag_53\n        /* \"#utility.yul\":1361:1362   */\n      0x00\n        /* \"#utility.yul\":1350:1359   */\n      dup4\n        /* \"#utility.yul\":1346:1363   */\n      add\n        /* \"#utility.yul\":1337:1343   */\n      dup5\n        /* \"#utility.yul\":1293:1364   */\n      tag_34\n      jump\t// in\n    tag_53:\n        /* \"#utility.yul\":1149:1371   */\n      swap3\n      swap2\n      pop\n      pop\n      jump\t// out\n        /* \"#utility.yul\":1377:1557   */\n    tag_35:\n        /* \"#utility.yul\":1425:1502   */\n      0x4e487b7100000000000000000000000000000000000000000000000000000000\n        /* \"#utility.yul\":1422:1423   */\n      0x00\n        /* \"#utility.yul\":1415:1503   */\n      mstore\n        /* \"#utility.yul\":1522:1526   */\n      0x11\n        /* \"#utility.yul\":1519:1520   */\n      0x04\n        /* \"#utility.yul\":1512:1527   */\n      mstore\n        /* \"#utility.yul\":1546:1550   */\n      0x24\n        /* \"#utility.yul\":1543:1544   */\n      0x00\n        /* \"#utility.yul\":1536:1551   */\n      revert\n        /* \"#utility.yul\":1563:1973   */\n    tag_23:\n        /* \"#utility.yul\":1603:1610   */\n      0x00\n        /* \"#utility.yul\":1626:1646   */\n      tag_56\n        /* \"#utility.yul\":1644:1645   */\n      dup3\n        /* \"#utility.yul\":1626:1646   */\n      tag_31\n      jump\t// in\n    tag_56:\n        /* \"#utility.yul\":1621:1646   */\n      swap2\n      pop\n        /* \"#utility.yul\":1660:1680   */\n      tag_57\n        /* \"#utility.yul\":1678:1679   */\n      dup4\n        /* \"#utility.yul\":1660:1680   */\n      tag_31\n      jump\t// in\n    tag_57:\n        /* \"#utility.yul\":1655:1680   */\n      swap3\n      pop\n        /* \"#utility.yul\":1715:1716   */\n      dup3\n        /* \"#utility.yul\":1712:1713   */\n      dup3\n        /* \"#utility.yul\":1708:1717   */\n      mul\n        /* \"#utility.yul\":1737:1767   */\n      tag_58\n        /* \"#utility.yul\":1755:1766   */\n      dup2\n        /* \"#utility.yul\":1737:1767   */\n      tag_31\n      jump\t// in\n    tag_58:\n        /* \"#utility.yul\":1726:1767   */\n      swap2\n      pop\n        /* \"#utility.yul\":1916:1917   */\n      dup3\n        /* \"#utility.yul\":1907:1914   */\n      dup3\n        /* \"#utility.yul\":1903:1918   */\n      div\n        /* \"#utility.yul\":1900:1901   */\n      dup5\n        /* \"#utility.yul\":1897:1919   */\n      eq\n        /* \"#utility.yul\":1877:1878   */\n      dup4\n        /* \"#utility.yul\":1870:1879   */\n      iszero\n        /* \"#utility.yul\":1850:1933   */\n      or\n        /* \"#utility.yul\":1827:1966   */\n      tag_59\n      jumpi\n        /* \"#utility.yul\":1946:1964   */\n      tag_60\n      tag_35\n      jump\t// in\n    tag_60:\n        /* \"#utility.yul\":1827:1966   */\n    tag_59:\n        /* \"#utility.yul\":1611:1973   */\n      pop\n        /* \"#utility.yul\":1563:1973   */\n      swap3\n      swap2\n      pop\n      pop\n      jump\t// out\n        /* \"#utility.yul\":1979:2311   */\n    tag_27:\n        /* \"#utility.yul\":2100:2104   */\n      0x00\n        /* \"#utility.yul\":2138:2140   */\n      0x40\n        /* \"#utility.yul\":2127:2136   */\n      dup3\n        /* \"#utility.yul\":2123:2141   */\n      add\n        /* \"#utility.yul\":2115:2141   */\n      swap1\n      pop\n        /* \"#utility.yul\":2151:2222   */\n      tag_62\n        /* \"#utility.yul\":2219:2220   */\n      0x00\n        /* \"#utility.yul\":2208:2217   */\n      dup4\n        /* \"#utility.yul\":2204:2221   */\n      add\n        /* \"#utility.yul\":2195:2201   */\n      dup6\n        /* \"#utility.yul\":2151:2222   */\n      tag_34\n      jump\t// in\n    tag_62:\n        /* \"#utility.yul\":2232:2304   */\n      tag_63\n        /* \"#utility.yul\":2300:2302   */\n      0x20\n        /* \"#utility.yul\":2289:2298   */\n      dup4\n        /* \"#utility.yul\":2285:2303   */\n      add\n        /* \"#utility.yul\":2276:2282   */\n      dup5\n        /* \"#utility.yul\":2232:2304   */\n      tag_34\n      jump\t// in\n    tag_63:\n        /* \"#utility.yul\":1979:2311   */\n      swap4\n      swap3\n      pop\n      pop\n      pop\n      jump\t// out\n\n    auxdata: 0xa2646970667358221220598baf3dfc8dc7e5d61081438c64ffc9b129660a9832356f95523dca14fd5f7664736f6c63430008220033\n}\n",
				"bytecode": {
					"linkReferences": {},
					"object": "6080604052348015600e575f5ffd5b5061029f8061001c5f395ff3fe608060405260043610610028575f3560e01c8063cb80e6241461002c578063d2d8cb6714610048575b5f5ffd5b61004660048036038101906100419190610181565b610072565b005b348015610053575f5ffd5b5061005c610087565b60405161006991906101bb565b60405180910390f35b61007b81610093565b610084816100da565b50565b670de0b6b3a764000081565b5f81036100d757806040517f4852a7eb0000000000000000000000000000000000000000000000000000000081526004016100ce91906101bb565b60405180910390fd5b50565b34670de0b6b3a7640000826100ef9190610201565b111561014757670de0b6b3a7640000816101099190610201565b346040517f0648d14f00000000000000000000000000000000000000000000000000000000815260040161013e929190610242565b60405180910390fd5b50565b5f5ffd5b5f819050919050565b6101608161014e565b811461016a575f5ffd5b50565b5f8135905061017b81610157565b92915050565b5f602082840312156101965761019561014a565b5b5f6101a38482850161016d565b91505092915050565b6101b58161014e565b82525050565b5f6020820190506101ce5f8301846101ac565b92915050565b7f4e487b71000000000000000000000000000000000000000000000000000000005f52601160045260245ffd5b5f61020b8261014e565b91506102168361014e565b92508282026102248161014e565b9150828204841483151761023b5761023a6101d4565b5b5092915050565b5f6040820190506102555f8301856101ac565b61026260208301846101ac565b939250505056fea2646970667358221220598baf3dfc8dc7e5d61081438c64ffc9b129660a9832356f95523dca14fd5f7664736f6c63430008220033",
					"opcodes": "PUSH1 0x80 PUSH1 0x40 MSTORE CALLVALUE DUP1 ISZERO PUSH1 0xE JUMPI PUSH0 PUSH0 REVERT JUMPDEST POP PUSH2 0x29F DUP1 PUSH2 0x1C PUSH0 CODECOPY PUSH0 RETURN INVALID PUSH1 0x80 PUSH1 0x40 MSTORE PUSH1 0x4 CALLDATASIZE LT PUSH2 0x28 JUMPI PUSH0 CALLDATALOAD PUSH1 0xE0 SHR DUP1 PUSH4 0xCB80E624 EQ PUSH2 0x2C JUMPI DUP1 PUSH4 0xD2D8CB67 EQ PUSH2 0x48 JUMPI JUMPDEST PUSH0 PUSH0 REVERT JUMPDEST PUSH2 0x46 PUSH1 0x4 DUP1 CALLDATASIZE SUB DUP2 ADD SWAP1 PUSH2 0x41 SWAP2 SWAP1 PUSH2 0x181 JUMP JUMPDEST PUSH2 0x72 JUMP JUMPDEST STOP JUMPDEST CALLVALUE DUP1 ISZERO PUSH2 0x53 JUMPI PUSH0 PUSH0 REVERT JUMPDEST POP PUSH2 0x5C PUSH2 0x87 JUMP JUMPDEST PUSH1 0x40 MLOAD PUSH2 0x69 SWAP2 SWAP1 PUSH2 0x1BB JUMP JUMPDEST PUSH1 0x40 MLOAD DUP1 SWAP2 SUB SWAP1 RETURN JUMPDEST PUSH2 0x7B DUP2 PUSH2 0x93 JUMP JUMPDEST PUSH2 0x84 DUP2 PUSH2 0xDA JUMP JUMPDEST POP JUMP JUMPDEST PUSH8 0xDE0B6B3A7640000 DUP2 JUMP JUMPDEST PUSH0 DUP2 SUB PUSH2 0xD7 JUMPI DUP1 PUSH1 0x40 MLOAD PUSH32 0x4852A7EB00000000000000000000000000000000000000000000000000000000 DUP2 MSTORE PUSH1 0x4 ADD PUSH2 0xCE SWAP2 SWAP1 PUSH2 0x1BB JUMP JUMPDEST PUSH1 0x40 MLOAD DUP1 SWAP2 SUB SWAP1 REVERT JUMPDEST POP JUMP JUMPDEST CALLVALUE PUSH8 0xDE0B6B3A7640000 DUP3 PUSH2 0xEF SWAP2 SWAP1 PUSH2 0x201 JUMP JUMPDEST GT ISZERO PUSH2 0x147 JUMPI PUSH8 0xDE0B6B3A7640000 DUP2 PUSH2 0x109 SWAP2 SWAP1 PUSH2 0x201 JUMP JUMPDEST CALLVALUE PUSH1 0x40 MLOAD PUSH32 0x648D14F00000000000000000000000000000000000000000000000000000000 DUP2 MSTORE PUSH1 0x4 ADD PUSH2 0x13E SWAP3 SWAP2 SWAP1 PUSH2 0x242 JUMP JUMPDEST PUSH1 0x40 MLOAD DUP1 SWAP2 SUB SWAP1 REVERT JUMPDEST POP JUMP JUMPDEST PUSH0 PUSH0 REVERT JUMPDEST PUSH0 DUP2 SWAP1 POP SWAP2 SWAP1 POP JUMP JUMPDEST PUSH2 0x160 DUP2 PUSH2 0x14E JUMP JUMPDEST DUP2 EQ PUSH2 0x16A JUMPI PUSH0 PUSH0 REVERT JUMPDEST POP JUMP JUMPDEST PUSH0 DUP2 CALLDATALOAD SWAP1 POP PUSH2 0x17B DUP2 PUSH2 0x157 JUMP JUMPDEST SWAP3 SWAP2 POP POP JUMP JUMPDEST PUSH0 PUSH1 0x20 DUP3 DUP5 SUB SLT ISZERO PUSH2 0x196 JUMPI PUSH2 0x195 PUSH2 0x14A JUMP JUMPDEST JUMPDEST PUSH0 PUSH2 0x1A3 DUP5 DUP3 DUP6 ADD PUSH2 0x16D JUMP JUMPDEST SWAP2 POP POP SWAP3 SWAP2 POP POP JUMP JUMPDEST PUSH2 0x1B5 DUP2 PUSH2 0x14E JUMP JUMPDEST DUP3 MSTORE POP POP JUMP JUMPDEST PUSH0 PUSH1 0x20 DUP3 ADD SWAP1 POP PUSH2 0x1CE PUSH0 DUP4 ADD DUP5 PUSH2 0x1AC JUMP JUMPDEST SWAP3 SWAP2 POP POP JUMP JUMPDEST PUSH32 0x4E487B7100000000000000000000000000000000000000000000000000000000 PUSH0 MSTORE PUSH1 0x11 PUSH1 0x4 MSTORE PUSH1 0x24 PUSH0 REVERT JUMPDEST PUSH0 PUSH2 0x20B DUP3 PUSH2 0x14E JUMP JUMPDEST SWAP2 POP PUSH2 0x216 DUP4 PUSH2 0x14E JUMP JUMPDEST SWAP3 POP DUP3 DUP3 MUL PUSH2 0x224 DUP2 PUSH2 0x14E JUMP JUMPDEST SWAP2 POP DUP3 DUP3 DIV DUP5 EQ DUP4 ISZERO OR PUSH2 0x23B JUMPI PUSH2 0x23A PUSH2 0x1D4 JUMP JUMPDEST JUMPDEST POP SWAP3 SWAP2 POP POP JUMP JUMPDEST PUSH0 PUSH1 0x40 DUP3 ADD SWAP1 POP PUSH2 0x255 PUSH0 DUP4 ADD DUP6 PUSH2 0x1AC JUMP JUMPDEST PUSH2 0x262 PUSH1 0x20 DUP4 ADD DUP5 PUSH2 0x1AC JUMP JUMPDEST SWAP4 SWAP3 POP POP POP JUMP INVALID LOG2 PUSH5 0x6970667358 0x22 SLT KECCAK256 MSIZE DUP12 0xAF RETURNDATASIZE 0xFC DUP14 0xC7 JUMPF 0xD610 DUP2 NUMBER DUP13 PUSH5 0xFFC9B12966 EXP SWAP9 ORIGIN CALLDATALOAD PUSH16 0x95523DCA14FD5F7664736F6C63430008 0x22 STOP CALLER "
				},
				"gasEstimates": {
					"creation": {
						"codeDepositCost": "134200",
						"executionCost": "175",
						"totalCost": "134375"
					},
					"external": {
						"TOKEN_PRICE()": "325",
						"buyTokensFromMarketPlace(uint256)": "infinite"
					},
					"internal": {
						"_CheckEthPayment(uint256)": "infinite",
						"_isZeroNumberOfToken(uint256)": "infinite"
					}
				},
				"methodIdentifiers": {
					"TOKEN_PRICE()": "d2d8cb67",
					"buyTokensFromMarketPlace(uint256)": "cb80e624"
				}
			},
			"storageLayout": {
				"storage": [
					{
						"astId": 6,
						"contract": "contracts/TokenMarketplace.sol:TokenMarketPlace",
						"label": "reseverdOrderedTokens",
						"offset": 0,
						"slot": "0",
						"type": "t_uint256"
					}
				],
				"types": {
					"t_uint256": {
						"encoding": "inplace",
						"label": "uint256",
						"numberOfBytes": "32"
					}
				}
			},
			"userdoc": {
				"kind": "user",
				"methods": {},
				"version": 1
			}
		}
	}
}