{
	"data": {
		"bytecode": {
			"linkReferences": {},
			"object": "608060405234801561000f575f5ffd5b50604051610f48380380610f48833981810160405281019061003191906100d5565b8060015f6101000a81548173ffffffffffffffffffffffffffffffffffffffff021916908373ffffffffffffffffffffffffffffffffffffffff16021790555050610100565b5f5ffd5b5f73ffffffffffffffffffffffffffffffffffffffff82169050919050565b5f6100a48261007b565b9050919050565b6100b48161009a565b81146100be575f5ffd5b50565b5f815190506100cf816100ab565b92915050565b5f602082840312156100ea576100e9610077565b5b5f6100f7848285016100c1565b91505092915050565b610e3b8061010d5f395ff3fe608060405260043610610049575f3560e01c80630ec439501461004d5780633c81c4b814610069578063978ad23314610091578063cb80e624146100bb578063d2d8cb67146100d7575b5f5ffd5b61006760048036038101906100629190610a03565b610101565b005b348015610074575f5ffd5b5061008f600480360381019061008a9190610a41565b6103c1565b005b34801561009c575f5ffd5b506100a5610657565b6040516100b29190610ae6565b60405180910390f35b6100d560048036038101906100d09190610a41565b61067c565b005b3480156100e2575f5ffd5b506100eb610783565b6040516100f89190610b0e565b60405180910390f35b61010a8161078f565b5f60025f8481526020019081526020015f206040518060800160405290815f8201548152602001600182015f9054906101000a900473ffffffffffffffffffffffffffffffffffffffff1673ffffffffffffffffffffffffffffffffffffffff1673ffffffffffffffffffffffffffffffffffffffff16815260200160028201548152602001600382015f9054906101000a900460ff16151515158152505090505f151581606001511515036101f757826040517f2a9be98c0000000000000000000000000000000000000000000000000000000081526004016101ee9190610b0e565b60405180910390fd5b8181604001511015610246578060400151826040517ffd17a41900000000000000000000000000000000000000000000000000000000815260040161023d929190610b27565b60405180910390fd5b81816040018181516102589190610b7b565b915081815250505f81604001510361027b575f8160600190151590811515815250505b60015f9054906101000a900473ffffffffffffffffffffffffffffffffffffffff1673ffffffffffffffffffffffffffffffffffffffff1663a9059cbb33846040518363ffffffff1660e01b81526004016102d7929190610bce565b6020604051808303815f875af11580156102f3573d5f5f3e3d5ffd5b505050506040513d601f19601f820116820180604052508101906103179190610c2a565b505f816020015173ffffffffffffffffffffffffffffffffffffffff163460405161034190610c82565b5f6040518083038185875af1925050503d805f811461037b576040519150601f19603f3d011682016040523d82523d5f602084013e610380565b606091505b50509050806103bb576040517fdd84381600000000000000000000000000000000000000000000000000000000815260040160405180910390fd5b50505050565b6103ca8161078f565b6103d3816107d6565b5f60015f9054906101000a900473ffffffffffffffffffffffffffffffffffffffff1673ffffffffffffffffffffffffffffffffffffffff1663dd62ed3e33306040518363ffffffff1660e01b8152600401610430929190610c96565b602060405180830381865afa15801561044b573d5f5f3e3d5ffd5b505050506040513d601f19601f8201168201806040525081019061046f9190610cd1565b9050818110156104b85780826040517f2bd3c0500000000000000000000000000000000000000000000000000000000081526004016104af929190610b27565b60405180910390fd5b5f604051806080016040528060035481526020013373ffffffffffffffffffffffffffffffffffffffff1681526020018481526020016001151581525090508060025f60035481526020019081526020015f205f820151815f01556020820151816001015f6101000a81548173ffffffffffffffffffffffffffffffffffffffff021916908373ffffffffffffffffffffffffffffffffffffffff160217905550604082015181600201556060820151816003015f6101000a81548160ff02191690831515021790555090505060035f81548092919061059790610cfc565b919050555060015f9054906101000a900473ffffffffffffffffffffffffffffffffffffffff1673ffffffffffffffffffffffffffffffffffffffff166323b872dd3330866040518463ffffffff1660e01b81526004016105fa93929190610d43565b6020604051808303815f875af1158015610616573d5f5f3e3d5ffd5b505050506040513d601f19601f8201168201806040525081019061063a9190610c2a565b50825f5f82825461064b9190610d78565b92505081905550505050565b60015f9054906101000a900473ffffffffffffffffffffffffffffffffffffffff1681565b6106858161078f565b61068e816108bd565b8061069761092d565b11156106e357806106a661092d565b6040517f48be32140000000000000000000000000000000000000000000000000000000081526004016106da929190610b27565b60405180910390fd5b60015f9054906101000a900473ffffffffffffffffffffffffffffffffffffffff1673ffffffffffffffffffffffffffffffffffffffff1663a9059cbb33836040518363ffffffff1660e01b815260040161073f929190610bce565b6020604051808303815f875af115801561075b573d5f5f3e3d5ffd5b505050506040513d601f19601f8201168201806040525081019061077f9190610c2a565b5050565b670de0b6b3a764000081565b5f81036107d357806040517f4852a7eb0000000000000000000000000000000000000000000000000000000081526004016107ca9190610b0e565b60405180910390fd5b50565b5f60015f9054906101000a900473ffffffffffffffffffffffffffffffffffffffff1673ffffffffffffffffffffffffffffffffffffffff166370a08231336040518263ffffffff1660e01b81526004016108319190610dab565b602060405180830381865afa15801561084c573d5f5f3e3d5ffd5b505050506040513d601f19601f820116820180604052508101906108709190610cd1565b9050808211156108b95780826040517f07f075b00000000000000000000000000000000000000000000000000000000081526004016108b0929190610b27565b60405180910390fd5b5050565b34670de0b6b3a7640000826108d29190610dc4565b111561092a57670de0b6b3a7640000816108ec9190610dc4565b346040517f0648d14f000000000000000000000000000000000000000000000000000000008152600401610921929190610b27565b60405180910390fd5b50565b5f60015f9054906101000a900473ffffffffffffffffffffffffffffffffffffffff1673ffffffffffffffffffffffffffffffffffffffff166370a08231306040518263ffffffff1660e01b81526004016109889190610dab565b602060405180830381865afa1580156109a3573d5f5f3e3d5ffd5b505050506040513d601f19601f820116820180604052508101906109c79190610cd1565b905090565b5f5ffd5b5f819050919050565b6109e2816109d0565b81146109ec575f5ffd5b50565b5f813590506109fd816109d9565b92915050565b5f5f60408385031215610a1957610a186109cc565b5b5f610a26858286016109ef565b9250506020610a37858286016109ef565b9150509250929050565b5f60208284031215610a5657610a556109cc565b5b5f610a63848285016109ef565b91505092915050565b5f73ffffffffffffffffffffffffffffffffffffffff82169050919050565b5f819050919050565b5f610aae610aa9610aa484610a6c565b610a8b565b610a6c565b9050919050565b5f610abf82610a94565b9050919050565b5f610ad082610ab5565b9050919050565b610ae081610ac6565b82525050565b5f602082019050610af95f830184610ad7565b92915050565b610b08816109d0565b82525050565b5f602082019050610b215f830184610aff565b92915050565b5f604082019050610b3a5f830185610aff565b610b476020830184610aff565b9392505050565b7f4e487b71000000000000000000000000000000000000000000000000000000005f52601160045260245ffd5b5f610b85826109d0565b9150610b90836109d0565b9250828203905081811115610ba857610ba7610b4e565b5b92915050565b5f610bb882610a6c565b9050919050565b610bc881610bae565b82525050565b5f604082019050610be15f830185610bbf565b610bee6020830184610aff565b9392505050565b5f8115159050919050565b610c0981610bf5565b8114610c13575f5ffd5b50565b5f81519050610c2481610c00565b92915050565b5f60208284031215610c3f57610c3e6109cc565b5b5f610c4c84828501610c16565b91505092915050565b5f81905092915050565b50565b5f610c6d5f83610c55565b9150610c7882610c5f565b5f82019050919050565b5f610c8c82610c62565b9150819050919050565b5f604082019050610ca95f830185610bbf565b610cb66020830184610bbf565b9392505050565b5f81519050610ccb816109d9565b92915050565b5f60208284031215610ce657610ce56109cc565b5b5f610cf384828501610cbd565b91505092915050565b5f610d06826109d0565b91507fffffffffffffffffffffffffffffffffffffffffffffffffffffffffffffffff8203610d3857610d37610b4e565b5b600182019050919050565b5f606082019050610d565f830186610bbf565b610d636020830185610bbf565b610d706040830184610aff565b949350505050565b5f610d82826109d0565b9150610d8d836109d0565b9250828201905080821115610da557610da4610b4e565b5b92915050565b5f602082019050610dbe5f830184610bbf565b92915050565b5f610dce826109d0565b9150610dd9836109d0565b9250828202610de7816109d0565b91508282048414831517610dfe57610dfd610b4e565b5b509291505056fea2646970667358221220713676aaded6e783c7e7612d43b436a40d57e96cc3a1a6414caf10032a5215fe64736f6c63430008220033",
			"opcodes": "PUSH1 0x80 PUSH1 0x40 MSTORE CALLVALUE DUP1 ISZERO PUSH2 0xF JUMPI PUSH0 PUSH0 REVERT JUMPDEST POP PUSH1 0x40 MLOAD PUSH2 0xF48 CODESIZE SUB DUP1 PUSH2 0xF48 DUP4 CODECOPY DUP2 DUP2 ADD PUSH1 0x40 MSTORE DUP2 ADD SWAP1 PUSH2 0x31 SWAP2 SWAP1 PUSH2 0xD5 JUMP JUMPDEST DUP1 PUSH1 0x1 PUSH0 PUSH2 0x100 EXP DUP2 SLOAD DUP2 PUSH20 0xFFFFFFFFFFFFFFFFFFFFFFFFFFFFFFFFFFFFFFFF MUL NOT AND SWAP1 DUP4 PUSH20 0xFFFFFFFFFFFFFFFFFFFFFFFFFFFFFFFFFFFFFFFF AND MUL OR SWAP1 SSTORE POP POP PUSH2 0x100 JUMP JUMPDEST PUSH0 PUSH0 REVERT JUMPDEST PUSH0 PUSH20 0xFFFFFFFFFFFFFFFFFFFFFFFFFFFFFFFFFFFFFFFF DUP3 AND SWAP1 POP SWAP2 SWAP1 POP JUMP JUMPDEST PUSH0 PUSH2 0xA4 DUP3 PUSH2 0x7B JUMP JUMPDEST SWAP1 POP SWAP2 SWAP1 POP JUMP JUMPDEST PUSH2 0xB4 DUP2 PUSH2 0x9A JUMP JUMPDEST DUP2 EQ PUSH2 0xBE JUMPI PUSH0 PUSH0 REVERT JUMPDEST POP JUMP JUMPDEST PUSH0 DUP2 MLOAD SWAP1 POP PUSH2 0xCF DUP2 PUSH2 0xAB JUMP JUMPDEST SWAP3 SWAP2 POP POP JUMP JUMPDEST PUSH0 PUSH1 0x20 DUP3 DUP5 SUB SLT ISZERO PUSH2 0xEA JUMPI PUSH2 0xE9 PUSH2 0x77 JUMP JUMPDEST JUMPDEST PUSH0 PUSH2 0xF7 DUP5 DUP3 DUP6 ADD PUSH2 0xC1 JUMP JUMPDEST SWAP2 POP POP SWAP3 SWAP2 POP POP JUMP JUMPDEST PUSH2 0xE3B DUP1 PUSH2 0x10D PUSH0 CODECOPY PUSH0 RETURN INVALID PUSH1 0x80 PUSH1 0x40 MSTORE PUSH1 0x4 CALLDATASIZE LT PUSH2 0x49 JUMPI PUSH0 CALLDATALOAD PUSH1 0xE0 SHR DUP1 PUSH4 0xEC43950 EQ PUSH2 0x4D JUMPI DUP1 PUSH4 0x3C81C4B8 EQ PUSH2 0x69 JUMPI DUP1 PUSH4 0x978AD233 EQ PUSH2 0x91 JUMPI DUP1 PUSH4 0xCB80E624 EQ PUSH2 0xBB JUMPI DUP1 PUSH4 0xD2D8CB67 EQ PUSH2 0xD7 JUMPI JUMPDEST PUSH0 PUSH0 REVERT JUMPDEST PUSH2 0x67 PUSH1 0x4 DUP1 CALLDATASIZE SUB DUP2 ADD SWAP1 PUSH2 0x62 SWAP2 SWAP1 PUSH2 0xA03 JUMP JUMPDEST PUSH2 0x101 JUMP JUMPDEST STOP JUMPDEST CALLVALUE DUP1 ISZERO PUSH2 0x74 JUMPI PUSH0 PUSH0 REVERT JUMPDEST POP PUSH2 0x8F PUSH1 0x4 DUP1 CALLDATASIZE SUB DUP2 ADD SWAP1 PUSH2 0x8A SWAP2 SWAP1 PUSH2 0xA41 JUMP JUMPDEST PUSH2 0x3C1 JUMP JUMPDEST STOP JUMPDEST CALLVALUE DUP1 ISZERO PUSH2 0x9C JUMPI PUSH0 PUSH0 REVERT JUMPDEST POP PUSH2 0xA5 PUSH2 0x657 JUMP JUMPDEST PUSH1 0x40 MLOAD PUSH2 0xB2 SWAP2 SWAP1 PUSH2 0xAE6 JUMP JUMPDEST PUSH1 0x40 MLOAD DUP1 SWAP2 SUB SWAP1 RETURN JUMPDEST PUSH2 0xD5 PUSH1 0x4 DUP1 CALLDATASIZE SUB DUP2 ADD SWAP1 PUSH2 0xD0 SWAP2 SWAP1 PUSH2 0xA41 JUMP JUMPDEST PUSH2 0x67C JUMP JUMPDEST STOP JUMPDEST CALLVALUE DUP1 ISZERO PUSH2 0xE2 JUMPI PUSH0 PUSH0 REVERT JUMPDEST POP PUSH2 0xEB PUSH2 0x783 JUMP JUMPDEST PUSH1 0x40 MLOAD PUSH2 0xF8 SWAP2 SWAP1 PUSH2 0xB0E JUMP JUMPDEST PUSH1 0x40 MLOAD DUP1 SWAP2 SUB SWAP1 RETURN JUMPDEST PUSH2 0x10A DUP2 PUSH2 0x78F JUMP JUMPDEST PUSH0 PUSH1 0x2 PUSH0 DUP5 DUP2 MSTORE PUSH1 0x20 ADD SWAP1 DUP2 MSTORE PUSH1 0x20 ADD PUSH0 KECCAK256 PUSH1 0x40 MLOAD DUP1 PUSH1 0x80 ADD PUSH1 0x40 MSTORE SWAP1 DUP2 PUSH0 DUP3 ADD SLOAD DUP2 MSTORE PUSH1 0x20 ADD PUSH1 0x1 DUP3 ADD PUSH0 SWAP1 SLOAD SWAP1 PUSH2 0x100 EXP SWAP1 DIV PUSH20 0xFFFFFFFFFFFFFFFFFFFFFFFFFFFFFFFFFFFFFFFF AND PUSH20 0xFFFFFFFFFFFFFFFFFFFFFFFFFFFFFFFFFFFFFFFF AND PUSH20 0xFFFFFFFFFFFFFFFFFFFFFFFFFFFFFFFFFFFFFFFF AND DUP2 MSTORE PUSH1 0x20 ADD PUSH1 0x2 DUP3 ADD SLOAD DUP2 MSTORE PUSH1 0x20 ADD PUSH1 0x3 DUP3 ADD PUSH0 SWAP1 SLOAD SWAP1 PUSH2 0x100 EXP SWAP1 DIV PUSH1 0xFF AND ISZERO ISZERO ISZERO ISZERO DUP2 MSTORE POP POP SWAP1 POP PUSH0 ISZERO ISZERO DUP2 PUSH1 0x60 ADD MLOAD ISZERO ISZERO SUB PUSH2 0x1F7 JUMPI DUP3 PUSH1 0x40 MLOAD PUSH32 0x2A9BE98C00000000000000000000000000000000000000000000000000000000 DUP2 MSTORE PUSH1 0x4 ADD PUSH2 0x1EE SWAP2 SWAP1 PUSH2 0xB0E JUMP JUMPDEST PUSH1 0x40 MLOAD DUP1 SWAP2 SUB SWAP1 REVERT JUMPDEST DUP2 DUP2 PUSH1 0x40 ADD MLOAD LT ISZERO PUSH2 0x246 JUMPI DUP1 PUSH1 0x40 ADD MLOAD DUP3 PUSH1 0x40 MLOAD PUSH32 0xFD17A41900000000000000000000000000000000000000000000000000000000 DUP2 MSTORE PUSH1 0x4 ADD PUSH2 0x23D SWAP3 SWAP2 SWAP1 PUSH2 0xB27 JUMP JUMPDEST PUSH1 0x40 MLOAD DUP1 SWAP2 SUB SWAP1 REVERT JUMPDEST DUP2 DUP2 PUSH1 0x40 ADD DUP2 DUP2 MLOAD PUSH2 0x258 SWAP2 SWAP1 PUSH2 0xB7B JUMP JUMPDEST SWAP2 POP DUP2 DUP2 MSTORE POP POP PUSH0 DUP2 PUSH1 0x40 ADD MLOAD SUB PUSH2 0x27B JUMPI PUSH0 DUP2 PUSH1 0x60 ADD SWAP1 ISZERO ISZERO SWAP1 DUP2 ISZERO ISZERO DUP2 MSTORE POP POP JUMPDEST PUSH1 0x1 PUSH0 SWAP1 SLOAD SWAP1 PUSH2 0x100 EXP SWAP1 DIV PUSH20 0xFFFFFFFFFFFFFFFFFFFFFFFFFFFFFFFFFFFFFFFF AND PUSH20 0xFFFFFFFFFFFFFFFFFFFFFFFFFFFFFFFFFFFFFFFF AND PUSH4 0xA9059CBB CALLER DUP5 PUSH1 0x40 MLOAD DUP4 PUSH4 0xFFFFFFFF AND PUSH1 0xE0 SHL DUP2 MSTORE PUSH1 0x4 ADD PUSH2 0x2D7 SWAP3 SWAP2 SWAP1 PUSH2 0xBCE JUMP JUMPDEST PUSH1 0x20 PUSH1 0x40 MLOAD DUP1 DUP4 SUB DUP2 PUSH0 DUP8 GAS CALL ISZERO DUP1 ISZERO PUSH2 0x2F3 JUMPI RETURNDATASIZE PUSH0 PUSH0 RETURNDATACOPY RETURNDATASIZE PUSH0 REVERT JUMPDEST POP POP POP POP PUSH1 0x40 MLOAD RETURNDATASIZE PUSH1 0x1F NOT PUSH1 0x1F DUP3 ADD AND DUP3 ADD DUP1 PUSH1 0x40 MSTORE POP DUP2 ADD SWAP1 PUSH2 0x317 SWAP2 SWAP1 PUSH2 0xC2A JUMP JUMPDEST POP PUSH0 DUP2 PUSH1 0x20 ADD MLOAD PUSH20 0xFFFFFFFFFFFFFFFFFFFFFFFFFFFFFFFFFFFFFFFF AND CALLVALUE PUSH1 0x40 MLOAD PUSH2 0x341 SWAP1 PUSH2 0xC82 JUMP JUMPDEST PUSH0 PUSH1 0x40 MLOAD DUP1 DUP4 SUB DUP2 DUP6 DUP8 GAS CALL SWAP3 POP POP POP RETURNDATASIZE DUP1 PUSH0 DUP2 EQ PUSH2 0x37B JUMPI PUSH1 0x40 MLOAD SWAP2 POP PUSH1 0x1F NOT PUSH1 0x3F RETURNDATASIZE ADD AND DUP3 ADD PUSH1 0x40 MSTORE RETURNDATASIZE DUP3 MSTORE RETURNDATASIZE PUSH0 PUSH1 0x20 DUP5 ADD RETURNDATACOPY PUSH2 0x380 JUMP JUMPDEST PUSH1 0x60 SWAP2 POP JUMPDEST POP POP SWAP1 POP DUP1 PUSH2 0x3BB JUMPI PUSH1 0x40 MLOAD PUSH32 0xDD84381600000000000000000000000000000000000000000000000000000000 DUP2 MSTORE PUSH1 0x4 ADD PUSH1 0x40 MLOAD DUP1 SWAP2 SUB SWAP1 REVERT JUMPDEST POP POP POP POP JUMP JUMPDEST PUSH2 0x3CA DUP2 PUSH2 0x78F JUMP JUMPDEST PUSH2 0x3D3 DUP2 PUSH2 0x7D6 JUMP JUMPDEST PUSH0 PUSH1 0x1 PUSH0 SWAP1 SLOAD SWAP1 PUSH2 0x100 EXP SWAP1 DIV PUSH20 0xFFFFFFFFFFFFFFFFFFFFFFFFFFFFFFFFFFFFFFFF AND PUSH20 0xFFFFFFFFFFFFFFFFFFFFFFFFFFFFFFFFFFFFFFFF AND PUSH4 0xDD62ED3E CALLER ADDRESS PUSH1 0x40 MLOAD DUP4 PUSH4 0xFFFFFFFF AND PUSH1 0xE0 SHL DUP2 MSTORE PUSH1 0x4 ADD PUSH2 0x430 SWAP3 SWAP2 SWAP1 PUSH2 0xC96 JUMP JUMPDEST PUSH1 0x20 PUSH1 0x40 MLOAD DUP1 DUP4 SUB DUP2 DUP7 GAS STATICCALL ISZERO DUP1 ISZERO PUSH2 0x44B JUMPI RETURNDATASIZE PUSH0 PUSH0 RETURNDATACOPY RETURNDATASIZE PUSH0 REVERT JUMPDEST POP POP POP POP PUSH1 0x40 MLOAD RETURNDATASIZE PUSH1 0x1F NOT PUSH1 0x1F DUP3 ADD AND DUP3 ADD DUP1 PUSH1 0x40 MSTORE POP DUP2 ADD SWAP1 PUSH2 0x46F SWAP2 SWAP1 PUSH2 0xCD1 JUMP JUMPDEST SWAP1 POP DUP2 DUP2 LT ISZERO PUSH2 0x4B8 JUMPI DUP1 DUP3 PUSH1 0x40 MLOAD PUSH32 0x2BD3C05000000000000000000000000000000000000000000000000000000000 DUP2 MSTORE PUSH1 0x4 ADD PUSH2 0x4AF SWAP3 SWAP2 SWAP1 PUSH2 0xB27 JUMP JUMPDEST PUSH1 0x40 MLOAD DUP1 SWAP2 SUB SWAP1 REVERT JUMPDEST PUSH0 PUSH1 0x40 MLOAD DUP1 PUSH1 0x80 ADD PUSH1 0x40 MSTORE DUP1 PUSH1 0x3 SLOAD DUP2 MSTORE PUSH1 0x20 ADD CALLER PUSH20 0xFFFFFFFFFFFFFFFFFFFFFFFFFFFFFFFFFFFFFFFF AND DUP2 MSTORE PUSH1 0x20 ADD DUP5 DUP2 MSTORE PUSH1 0x20 ADD PUSH1 0x1 ISZERO ISZERO DUP2 MSTORE POP SWAP1 POP DUP1 PUSH1 0x2 PUSH0 PUSH1 0x3 SLOAD DUP2 MSTORE PUSH1 0x20 ADD SWAP1 DUP2 MSTORE PUSH1 0x20 ADD PUSH0 KECCAK256 PUSH0 DUP3 ADD MLOAD DUP2 PUSH0 ADD SSTORE PUSH1 0x20 DUP3 ADD MLOAD DUP2 PUSH1 0x1 ADD PUSH0 PUSH2 0x100 EXP DUP2 SLOAD DUP2 PUSH20 0xFFFFFFFFFFFFFFFFFFFFFFFFFFFFFFFFFFFFFFFF MUL NOT AND SWAP1 DUP4 PUSH20 0xFFFFFFFFFFFFFFFFFFFFFFFFFFFFFFFFFFFFFFFF AND MUL OR SWAP1 SSTORE POP PUSH1 0x40 DUP3 ADD MLOAD DUP2 PUSH1 0x2 ADD SSTORE PUSH1 0x60 DUP3 ADD MLOAD DUP2 PUSH1 0x3 ADD PUSH0 PUSH2 0x100 EXP DUP2 SLOAD DUP2 PUSH1 0xFF MUL NOT AND SWAP1 DUP4 ISZERO ISZERO MUL OR SWAP1 SSTORE POP SWAP1 POP POP PUSH1 0x3 PUSH0 DUP2 SLOAD DUP1 SWAP3 SWAP2 SWAP1 PUSH2 0x597 SWAP1 PUSH2 0xCFC JUMP JUMPDEST SWAP2 SWAP1 POP SSTORE POP PUSH1 0x1 PUSH0 SWAP1 SLOAD SWAP1 PUSH2 0x100 EXP SWAP1 DIV PUSH20 0xFFFFFFFFFFFFFFFFFFFFFFFFFFFFFFFFFFFFFFFF AND PUSH20 0xFFFFFFFFFFFFFFFFFFFFFFFFFFFFFFFFFFFFFFFF AND PUSH4 0x23B872DD CALLER ADDRESS DUP7 PUSH1 0x40 MLOAD DUP5 PUSH4 0xFFFFFFFF AND PUSH1 0xE0 SHL DUP2 MSTORE PUSH1 0x4 ADD PUSH2 0x5FA SWAP4 SWAP3 SWAP2 SWAP1 PUSH2 0xD43 JUMP JUMPDEST PUSH1 0x20 PUSH1 0x40 MLOAD DUP1 DUP4 SUB DUP2 PUSH0 DUP8 GAS CALL ISZERO DUP1 ISZERO PUSH2 0x616 JUMPI RETURNDATASIZE PUSH0 PUSH0 RETURNDATACOPY RETURNDATASIZE PUSH0 REVERT JUMPDEST POP POP POP POP PUSH1 0x40 MLOAD RETURNDATASIZE PUSH1 0x1F NOT PUSH1 0x1F DUP3 ADD AND DUP3 ADD DUP1 PUSH1 0x40 MSTORE POP DUP2 ADD SWAP1 PUSH2 0x63A SWAP2 SWAP1 PUSH2 0xC2A JUMP JUMPDEST POP DUP3 PUSH0 PUSH0 DUP3 DUP3 SLOAD PUSH2 0x64B SWAP2 SWAP1 PUSH2 0xD78 JUMP JUMPDEST SWAP3 POP POP DUP2 SWAP1 SSTORE POP POP POP POP JUMP JUMPDEST PUSH1 0x1 PUSH0 SWAP1 SLOAD SWAP1 PUSH2 0x100 EXP SWAP1 DIV PUSH20 0xFFFFFFFFFFFFFFFFFFFFFFFFFFFFFFFFFFFFFFFF AND DUP2 JUMP JUMPDEST PUSH2 0x685 DUP2 PUSH2 0x78F JUMP JUMPDEST PUSH2 0x68E DUP2 PUSH2 0x8BD JUMP JUMPDEST DUP1 PUSH2 0x697 PUSH2 0x92D JUMP JUMPDEST GT ISZERO PUSH2 0x6E3 JUMPI DUP1 PUSH2 0x6A6 PUSH2 0x92D JUMP JUMPDEST PUSH1 0x40 MLOAD PUSH32 0x48BE321400000000000000000000000000000000000000000000000000000000 DUP2 MSTORE PUSH1 0x4 ADD PUSH2 0x6DA SWAP3 SWAP2 SWAP1 PUSH2 0xB27 JUMP JUMPDEST PUSH1 0x40 MLOAD DUP1 SWAP2 SUB SWAP1 REVERT JUMPDEST PUSH1 0x1 PUSH0 SWAP1 SLOAD SWAP1 PUSH2 0x100 EXP SWAP1 DIV PUSH20 0xFFFFFFFFFFFFFFFFFFFFFFFFFFFFFFFFFFFFFFFF AND PUSH20 0xFFFFFFFFFFFFFFFFFFFFFFFFFFFFFFFFFFFFFFFF AND PUSH4 0xA9059CBB CALLER DUP4 PUSH1 0x40 MLOAD DUP4 PUSH4 0xFFFFFFFF AND PUSH1 0xE0 SHL DUP2 MSTORE PUSH1 0x4 ADD PUSH2 0x73F SWAP3 SWAP2 SWAP1 PUSH2 0xBCE JUMP JUMPDEST PUSH1 0x20 PUSH1 0x40 MLOAD DUP1 DUP4 SUB DUP2 PUSH0 DUP8 GAS CALL ISZERO DUP1 ISZERO PUSH2 0x75B JUMPI RETURNDATASIZE PUSH0 PUSH0 RETURNDATACOPY RETURNDATASIZE PUSH0 REVERT JUMPDEST POP POP POP POP PUSH1 0x40 MLOAD RETURNDATASIZE PUSH1 0x1F NOT PUSH1 0x1F DUP3 ADD AND DUP3 ADD DUP1 PUSH1 0x40 MSTORE POP DUP2 ADD SWAP1 PUSH2 0x77F SWAP2 SWAP1 PUSH2 0xC2A JUMP JUMPDEST POP POP JUMP JUMPDEST PUSH8 0xDE0B6B3A7640000 DUP2 JUMP JUMPDEST PUSH0 DUP2 SUB PUSH2 0x7D3 JUMPI DUP1 PUSH1 0x40 MLOAD PUSH32 0x4852A7EB00000000000000000000000000000000000000000000000000000000 DUP2 MSTORE PUSH1 0x4 ADD PUSH2 0x7CA SWAP2 SWAP1 PUSH2 0xB0E JUMP JUMPDEST PUSH1 0x40 MLOAD DUP1 SWAP2 SUB SWAP1 REVERT JUMPDEST POP JUMP JUMPDEST PUSH0 PUSH1 0x1 PUSH0 SWAP1 SLOAD SWAP1 PUSH2 0x100 EXP SWAP1 DIV PUSH20 0xFFFFFFFFFFFFFFFFFFFFFFFFFFFFFFFFFFFFFFFF AND PUSH20 0xFFFFFFFFFFFFFFFFFFFFFFFFFFFFFFFFFFFFFFFF AND PUSH4 0x70A08231 CALLER PUSH1 0x40 MLOAD DUP3 PUSH4 0xFFFFFFFF AND PUSH1 0xE0 SHL DUP2 MSTORE PUSH1 0x4 ADD PUSH2 0x831 SWAP2 SWAP1 PUSH2 0xDAB JUMP JUMPDEST PUSH1 0x20 PUSH1 0x40 MLOAD DUP1 DUP4 SUB DUP2 DUP7 GAS STATICCALL ISZERO DUP1 ISZERO PUSH2 0x84C JUMPI RETURNDATASIZE PUSH0 PUSH0 RETURNDATACOPY RETURNDATASIZE PUSH0 REVERT JUMPDEST POP POP POP POP PUSH1 0x40 MLOAD RETURNDATASIZE PUSH1 0x1F NOT PUSH1 0x1F DUP3 ADD AND DUP3 ADD DUP1 PUSH1 0x40 MSTORE POP DUP2 ADD SWAP1 PUSH2 0x870 SWAP2 SWAP1 PUSH2 0xCD1 JUMP JUMPDEST SWAP1 POP DUP1 DUP3 GT ISZERO PUSH2 0x8B9 JUMPI DUP1 DUP3 PUSH1 0x40 MLOAD PUSH32 0x7F075B000000000000000000000000000000000000000000000000000000000 DUP2 MSTORE PUSH1 0x4 ADD PUSH2 0x8B0 SWAP3 SWAP2 SWAP1 PUSH2 0xB27 JUMP JUMPDEST PUSH1 0x40 MLOAD DUP1 SWAP2 SUB SWAP1 REVERT JUMPDEST POP POP JUMP JUMPDEST CALLVALUE PUSH8 0xDE0B6B3A7640000 DUP3 PUSH2 0x8D2 SWAP2 SWAP1 PUSH2 0xDC4 JUMP JUMPDEST GT ISZERO PUSH2 0x92A JUMPI PUSH8 0xDE0B6B3A7640000 DUP2 PUSH2 0x8EC SWAP2 SWAP1 PUSH2 0xDC4 JUMP JUMPDEST CALLVALUE PUSH1 0x40 MLOAD PUSH32 0x648D14F00000000000000000000000000000000000000000000000000000000 DUP2 MSTORE PUSH1 0x4 ADD PUSH2 0x921 SWAP3 SWAP2 SWAP1 PUSH2 0xB27 JUMP JUMPDEST PUSH1 0x40 MLOAD DUP1 SWAP2 SUB SWAP1 REVERT JUMPDEST POP JUMP JUMPDEST PUSH0 PUSH1 0x1 PUSH0 SWAP1 SLOAD SWAP1 PUSH2 0x100 EXP SWAP1 DIV PUSH20 0xFFFFFFFFFFFFFFFFFFFFFFFFFFFFFFFFFFFFFFFF AND PUSH20 0xFFFFFFFFFFFFFFFFFFFFFFFFFFFFFFFFFFFFFFFF AND PUSH4 0x70A08231 ADDRESS PUSH1 0x40 MLOAD DUP3 PUSH4 0xFFFFFFFF AND PUSH1 0xE0 SHL DUP2 MSTORE PUSH1 0x4 ADD PUSH2 0x988 SWAP2 SWAP1 PUSH2 0xDAB JUMP JUMPDEST PUSH1 0x20 PUSH1 0x40 MLOAD DUP1 DUP4 SUB DUP2 DUP7 GAS STATICCALL ISZERO DUP1 ISZERO PUSH2 0x9A3 JUMPI RETURNDATASIZE PUSH0 PUSH0 RETURNDATACOPY RETURNDATASIZE PUSH0 REVERT JUMPDEST POP POP POP POP PUSH1 0x40 MLOAD RETURNDATASIZE PUSH1 0x1F NOT PUSH1 0x1F DUP3 ADD AND DUP3 ADD DUP1 PUSH1 0x40 MSTORE POP DUP2 ADD SWAP1 PUSH2 0x9C7 SWAP2 SWAP1 PUSH2 0xCD1 JUMP JUMPDEST SWAP1 POP SWAP1 JUMP JUMPDEST PUSH0 PUSH0 REVERT JUMPDEST PUSH0 DUP2 SWAP1 POP SWAP2 SWAP1 POP JUMP JUMPDEST PUSH2 0x9E2 DUP2 PUSH2 0x9D0 JUMP JUMPDEST DUP2 EQ PUSH2 0x9EC JUMPI PUSH0 PUSH0 REVERT JUMPDEST POP JUMP JUMPDEST PUSH0 DUP2 CALLDATALOAD SWAP1 POP PUSH2 0x9FD DUP2 PUSH2 0x9D9 JUMP JUMPDEST SWAP3 SWAP2 POP POP JUMP JUMPDEST PUSH0 PUSH0 PUSH1 0x40 DUP4 DUP6 SUB SLT ISZERO PUSH2 0xA19 JUMPI PUSH2 0xA18 PUSH2 0x9CC JUMP JUMPDEST JUMPDEST PUSH0 PUSH2 0xA26 DUP6 DUP3 DUP7 ADD PUSH2 0x9EF JUMP JUMPDEST SWAP3 POP POP PUSH1 0x20 PUSH2 0xA37 DUP6 DUP3 DUP7 ADD PUSH2 0x9EF JUMP JUMPDEST SWAP2 POP POP SWAP3 POP SWAP3 SWAP1 POP JUMP JUMPDEST PUSH0 PUSH1 0x20 DUP3 DUP5 SUB SLT ISZERO PUSH2 0xA56 JUMPI PUSH2 0xA55 PUSH2 0x9CC JUMP JUMPDEST JUMPDEST PUSH0 PUSH2 0xA63 DUP5 DUP3 DUP6 ADD PUSH2 0x9EF JUMP JUMPDEST SWAP2 POP POP SWAP3 SWAP2 POP POP JUMP JUMPDEST PUSH0 PUSH20 0xFFFFFFFFFFFFFFFFFFFFFFFFFFFFFFFFFFFFFFFF DUP3 AND SWAP1 POP SWAP2 SWAP1 POP JUMP JUMPDEST PUSH0 DUP2 SWAP1 POP SWAP2 SWAP1 POP JUMP JUMPDEST PUSH0 PUSH2 0xAAE PUSH2 0xAA9 PUSH2 0xAA4 DUP5 PUSH2 0xA6C JUMP JUMPDEST PUSH2 0xA8B JUMP JUMPDEST PUSH2 0xA6C JUMP JUMPDEST SWAP1 POP SWAP2 SWAP1 POP JUMP JUMPDEST PUSH0 PUSH2 0xABF DUP3 PUSH2 0xA94 JUMP JUMPDEST SWAP1 POP SWAP2 SWAP1 POP JUMP JUMPDEST PUSH0 PUSH2 0xAD0 DUP3 PUSH2 0xAB5 JUMP JUMPDEST SWAP1 POP SWAP2 SWAP1 POP JUMP JUMPDEST PUSH2 0xAE0 DUP2 PUSH2 0xAC6 JUMP JUMPDEST DUP3 MSTORE POP POP JUMP JUMPDEST PUSH0 PUSH1 0x20 DUP3 ADD SWAP1 POP PUSH2 0xAF9 PUSH0 DUP4 ADD DUP5 PUSH2 0xAD7 JUMP JUMPDEST SWAP3 SWAP2 POP POP JUMP JUMPDEST PUSH2 0xB08 DUP2 PUSH2 0x9D0 JUMP JUMPDEST DUP3 MSTORE POP POP JUMP JUMPDEST PUSH0 PUSH1 0x20 DUP3 ADD SWAP1 POP PUSH2 0xB21 PUSH0 DUP4 ADD DUP5 PUSH2 0xAFF JUMP JUMPDEST SWAP3 SWAP2 POP POP JUMP JUMPDEST PUSH0 PUSH1 0x40 DUP3 ADD SWAP1 POP PUSH2 0xB3A PUSH0 DUP4 ADD DUP6 PUSH2 0xAFF JUMP JUMPDEST PUSH2 0xB47 PUSH1 0x20 DUP4 ADD DUP5 PUSH2 0xAFF JUMP JUMPDEST SWAP4 SWAP3 POP POP POP JUMP JUMPDEST PUSH32 0x4E487B7100000000000000000000000000000000000000000000000000000000 PUSH0 MSTORE PUSH1 0x11 PUSH1 0x4 MSTORE PUSH1 0x24 PUSH0 REVERT JUMPDEST PUSH0 PUSH2 0xB85 DUP3 PUSH2 0x9D0 JUMP JUMPDEST SWAP2 POP PUSH2 0xB90 DUP4 PUSH2 0x9D0 JUMP JUMPDEST SWAP3 POP DUP3 DUP3 SUB SWAP1 POP DUP2 DUP2 GT ISZERO PUSH2 0xBA8 JUMPI PUSH2 0xBA7 PUSH2 0xB4E JUMP JUMPDEST JUMPDEST SWAP3 SWAP2 POP POP JUMP JUMPDEST PUSH0 PUSH2 0xBB8 DUP3 PUSH2 0xA6C JUMP JUMPDEST SWAP1 POP SWAP2 SWAP1 POP JUMP JUMPDEST PUSH2 0xBC8 DUP2 PUSH2 0xBAE JUMP JUMPDEST DUP3 MSTORE POP POP JUMP JUMPDEST PUSH0 PUSH1 0x40 DUP3 ADD SWAP1 POP PUSH2 0xBE1 PUSH0 DUP4 ADD DUP6 PUSH2 0xBBF JUMP JUMPDEST PUSH2 0xBEE PUSH1 0x20 DUP4 ADD DUP5 PUSH2 0xAFF JUMP JUMPDEST SWAP4 SWAP3 POP POP POP JUMP JUMPDEST PUSH0 DUP2 ISZERO ISZERO SWAP1 POP SWAP2 SWAP1 POP JUMP JUMPDEST PUSH2 0xC09 DUP2 PUSH2 0xBF5 JUMP JUMPDEST DUP2 EQ PUSH2 0xC13 JUMPI PUSH0 PUSH0 REVERT JUMPDEST POP JUMP JUMPDEST PUSH0 DUP2 MLOAD SWAP1 POP PUSH2 0xC24 DUP2 PUSH2 0xC00 JUMP JUMPDEST SWAP3 SWAP2 POP POP JUMP JUMPDEST PUSH0 PUSH1 0x20 DUP3 DUP5 SUB SLT ISZERO PUSH2 0xC3F JUMPI PUSH2 0xC3E PUSH2 0x9CC JUMP JUMPDEST JUMPDEST PUSH0 PUSH2 0xC4C DUP5 DUP3 DUP6 ADD PUSH2 0xC16 JUMP JUMPDEST SWAP2 POP POP SWAP3 SWAP2 POP POP JUMP JUMPDEST PUSH0 DUP2 SWAP1 POP SWAP3 SWAP2 POP POP JUMP JUMPDEST POP JUMP JUMPDEST PUSH0 PUSH2 0xC6D PUSH0 DUP4 PUSH2 0xC55 JUMP JUMPDEST SWAP2 POP PUSH2 0xC78 DUP3 PUSH2 0xC5F JUMP JUMPDEST PUSH0 DUP3 ADD SWAP1 POP SWAP2 SWAP1 POP JUMP JUMPDEST PUSH0 PUSH2 0xC8C DUP3 PUSH2 0xC62 JUMP JUMPDEST SWAP2 POP DUP2 SWAP1 POP SWAP2 SWAP1 POP JUMP JUMPDEST PUSH0 PUSH1 0x40 DUP3 ADD SWAP1 POP PUSH2 0xCA9 PUSH0 DUP4 ADD DUP6 PUSH2 0xBBF JUMP JUMPDEST PUSH2 0xCB6 PUSH1 0x20 DUP4 ADD DUP5 PUSH2 0xBBF JUMP JUMPDEST SWAP4 SWAP3 POP POP POP JUMP JUMPDEST PUSH0 DUP2 MLOAD SWAP1 POP PUSH2 0xCCB DUP2 PUSH2 0x9D9 JUMP JUMPDEST SWAP3 SWAP2 POP POP JUMP JUMPDEST PUSH0 PUSH1 0x20 DUP3 DUP5 SUB SLT ISZERO PUSH2 0xCE6 JUMPI PUSH2 0xCE5 PUSH2 0x9CC JUMP JUMPDEST JUMPDEST PUSH0 PUSH2 0xCF3 DUP5 DUP3 DUP6 ADD PUSH2 0xCBD JUMP JUMPDEST SWAP2 POP POP SWAP3 SWAP2 POP POP JUMP JUMPDEST PUSH0 PUSH2 0xD06 DUP3 PUSH2 0x9D0 JUMP JUMPDEST SWAP2 POP PUSH32 0xFFFFFFFFFFFFFFFFFFFFFFFFFFFFFFFFFFFFFFFFFFFFFFFFFFFFFFFFFFFFFFFF DUP3 SUB PUSH2 0xD38 JUMPI PUSH2 0xD37 PUSH2 0xB4E JUMP JUMPDEST JUMPDEST PUSH1 0x1 DUP3 ADD SWAP1 POP SWAP2 SWAP1 POP JUMP JUMPDEST PUSH0 PUSH1 0x60 DUP3 ADD SWAP1 POP PUSH2 0xD56 PUSH0 DUP4 ADD DUP7 PUSH2 0xBBF JUMP JUMPDEST PUSH2 0xD63 PUSH1 0x20 DUP4 ADD DUP6 PUSH2 0xBBF JUMP JUMPDEST PUSH2 0xD70 PUSH1 0x40 DUP4 ADD DUP5 PUSH2 0xAFF JUMP JUMPDEST SWAP5 SWAP4 POP POP POP POP JUMP JUMPDEST PUSH0 PUSH2 0xD82 DUP3 PUSH2 0x9D0 JUMP JUMPDEST SWAP2 POP PUSH2 0xD8D DUP4 PUSH2 0x9D0 JUMP JUMPDEST SWAP3 POP DUP3 DUP3 ADD SWAP1 POP DUP1 DUP3 GT ISZERO PUSH2 0xDA5 JUMPI PUSH2 0xDA4 PUSH2 0xB4E JUMP JUMPDEST JUMPDEST SWAP3 SWAP2 POP POP JUMP JUMPDEST PUSH0 PUSH1 0x20 DUP3 ADD SWAP1 POP PUSH2 0xDBE PUSH0 DUP4 ADD DUP5 PUSH2 0xBBF JUMP JUMPDEST SWAP3 SWAP2 POP POP JUMP JUMPDEST PUSH0 PUSH2 0xDCE DUP3 PUSH2 0x9D0 JUMP JUMPDEST SWAP2 POP PUSH2 0xDD9 DUP4 PUSH2 0x9D0 JUMP JUMPDEST SWAP3 POP DUP3 DUP3 MUL PUSH2 0xDE7 DUP2 PUSH2 0x9D0 JUMP JUMPDEST SWAP2 POP DUP3 DUP3 DIV DUP5 EQ DUP4 ISZERO OR PUSH2 0xDFE JUMPI PUSH2 0xDFD PUSH2 0xB4E JUMP JUMPDEST JUMPDEST POP SWAP3 SWAP2 POP POP JUMP INVALID LOG2 PUSH5 0x6970667358 0x22 SLT KECCAK256 PUSH18 0x3676AADED6E783C7E7612D43B436A40D57E9 PUSH13 0xC3A1A6414CAF10032A5215FE64 PUSH20 0x6F6C634300082200330000000000000000000000 "
		},
		"gasEstimates": {
			"creation": {
				"codeDepositCost": "728600",
				"executionCost": "infinite",
				"totalCost": "infinite"
			},
			"external": {
				"TOKEN_PRICE()": "391",
				"buyTokensFromMarketPlace(uint256)": "infinite",
				"buyTokensFromSellOrderCreated(uint256,uint256)": "infinite",
				"createSellOrder(uint256)": "infinite",
				"slvToken()": "infinite"
			},
			"internal": {
				"_CheckEthPayment(uint256)": "infinite",
				"_checkSellerSlvTokenBalance(uint256)": "infinite",
				"_getSlvTokenBalanceMarketPlace()": "infinite",
				"_isZeroNumberOfToken(uint256)": "infinite"
			}
		},
		"methodIdentifiers": {
			"TOKEN_PRICE()": "d2d8cb67",
			"buyTokensFromMarketPlace(uint256)": "cb80e624",
			"buyTokensFromSellOrderCreated(uint256,uint256)": "0ec43950",
			"createSellOrder(uint256)": "3c81c4b8",
			"slvToken()": "978ad233"
		}
	},
	"abi": [
		{
			"inputs": [
				{
					"internalType": "address",
					"name": "_slvToken",
					"type": "address"
				}
			],
			"stateMutability": "nonpayable",
			"type": "constructor"
		},
		{
			"inputs": [],
			"name": "TokenMarketPlace_EthTransferfailed",
			"type": "error"
		},
		{
			"inputs": [
				{
					"internalType": "uint256",
					"name": "allowedTokens",
					"type": "uint256"
				},
				{
					"internalType": "uint256",
					"name": "tokenToTransfer",
					"type": "uint256"
				}
			],
			"name": "TokenMarketPlace_InsufficientAllowance",
			"type": "error"
		},
		{
			"inputs": [
				{
					"internalType": "uint256",
					"name": "actualTokens",
					"type": "uint256"
				},
				{
					"internalType": "uint256",
					"name": "expectedTokens",
					"type": "uint256"
				}
			],
			"name": "TokenMarketPlace_InsufficientBalance",
			"type": "error"
		},
		{
			"inputs": [
				{
					"internalType": "uint256",
					"name": "expectedPayment",
					"type": "uint256"
				},
				{
					"internalType": "uint256",
					"name": "actualPayment",
					"type": "uint256"
				}
			],
			"name": "TokenMarketPlace_InsufficientEthPayment",
			"type": "error"
		},
		{
			"inputs": [
				{
					"internalType": "uint256",
					"name": "expectedToken",
					"type": "uint256"
				},
				{
					"internalType": "uint256",
					"name": "actualToken",
					"type": "uint256"
				}
			],
			"name": "TokenMarketPlace_InsufficientTokenBalance",
			"type": "error"
		},
		{
			"inputs": [
				{
					"internalType": "uint256",
					"name": "expectedTokens",
					"type": "uint256"
				},
				{
					"internalType": "uint256",
					"name": "actualTokens",
					"type": "uint256"
				}
			],
			"name": "TokenMarketPlace_NotEnoughTokensInOrder",
			"type": "error"
		},
		{
			"inputs": [
				{
					"internalType": "uint256",
					"name": "OrderId",
					"type": "uint256"
				}
			],
			"name": "TokenMarketPlace_OrderIsNotActive",
			"type": "error"
		},
		{
			"inputs": [
				{
					"internalType": "uint256",
					"name": "numberOfTokens",
					"type": "uint256"
				}
			],
			"name": "TokenMarketPlace_ZeroNumberOfTokens",
			"type": "error"
		},
		{
			"inputs": [],
			"name": "TOKEN_PRICE",
			"outputs": [
				{
					"internalType": "uint256",
					"name": "",
					"type": "uint256"
				}
			],
			"stateMutability": "view",
			"type": "function"
		},
		{
			"inputs": [
				{
					"internalType": "uint256",
					"name": "numberOfTokens",
					"type": "uint256"
				}
			],
			"name": "buyTokensFromMarketPlace",
			"outputs": [],
			"stateMutability": "payable",
			"type": "function"
		},
		{
			"inputs": [
				{
					"internalType": "uint256",
					"name": "orderId",
					"type": "uint256"
				},
				{
					"internalType": "uint256",
					"name": "numberOfTokensToBuy",
					"type": "uint256"
				}
			],
			"name": "buyTokensFromSellOrderCreated",
			"outputs": [],
			"stateMutability": "payable",
			"type": "function"
		},
		{
			"inputs": [
				{
					"internalType": "uint256",
					"name": "numberOfTokenToSell",
					"type": "uint256"
				}
			],
			"name": "createSellOrder",
			"outputs": [],
			"stateMutability": "nonpayable",
			"type": "function"
		},
		{
			"inputs": [],
			"name": "slvToken",
			"outputs": [
				{
					"internalType": "contract IERC20",
					"name": "",
					"type": "address"
				}
			],
			"stateMutability": "view",
			"type": "function"
		}
	]
}